{
  "_format": "hh-sol-artifact-1",
  "contractName": "CasimirUpkeep",
  "sourceName": "src/v1/CasimirUpkeep.sol",
  "abi": [
    {
      "inputs": [],
      "stateMutability": "nonpayable",
      "type": "constructor"
    },
    {
      "inputs": [],
      "name": "EmptyArgs",
      "type": "error"
    },
    {
      "inputs": [],
      "name": "EmptySource",
      "type": "error"
    },
    {
      "inputs": [],
      "name": "InvalidAddress",
      "type": "error"
    },
    {
      "inputs": [],
      "name": "InvalidAmount",
      "type": "error"
    },
    {
      "inputs": [],
      "name": "InvalidRequest",
      "type": "error"
    },
    {
      "inputs": [],
      "name": "PoolAlreadyInitiated",
      "type": "error"
    },
    {
      "inputs": [],
      "name": "PoolAlreadyWithdrawn",
      "type": "error"
    },
    {
      "inputs": [],
      "name": "PoolMaxReshared",
      "type": "error"
    },
    {
      "inputs": [],
      "name": "PoolNotActive",
      "type": "error"
    },
    {
      "inputs": [],
      "name": "PoolNotExiting",
      "type": "error"
    },
    {
      "inputs": [],
      "name": "PoolNotPending",
      "type": "error"
    },
    {
      "inputs": [],
      "name": "RequestIsAlreadyPending",
      "type": "error"
    },
    {
      "inputs": [],
      "name": "RequestIsNotPending",
      "type": "error"
    },
    {
      "inputs": [],
      "name": "SenderIsNotRegistry",
      "type": "error"
    },
    {
      "inputs": [],
      "name": "TransferFailed",
      "type": "error"
    },
    {
      "inputs": [],
      "name": "Unauthorized",
      "type": "error"
    },
    {
      "inputs": [],
      "name": "UpkeepNotNeeded",
      "type": "error"
    },
    {
      "anonymous": false,
      "inputs": [
        {
          "indexed": false,
          "internalType": "uint256",
          "name": "count",
          "type": "uint256"
        }
      ],
      "name": "ActivationsRequested",
      "type": "event"
    },
    {
      "anonymous": false,
      "inputs": [
        {
          "indexed": false,
          "internalType": "uint256",
          "name": "count",
          "type": "uint256"
        }
      ],
      "name": "CompletedExitReportsRequested",
      "type": "event"
    },
    {
      "anonymous": false,
      "inputs": [
        {
          "indexed": false,
          "internalType": "uint256",
          "name": "count",
          "type": "uint256"
        }
      ],
      "name": "ForcedExitReportsRequested",
      "type": "event"
    },
    {
      "anonymous": false,
      "inputs": [
        {
          "indexed": false,
          "internalType": "address",
          "name": "newFunctionsOracleAddress",
          "type": "address"
        }
      ],
      "name": "FunctionsOracleAddressSet",
      "type": "event"
    },
    {
      "anonymous": false,
      "inputs": [
        {
          "indexed": false,
          "internalType": "string",
          "name": "newRequestSource",
          "type": "string"
        },
        {
          "indexed": false,
          "internalType": "string[]",
          "name": "newRequestArgs",
          "type": "string[]"
        },
        {
          "indexed": false,
          "internalType": "uint32",
          "name": "newFulfillGasLimit",
          "type": "uint32"
        }
      ],
      "name": "FunctionsRequestSet",
      "type": "event"
    },
    {
      "anonymous": false,
      "inputs": [
        {
          "indexed": false,
          "internalType": "uint8",
          "name": "version",
          "type": "uint8"
        }
      ],
      "name": "Initialized",
      "type": "event"
    },
    {
      "anonymous": false,
      "inputs": [
        {
          "indexed": true,
          "internalType": "bytes32",
          "name": "requestId",
          "type": "bytes32"
        },
        {
          "indexed": false,
          "internalType": "bytes",
          "name": "result",
          "type": "bytes"
        },
        {
          "indexed": false,
          "internalType": "bytes",
          "name": "err",
          "type": "bytes"
        }
      ],
      "name": "OCRResponse",
      "type": "event"
    },
    {
      "anonymous": false,
      "inputs": [
        {
          "indexed": true,
          "internalType": "address",
          "name": "previousOwner",
          "type": "address"
        },
        {
          "indexed": true,
          "internalType": "address",
          "name": "newOwner",
          "type": "address"
        }
      ],
      "name": "OwnershipTransferred",
      "type": "event"
    },
    {
      "anonymous": false,
      "inputs": [
        {
          "indexed": true,
          "internalType": "bytes32",
          "name": "id",
          "type": "bytes32"
        }
      ],
      "name": "RequestFulfilled",
      "type": "event"
    },
    {
      "anonymous": false,
      "inputs": [
        {
          "indexed": true,
          "internalType": "bytes32",
          "name": "id",
          "type": "bytes32"
        }
      ],
      "name": "RequestSent",
      "type": "event"
    },
    {
      "anonymous": false,
      "inputs": [
        {
          "indexed": true,
          "internalType": "enum ICasimirUpkeep.ReportStatus",
          "name": "status",
          "type": "uint8"
        }
      ],
      "name": "UpkeepPerformed",
      "type": "event"
    },
    {
      "inputs": [
        {
          "internalType": "bytes",
          "name": "",
          "type": "bytes"
        }
      ],
      "name": "checkUpkeep",
      "outputs": [
        {
          "internalType": "bool",
          "name": "upkeepNeeded",
          "type": "bool"
        },
        {
          "internalType": "bytes",
          "name": "checkData",
          "type": "bytes"
        }
      ],
      "stateMutability": "view",
      "type": "function"
    },
    {
      "inputs": [],
      "name": "compoundStake",
      "outputs": [
        {
          "internalType": "bool",
          "name": "",
          "type": "bool"
        }
      ],
      "stateMutability": "view",
      "type": "function"
    },
    {
      "inputs": [
        {
          "components": [
            {
              "internalType": "enum Functions.Location",
              "name": "codeLocation",
              "type": "uint8"
            },
            {
              "internalType": "enum Functions.Location",
              "name": "secretsLocation",
              "type": "uint8"
            },
            {
              "internalType": "enum Functions.CodeLanguage",
              "name": "language",
              "type": "uint8"
            },
            {
              "internalType": "string",
              "name": "source",
              "type": "string"
            },
            {
              "internalType": "bytes",
              "name": "secrets",
              "type": "bytes"
            },
            {
              "internalType": "string[]",
              "name": "args",
              "type": "string[]"
            }
          ],
          "internalType": "struct Functions.Request",
          "name": "req",
          "type": "tuple"
        },
        {
          "internalType": "uint64",
          "name": "subscriptionId",
          "type": "uint64"
        },
        {
          "internalType": "uint32",
          "name": "gasLimit",
          "type": "uint32"
        },
        {
          "internalType": "uint256",
          "name": "gasPrice",
          "type": "uint256"
        }
      ],
      "name": "estimateCost",
      "outputs": [
        {
          "internalType": "uint96",
          "name": "",
          "type": "uint96"
        }
      ],
      "stateMutability": "view",
      "type": "function"
    },
    {
      "inputs": [],
      "name": "getDONPublicKey",
      "outputs": [
        {
          "internalType": "bytes",
          "name": "",
          "type": "bytes"
        }
      ],
      "stateMutability": "view",
      "type": "function"
    },
    {
      "inputs": [
        {
          "internalType": "bytes32",
          "name": "requestId",
          "type": "bytes32"
        },
        {
          "internalType": "bytes",
          "name": "response",
          "type": "bytes"
        },
        {
          "internalType": "bytes",
          "name": "err",
          "type": "bytes"
        }
      ],
      "name": "handleOracleFulfillment",
      "outputs": [],
      "stateMutability": "nonpayable",
      "type": "function"
    },
    {
      "inputs": [
        {
          "internalType": "address",
          "name": "factoryAddress",
          "type": "address"
        },
        {
          "internalType": "address",
          "name": "functionsOracleAddress",
          "type": "address"
        },
        {
          "internalType": "bool",
          "name": "compoundStake_",
          "type": "bool"
        }
      ],
      "name": "initialize",
      "outputs": [],
      "stateMutability": "nonpayable",
      "type": "function"
    },
    {
      "inputs": [],
      "name": "owner",
      "outputs": [
        {
          "internalType": "address",
          "name": "",
          "type": "address"
        }
      ],
      "stateMutability": "view",
      "type": "function"
    },
    {
      "inputs": [
        {
          "internalType": "bytes",
          "name": "",
          "type": "bytes"
        }
      ],
      "name": "performUpkeep",
      "outputs": [],
      "stateMutability": "nonpayable",
      "type": "function"
    },
    {
      "inputs": [],
      "name": "renounceOwnership",
      "outputs": [],
      "stateMutability": "nonpayable",
      "type": "function"
    },
    {
      "inputs": [
        {
          "internalType": "address",
          "name": "newFunctionsOracleAddress",
          "type": "address"
        }
      ],
      "name": "setFunctionsOracle",
      "outputs": [],
      "stateMutability": "nonpayable",
      "type": "function"
    },
    {
      "inputs": [
        {
          "internalType": "string",
          "name": "newRequestSource",
          "type": "string"
        },
        {
          "internalType": "string[]",
          "name": "newRequestArgs",
          "type": "string[]"
        },
        {
          "internalType": "uint32",
          "name": "newFulfillGasLimit",
          "type": "uint32"
        }
      ],
      "name": "setFunctionsRequest",
      "outputs": [],
      "stateMutability": "nonpayable",
      "type": "function"
    },
    {
      "inputs": [
        {
          "internalType": "address",
          "name": "newOwner",
          "type": "address"
        }
      ],
      "name": "transferOwnership",
      "outputs": [],
      "stateMutability": "nonpayable",
      "type": "function"
    }
  ],
  "bytecode": "0x60806040523462000026576200001462000055565b604051613c22620002618239613c2290f35b600080fd5b6200003e6200003b6200003b9290565b90565b6001600160a01b031690565b6200003b906200002b565b6200006b6200006560006200004a565b62000077565b6200007562000164565b565b620000759062000249565b6200003b9060081c5b60ff1690565b6200003b905462000082565b60208082526027908201527f496e697469616c697a61626c653a20636f6e747261637420697320696e697469604082015266616c697a696e6760c81b606082015260800190565b15620000ec57565b60405162461bcd60e51b81528062000107600482016200009d565b0390fd5b6200003b906200008b565b6200003b90546200010b565b9060ff905b9181191691161790565b6200008b6200003b6200003b9260ff1690565b90620001586200003b620001609262000131565b825462000122565b9055565b620001826200017c62000178600062000091565b1590565b620000e4565b6200018e600062000116565b60ff9081908116036200019e5750565b620001ab81600062000144565b620001ec7f7f26b83ff96e1f2b6a682f133852f6798a09c465da95921460cefb384740249891620001db60405190565b9182918260ff909116815260200190565b0390a1565b6200003b906200003e906001600160a01b031682565b6200003b90620001f1565b6200003b9062000207565b906001600160a01b039062000127565b90620002416200003b620001609262000212565b82546200021d565b62000258620000759162000212565b60976200022d56fe6080604052600436101561001257600080fd5b60003560e01c80630ca76175146100d257806315ad5067146100cd5780634585e33b146100c85780634ada75dc146100c357806364d310e6146100be5780636e04ff0d146100b9578063715018a6146100b45780638da5cb5b146100af578063d328a91e146100aa578063d4b39175146100a5578063e4bbb5a8146100a05763f2fde38b036100e0576107dd565b6107c4565b610746565b61053d565b610504565b6104d3565b6104a5565b6103e2565b610395565b610346565b610301565b610210565b805b036100e057565b600080fd5b905035906100f2826100d7565b565b634e487b7160e01b600052604160045260246000fd5b90601f01601f191681019081106001600160401b0382111761012b57604052565b6100f4565b906100f261013d60405190565b928361010a565b6001600160401b03811161012b57602090601f01601f19160190565b0190565b90826000939282370152565b9092919261018561018082610144565b610130565b938185526020850190828401116100e0576100f292610164565b9080601f830112156100e0578160206101ba93359101610170565b90565b916060838303126100e0576101d282846100e5565b9260208101356001600160401b0381116100e057836101f291830161019f565b9260408201356001600160401b0381116100e0576101ba920161019f565b346100e0576102296102233660046101bd565b91613624565b604051005b0390f35b909182601f830112156100e0578135916001600160401b0383116100e05760200192600183028401116100e057565b909182601f830112156100e0578135916001600160401b0383116100e05760200192602083028401116100e057565b63ffffffff81166100d9565b905035906100f282610290565b6060818303126100e05780356001600160401b0381116100e057826102cf918301610232565b909390929060208301356001600160401b0381116100e0576102f6836101ba928601610261565b93909460400161029c565b346100e0576102296103143660046102a9565b93929092612439565b906020828203126100e05781356001600160401b0381116100e0576103429201610232565b9091565b346100e05761022961035936600461031d565b90611586565b6001600160a01b031690565b6100d98161035f565b905035906100f28261036b565b906020828203126100e0576101ba91610374565b346100e0576102296103a8366004610381565b611efe565b60009103126100e057565b6101ba916008021c5b60ff1690565b906101ba91546103b8565b6101ba600060996103c7565b9052565b346100e0576103f23660046103ad565b61022e6103fd6103d2565b60405191829182901515815260200190565b906020828203126100e05781356001600160401b0381116100e0576101ba920161019f565b60005b8381106104475750506000910152565b8181015183820152602001610437565b6104786104816020936101609361046c815190565b80835293849260200190565b95869101610434565b601f01601f191690565b90151581526040602082018190526101ba92910190610457565b346100e0576104bd6104b836600461040f565b612551565b9061022e6104ca60405190565b9283928361048b565b346100e0576104e33660046103ad565b610229610841565b6103de9061035f565b6020810192916100f291906104eb565b346100e0576105143660046103ad565b61022e61051f6107ff565b6040515b918291826104f4565b60208082526101ba92910190610457565b346100e05761054d3660046103ad565b61022e6105586129b5565b6040519182918261052c565b600211156100e057565b905035906100f282610564565b600111156100e057565b905035906100f28261057b565b6001600160401b03811161012b5760208091020190565b9291906105b861018082610592565b93818552602080860192028101918383116100e05781905b8382106105de575050505050565b81356001600160401b0381116100e0576020916105fe878493870161019f565b8152019101906105d0565b9080601f830112156100e0578160206101ba933591016105a9565b91909160c0818403126100e05761063b60c0610130565b926000610648828461056e565b90850152602061065a8282850161056e565b90850152604061066c82828501610585565b818601526060830135600180831b0381116100e0578261068d91850161019f565b60608601526080830135600180831b0381116100e057826106af91850161019f565b608086015260018060a0850135921b0381116100e0576106cf9201610609565b60a0830152565b6001600160401b031690565b6100d9816106d6565b905035906100f2826106e2565b6080818303126100e05780356001600160401b0381116100e0578261071e918301610624565b926101ba61072f84602085016106eb565b9361073d816040860161029c565b936060016100e5565b346100e05761022e61076561075c3660046106f8565b92919091612a83565b604051918291826001600160601b03909116815260200190565b8015156100d9565b905035906100f28261077f565b90916060828403126100e0576101ba6107ad8484610374565b936107bb8160208601610374565b93604001610787565b346100e0576102296107d7366004610794565b91610ca5565b346100e0576102296107f0366004610381565b610955565b6101ba905461035f565b6101ba60336107f5565b61081161089d565b6100f261082f565b61035f6101ba6101ba9290565b6101ba90610819565b6100f261083c6000610826565b6109b4565b6100f2610809565b1561085057565b60405162461bcd60e51b815280610899600482016020808252818101527f4f776e61626c653a2063616c6c6572206973206e6f7420746865206f776e6572604082015260600190565b0390fd5b6100f26108a86107ff565b6108bf6108b93361035f565b61035f565b9161035f565b14610849565b6100f2906108d161089d565b610931565b156108dd57565b60405162461bcd60e51b815260206004820152602660248201527f4f776e61626c653a206e6577206f776e657220697320746865207a65726f206160448201526564647265737360d01b6064820152608490fd5b6100f29061083c6109456108b46000610826565b61094e8361035f565b14156108d6565b6100f2906108c5565b906001600160a01b03905b9181191691161790565b6101ba9061035f906001600160a01b031682565b6101ba90610973565b6101ba90610987565b906109a96101ba6109b092610990565b825461095e565b9055565b6109be60336107f5565b906109ca816033610999565b6109fd6109f77f8be0079c531659141344cd1fd0a4f28419497f9722a3daafe3b4186f6b6457e093610990565b91610990565b91610a0760405190565b600090a3565b6101ba9060081c6103c1565b6101ba9054610a0d565b6101ba906103c1565b6101ba9054610a23565b6103c16101ba6101ba9290565b15610a4a57565b60405162461bcd60e51b815260206004820152602e60248201527f496e697469616c697a61626c653a20636f6e747261637420697320616c72656160448201526d191e481a5b9a5d1a585b1a5e995960921b6064820152608490fd5b9060ff90610969565b6103c16101ba6101ba9260ff1690565b90610acf6101ba6109b092610aaf565b8254610aa6565b9061ff009060081b610969565b90610af36101ba6109b092151590565b8254610ad6565b6103de90610a36565b6020810192916100f29190610afa565b91610b6190610b29610b256000610a19565b1590565b928380610c04575b8015610bbf575b610b4190610a43565b60019484610b58610b5188610a36565b6000610abf565b610baf57610c5c565b610b685750565b610b73600080610ae3565b610baa7f7f26b83ff96e1f2b6a682f133852f6798a09c465da95921460cefb384740249891610ba160405190565b91829182610b03565b0390a1565b610bba866000610ae3565b610c5c565b50610bd4610b25610bcf30610990565b610ddb565b8015610b385750610b41610be86000610a2c565b610bfc610bf56001610a36565b9160ff1690565b149050610b38565b50610c0f6000610a2c565b610c1c610bf56001610a36565b10610b31565b90610100600160a81b039060081b610969565b90610c456101ba6109b092610990565b8254610c22565b90610acf6101ba6109b092151590565b6100f292610c86610c7f610ca093610c72610d2d565b610c7a610d6c565b610990565b6099610c35565b610c99610c9233610990565b609a610999565b6099610c4c565b613bd9565b906100f29291610b13565b15610cb757565b60405162461bcd60e51b815260206004820152602b60248201527f496e697469616c697a61626c653a20636f6e7472616374206973206e6f74206960448201526a6e697469616c697a696e6760a81b6064820152608490fd5b610d22610d1d6000610a19565b610cb0565b6100f26100f2610d4c565b6100f2610d10565b610d42610d1d6000610a19565b6100f280336109b4565b6100f2610d35565b610d61610d1d6000610a19565b6100f26100f2610dd3565b6100f2610d54565b610d81610d1d6000610a19565b6100f2610dc1565b6101ba6101ba6101ba9290565b6101ba6001610d89565b9060001990610969565b90610dba6101ba6109b092610d89565b8254610da0565b6100f2610dcc610d96565b6065610daa565b6100f2610d74565b3b610ded610de96000610d89565b9190565b1190565b90610dfe61018083610144565b918252565b6101ba6000610df1565b6101ba610e03565b634e487b7160e01b600052602160045260246000fd5b60031115610e3557565b610e15565b906100f282610e2b565b905051906100f2826100d7565b906020828203126100e0576101ba91610e44565b6040513d6000823e3d90fd5b6101ba9060081c5b63ffffffff1690565b6101ba9054610e71565b905051906100f28261077f565b906020828203126100e0576101ba91610e8c565b6103de90610d89565b6101ba6101ba6101ba9263ffffffff1690565b6103de90610eb6565b9160206100f2929493610eed60408201966000830190610ead565b0190610ec9565b6020810192916100f29190610ead565b6101ba90610e3a565b90610acf6101ba6109b092610f04565b6101ba9081565b6101ba9054610f1d565b610f5b6100f294610f54606094989795610f4d608086019a6000870152565b6020850152565b6040830152565b0152565b6101ba90610e79565b6101ba9060201c610e79565b6101ba9060401c610e79565b6101ba9060601c610e79565b6101ba9060801c610e79565b6101ba9060a01c610e79565b6101ba9060c01c610e79565b6101ba9060e01c610e79565b90610fcd610fc960059290565b9290565b6000915b505461105f565b63ffffffff169052565b50505050565b505050505050565b6001602084610fe860009596610fd886610f8c565b6001602084611019839596610fd886610f80565b0193019150610ff0565b6001602084611037839596610fd886610f74565b0193019150611005565b6001602084611055839596610fd886610f68565b0193019150611023565b6001602084611073839596610fd886610f5f565b0193019150611041565b60078301811115610fd15791909260016020610fd861110c600894838080808080808f54976110af81610fd88b610f5f565b016110bd81610fd88a610f68565b016110cb81610fd889610f74565b016110d981610fd888610f80565b016110e781610fd887610f8c565b016110f581610fd886610f98565b0161110381610fd885610fa4565b01928391610fb0565b01940191019161107d565b60a0810192916100f29190610fbc565b6001600160401b03811161012b5760200290565b6101806101ba91611127565b634e487b7160e01b600052600060045260246000fd5b634e487b7160e01b600052601160045260246000fd5b8181029291811591840414171561118657565b61115d565b9160001960089290920291821b911b610969565b921b90565b91906111b56101ba6109b093610d89565b90835461118b565b6100f2916000916111a4565b8181106111d4575050565b806111e260006001936111bd565b016111c9565b906111fb90600019906020036008021c90565b8154169055565b91909182821061121157505050565b6100f29260049060089060070181900460086007860104840193019306026000811161123e575b506111c9565b61124b90600183036111e8565b38611238565b90600160401b811161012b576100f291600590611202565b9190600861096991029161119f63ffffffff841b90565b90600590610fc9611295916101ba8486611251565b600882049160005b8381106113025750600883029003600081116112b95750505050565b92600093845b8181106112d457505050015538808080610fe2565b90919460206112f86001926112ed6101ba8a5160ff1690565b908560040290611269565b96019291016112bf565b6000805b6008811061131b57508382015560010161129d565b9590602061133e6001926113336101ba865160ff1690565b908a60040290611269565b92019601611306565b906100f291611280565b905051906100f282610290565b906020828203126100e0576101ba91611351565b9064ffffffff009060081b610969565b610e796101ba6101ba9263ffffffff1690565b906113a56101ba6109b092611382565b8254611372565b6101ba60c0610130565b6113be6113ac565b906000825260208080808080870160008152016000815201606081520160608152016060905250565b6101ba6113b6565b634e487b7160e01b600052602260045260246000fd5b9060016002830492168015611425575b602083101461142057565b6113ef565b91607f1691611415565b8054600093929161144c61144283611405565b8085529360200190565b916001811690811561149e575060011461146557505050565b6114789192939450600052602060002090565b916000925b81841061148a5750500190565b80548484015260209093019260010161147d565b92949550505060ff1916825215156020020190565b906101ba9161142f565b906100f26114d7926114ce60405190565b938480926114b3565b038361010a565b6101ba906114bd565b90610dfe61018083610592565b906114fd825490565b611506816114e7565b9261151a6020850191600052602060002090565b6000915b83831061152b5750505050565b60016020819261153a856114de565b81520192019201919061151e565b6101ba906114f4565b634e487b7160e01b600052603260045260246000fd5b90611570825190565b811015611581576020809102010190565b611551565b505061159b6115966104b8610e0d565b501590565b611bef576115a9609c610a2c565b6000906115be6115b883610e3a565b91610e3a565b0361178157611625906115db6115d4609f610f24565b609b610daa565b60016115e881609c610f0d565b6115f343609e610daa565b6115fe42609f610daa565b602061160d610c7a609a6107f5565b630ea61dad9061161c60405190565b95869260e01b90565b825260049082905afa92831561177c576117089361164d9160009161174e575b50609c611395565b61166b6116586113e7565b9261166360a96114de565b908085611c3d565b61170061167860aa611548565b916116b26116ac61169161168c609b610f24565b611cd4565b6007906116a66116a083610d89565b88611567565b52610d89565b84611567565b506116d56116ac6116c661168c609f610f24565b6008906116a66116a083610d89565b506116f86116ac6116e961168c609e610f24565b6009906116a66116a083610d89565b508284612775565b600291612775565b611712609c610a2c565b61173c7f18eb56d7a32d9585488a432fd731f15638004ddc3a7e3702f6118726f0d424a291610f04565b9061174660405190565b80805b0390a2565b61176f915060203d8111611775575b611767818361010a565b81019061135e565b38611645565b503d61175d565b610e65565b61178e610c7a609a6107f5565b63a0b297d390602061179f60405190565b80926117ab8560e01b90565b825260049082905afa90811561177c57600091611bd1575b506117d0610de984610d89565b119081611b66575b81611a99575b50611a22575b61182c60206117f6610c7a609a6107f5565b6358c4e72e90611820611809609c610e82565b9261181360405190565b9586948593849360e01b90565b83528860048401610ed2565b03915afa801561177c57611846916000916119fa57501590565b611851575b50611708565b61185c81609c610f0d565b611869610c7a609a6107f5565b63aaf0c55861187860a1610f24565b61188260a0610f24565b9261188d60a2610f24565b61189760a4610f24565b823b156100e05786946118ca86926118bf946118b260405190565b998a988997889660e01b90565b865260048601610f2e565b03925af1801561177c576119de575b506118e7610c7a609a6107f5565b90631ae0f14a9160a590803b156100e05761190793839161161c60405190565b82528183816119198760048301611117565b03925af192831561177c576119ac936119b2575b5061196261193a83610d89565b6119458160a1610daa565b6119508160a2610daa565b61195b8160a3610daa565b60a4610daa565b6119a761196f600561113b565b9261198861197c82610a36565b809286019060ff169052565b60ff166020840181905260408401819052606084018190526080840152565b611347565b3861184b565b6119d190833d85116119d7575b6119c9818361010a565b8101906103ad565b3861192d565b503d6119bf565b6119f490823d84116119d7576119c9818361010a565b386118d9565b610b25915060203d8111611a1b575b611a13818361010a565b810190610e99565b503d611a09565b611a2f610c7a609a6107f5565b63606225d06005823b156100e057611a6892611a5d858094611a5060405190565b9687958694859360e01b90565b835260048301610ef4565b03925af1801561177c57611a7d575b506117e4565b611a9390823d84116119d7576119c9818361010a565b38611a77565b611abb9150602090611aae610c7a609a6107f5565b6040515b93849260e01b90565b825260049082905afa90811561177c57600091611b48575b50611af56020611ae6610c7a609a6107f5565b63be788e7090611ab260405190565b825260049082905afa90811561177c57611b1891610de991600091611b20575090565b1115386117de565b6101ba915060203d8111611b41575b611b39818361010a565b810190610e51565b503d611b2f565b611b60915060203d8111611b4157611b39818361010a565b38611ad3565b9050611b996020611b7a610c7a609a6107f5565b6358c4e72e90611b8d611809609c610e82565b83528960048401610ed2565b03915afa90811561177c57600091611bb3575b50906117d8565b611bcb915060203d8111611a1b57611a13818361010a565b38611bac565b611be9915060203d8111611b4157611b39818361010a565b386117c3565b60405163865676e360e01b8152600490fd5b60021115610e3557565b906100f282611c01565b906103de90611c0b565b60011115610e3557565b906100f282611c1f565b906103de90611c29565b90611c46845190565b92600093611c56610de986610d89565b14611c7557611c6c610f5b926060958501611c15565b60408301611c33565b6040516322ce3edd60e01b8152600490fd5b369037565b906100f2611ca2611c9c84610df1565b93610144565b601f190160208401611c87565b634e487b7160e01b600052601260045260246000fd5b8115611ccf570490565b611caf565b611cdd81611d60565b90611ced60019261016084610d89565b9180611cf884611c8c565b936020018401905b611d0b575b50505090565b611d3f9060001901926f181899199a1a9b1b9c1cb0b131b232b360811b600a82061a8453611d39600a610d89565b90611cc5565b9081611d4e610de96000610d89565b14611d5b57909181611d00565b611d05565b611d6a6000610d89565b9072184f03e93ff9f4daa797ed6e38ed64bf6a1f0160401b611d8b81610d89565b821015611edc575b506904ee2d6d415b85acef8160201b611dab81610d89565b821015611eba575b50662386f26fc10000611dc581610d89565b821015611e98575b506305f5e100611ddc81610d89565b821015611e76575b50612710611df181610d89565b821015611e54575b506064611e0581610d89565b821015611e32575b50611e1b610de9600a610d89565b1015611e245790565b6101ba906101606001610d89565b611e4d91611d39611e4292610d89565b916101606002610d89565b9038611e0d565b611e6f91611d39611e6492610d89565b916101606004610d89565b9038611df9565b611e9191611d39611e8692610d89565b916101606008610d89565b9038611de4565b611eb391611d39611ea892610d89565b916101606010610d89565b9038611dcd565b611ed591611d39611eca92610d89565b916101606020610d89565b9038611db3565b611ef791611d39611eec92610d89565b916101606040610d89565b9038611d93565b611f066128be565b611f0f81613bd9565b610baa7f14597f5c98f0254bfe4b61068292c20348eb02c3ef2e7a25ac51b19dd43945169161052360405190565b818110611f48575050565b80611f5660006001936111bd565b01611f3d565b9190601f8111611f6b57505050565b611f7d6100f293600052602060002090565b906020601f840181900483019310611fa0575b6020601f909101045b0190611f3d565b9091508190611f90565b9060001960089091021c191690565b81611fc391611faa565b906002021790565b91906001600160401b03821161012b57611fef82611fe98554611405565b85611f5c565b600090601f831160011461201d576109b0929160009183612012575b5050611fb9565b01359050388061200b565b601f1983169161203285600052602060002090565b92815b81811061207057509160029391856001969410612056575b50505002019055565b612066910135601f841690611faa565b905538808061204d565b91936020600181928787013581550195019201612035565b906100f29291611fcb565b903590601e1936829003018212156100e057018035906001600160401b0382116100e057602001913682900383136100e057565b906000916120e56120dd82600052602060002090565b928354611fb9565b905555565b919290602082101561214257601f841160011461210c576109b0929350611fb9565b509061213d6100f293600161213461212985600052602060002090565b92601f602091010490565b82019101611f3d565b6120c7565b5061217b8293612159600194600052602060002090565b611f996020601f860104820192601f861680612183575b50601f602091010490565b600202179055565b61218f908886036111e8565b38612170565b929091600160401b821161012b57602011156121dc5760208110156121bd576109b091611fb9565b60019160ff19166121d384600052602060002090565b55600202019055565b60019150600202019055565b9081546121f481611405565b9081831161221c575b81831061220a5750505050565b612213936120ea565b38808080610fe2565b61222883838387612195565b6121fd565b60006100f2916121e8565b90600003612249576100f29061222d565b611147565b818110612259575050565b806122676000600193612238565b0161224e565b909182811061227b57505050565b6100f29290612291905b92600052602060002090565b908101910161224e565b90600160401b811161012b57816122b36100f2935490565b9082815561226d565b906122c7838361229b565b6122d081612285565b906000925b8484106122e3575050505050565b60016020826122fd6122f6849587612093565b9088612088565b019301930192916122d5565b906100f292916122bc565b9063ffffffff90610969565b906123306101ba6109b092611382565b8254612314565b91906104818161234e816101609560209181520190565b8095610164565b906101ba9291612337565b9035601e1936839003018112156100e0570160208101919035906001600160401b0382116100e0573682900383136100e057565b8183529160200190816123aa6020830284019490565b92836000925b8484106123c05750505050505090565b90919293949560206123ed6123e683856001950388526123e08b88612360565b90612355565b9860200190565b9401940192949391906123b0565b9594926100f29461241e61242c9360409560608b01918b830360008d0152612337565b9188830360208a0152612394565b94019063ffffffff169052565b9193610baa91936124486128be565b612454858560a9612088565b612460818760aa612309565b61246b8260ab612320565b7f08680aea41d742b5a2b757e02ac32735cbebe8fc60be6980bd3aa339ca348e7d9561249660405190565b958695866123fb565b909291926124af61018082610592565b93818552602080860192028301928184116100e057915b8383106124d35750505050565b602080916124e18486611351565b8152019201916124c6565b9080601f830112156100e05781516101ba9260200161249f565b906020828203126100e05781516001600160401b0381116100e0576101ba92016124ec565b9190820180921161118657565b9190820391821161118657565b6101ba62015180610d89565b506060906000612561609c610a2c565b906000916125716115b884610e3a565b03612660575061259781612588610c7a609a6107f5565b63d5d2722c90611ab260405190565b825260049082905afa801561177c576125b69160009161264157505190565b6125d6826125c7610c7a609a6107f5565b636d83dd5c90611ab260405190565b825260049082905afa801561177c5761260c9261260061260692610de99460009161264157505190565b9061252b565b92610d89565b116126214261261b609f610f24565b90612538565b61262f610de96101ba612545565b10158161263b57509190565b90509190565b61265c913d8091833e612654818361010a565b810190612506565b5190565b905061266c609c610a2c565b6126796115b86002610e3a565b14612682579190565b5061268d60a2610f24565b6126ae602061269f610c7a609a6107f5565b63b8250ec090611ab260405190565b825260049082905afa90811561177c576126d191610de991600091611b20575090565b148015610de957506126e360a4610f24565b61270460206126f5610c7a609a6107f5565b63ecd3fc9b90611ab260405190565b825260049082905afa90811561177c5761272791610de991600091611b20575090565b149190565b905051906100f2826106e2565b906020828203126100e0576101ba9161272c565b6101ba9054610f5f565b90600052602052604060002090565b60001981146111865760010190565b91906127af906127a86127a261278d61168c86610f04565b600a906116a661279c83610d89565b86611567565b82611567565b508361285b565b6127d060206127c1610c7a609a6107f5565b6335ca8ce790611ab260405190565b825260049082905afa90811561177c576128119361280c926128059260009161282d575b506127ff60ab61274d565b91613440565b60a7612757565b610f0d565b6100f2612826612821609d610f24565b612766565b609d610daa565b61284e915060203d8111612854575b612846818361010a565b810190612739565b386127f4565b503d61283c565b815161286a610de96000610d89565b146128755760a00152565b60405163fe936cb760e01b8152600490fd5b6101ba9060081c61035f565b6101ba9054612887565b905051906100f28261036b565b906020828203126100e0576101ba9161289d565b336128e060206128d1610c7a6099612893565b63893d20e890611ab260405190565b825260049082905afa90811561177c57612906916108b99160009161291e575b5061035f565b0361290d57565b6040516282b42960e81b8152600490fd5b61293f915060203d8111612945575b612937818361010a565b8101906128aa565b38612900565b503d61292d565b9092919261295c61018082610144565b938185526020850190828401116100e0576100f292610434565b9080601f830112156100e05781516101ba9260200161294c565b906020828203126100e05781516001600160401b0381116100e0576101ba9201612976565b6129d660006129c7610c7a60976107f5565b63d328a91e90611ab260405190565b825260049082905afa90811561177c576000916129f1575090565b6101ba913d8091833e612a04818361010a565b810190612990565b6001600160601b0381166100d9565b905051906100f282612a0c565b906020828203126100e0576101ba91612a1b565b6103de906106d6565b610f5b612a746060936100f296989795612a6760808601926000870190612a3c565b8482036020860152610457565b63ffffffff9097166040830152565b92612aca60209394612a93600090565b50612ad5612aa4610c7a60976107f5565b93612ab363d227d24593612c54565b97612abd60405190565b9889978896879660e01b90565b865260048601612a45565b03915afa90811561177c57600091612aeb575090565b6101ba915060203d8111612b0c575b612b04818361010a565b810190612a28565b503d612afa565b6101ba6040610130565b612b25612b13565b906060825260006020830152565b6101ba612b1d565b6101ba610100610d89565b612b50600c610df1565b6b31b7b232a637b1b0ba34b7b760a11b602082015290565b6101ba612b46565b6101ba9051611c0b565b6101ba90611c0b565b612b8d6008610df1565b676c616e677561676560c01b602082015290565b6101ba612b83565b6101ba9051611c29565b6101ba90611c29565b612bc66006610df1565b65736f7572636560d01b602082015290565b6101ba612bbc565b612bea6004610df1565b636172677360e01b602082015290565b6101ba612be0565b612c0c600f610df1565b6e39b2b1b932ba39a637b1b0ba34b7b760891b602082015290565b6101ba612c02565b612c396007610df1565b667365637265747360c81b602082015290565b6101ba612c2f565b612c5c612b33565b612c6d612c67612b3b565b82612dd3565b50612c7f612c79612b68565b826133a2565b612c99612c93612c8e84612b70565b612b7a565b82612e6c565b612ca4612c79612ba1565b612cbb612c93612cb660408501612ba9565b612bb3565b612cc6612c79612bd8565b612cd46060830151826133a2565b60a0820191612ce283515190565b92600093612cf2610de986610d89565b11612d64575b5060808101805151612d0c610de986610d89565b11612d19575b5050015190565b612d45612d3f612c8e6020612d5d95612d39612d33612c27565b896133a2565b01612b70565b84612e6c565b612d56612d50612c4c565b846133a2565b5182613310565b3880612d12565b939092612d72612d50612bfa565b612d7b836133cf565b612d8481610d89565b612d906101ba87515190565b811015612db55780612821612da9612db0938951611567565b51866133a2565b612d84565b5092909350612dc382613408565b38612cf8565b8115611ccf570690565b90612ddc612b33565b50602090612df2612dec83610d89565b82612dc9565b600090612e01610de983610d89565b03612e22575b612e118284860152565b604051908185528152010160405290565b90612e4a90612600612e3c612e3686610d89565b83612dc9565b612e4586610d89565b612538565b90612e07565b6101ba6000610a36565b612e676101ba6101ba9290565b6106d6565b612e7c6001600160401b03610d89565b821115612e8d57906100f291613346565b6100f291612ea2612e9c612e50565b91612e5a565b91612eef565b6103c190612ebc610bf56101ba9460ff1690565b901b90565b6101ba6101ba6101ba926106d6565b612e676101ba6101ba9260ff1690565b6103c16101ba6101ba926106d6565b9091612efb6017612e5a565b612f04826106d6565b11612f3b57612f3290612f2c612f27612f3895612f216005610a36565b90612ea8565b612ed0565b17612ee0565b9061304e565b50565b612f4560ff612e5a565b612f4e826106d6565b11612f9357612f78612f67612f3894612f216005610a36565b612f716018610a36565b178361304e565b50612f8d612f87600192612ec1565b91610d89565b91613256565b612f9e61ffff612e5a565b612fa7826106d6565b11612fd957612fca612fc0612f3894612f216005610a36565b612f716019610a36565b50612f8d612f87600292612ec1565b612fe663ffffffff612e5a565b612fef826106d6565b1161302157613012613008612f3894612f216005610a36565b612f71601a610a36565b50612f8d612f87600492612ec1565b61303f613035612f3894612f216005610a36565b612f71601b610a36565b50612f8d612f87600892612ec1565b906101ba9161305b612b33565b5080515190919061306a612b33565b506020830161307b6101ba8261265c565b8210156130a5575b508251918251918291602082860101531461309d57505090565b600101905290565b6130c46130b46130ca9261265c565b6130be6002610d89565b90611173565b846130d0565b38613083565b90612f38916130e460008201519282612dd3565b505b6101ba916130f2612b33565b50815151815192613118565b156100e057565b90613113610de96101ba9390565b900a90565b939091613123612b33565b5061313a6131326101ba835190565b8511156130fe565b613144848461252b565b6020860190613158610de96101ba8461265c565b11613218575b5060209085518051948084830101958188011161320d575b505093919301915b602061318981610d89565b83106131c5576131be916131ad6131a66131b39387518452610d89565b809261252b565b9461252b565b9161261b6020610d89565b909161317e565b5091906131ef6131fe919594956131ea612f87610100926131e66020610d89565b0390565b613105565b6131f96001610d89565b900390565b90518251821691191617905290565b860190523880613176565b61323a6130b461322a6132409361265c565b613234878961252b565b90613246565b866130d0565b3861315e565b818111613251575090565b905090565b906101ba9291613264612b33565b508051519061327d565b601f8111611186576101000a90565b9290613287612b33565b50613292818361252b565b6132a4610de96101ba6020880161265c565b116132eb575b6132c06132b68361326e565b61261b6001610d89565b845193838386010191198251161790528251828201116132e05750505090565b019052388080611d05565b6133016132fb6130b4838561252b565b856130d0565b6132aa565b6101ba6002610a36565b90612f3891613337613320613306565b61333061332b855190565b612e5a565b9083612eef565b6130e6565b6101ba6006610a36565b906100f29161337261336361335961333c565b612f216005610a36565b61336b613306565b178261304e565b5061339361337f60405190565b60208181019490945292835260408361010a565b613310565b6101ba6003610a36565b90612f38916133376133b96133b5613398565b9390565b9261333061332b855190565b6101ba6004610a36565b6100f2906133db6133c5565b906133ed612f3892612f216005610a36565b6133f7601f610a36565b179061304e565b6101ba6007610a36565b6100f2906133db6133fe565b93929061242c6040916100f294613433606089019260008a0190612a3c565b8782036020890152610457565b6020919061347f6000613456610c7a60976107f5565b9261348a6134686328242b0492612c54565b9761347260405190565b9889978896879560e01b90565b855260048501613414565b03925af190811561177c5760009161353c575b506134bf60206134b0610c7a60976107f5565b635ab1bd5390611ab260405190565b825260049082905afa801561177c576134eb9160009161351e575b506134e6836098612757565b610999565b7f1131472297a800fee664d1d89cfa8f7676ff07189ecc53f80bbb5f4969099db8819061351760405190565b600090a290565b613536915060203d811161294557612937818361010a565b386134da565b613554915060203d8111611b4157611b39818361010a565b3861349d565b916001600160a01b0360089290920291821b911b610969565b91906135846101ba6109b093610990565b90835461355a565b6100f291600091613573565b6098929190336135b66108b96108b46135b18589612757565b6107f5565b03613607576135d260006135cd836100f297612757565b61358c565b7f85e1543bf2f84fe80c6badbce3648c8539ad1df4d2b3d822938ca0538be727e681906135fe60405190565b600090a2613619565b60405163a0c5ec6360e01b8152600490fd5b906100f29291613917565b906100f29291613598565b90613638815190565b906001600160401b03821161012b5761365582611fe98554611405565b602090601f8311600114613682576109b0929160009183613677575050611fb9565b01519050388061200b565b601f1983169161369785600052602060002090565b9260005b8181106136cb575091600293918560019694106136bb5750505002019055565b612066910151601f841690611faa565b9193602060018192878701518155019501920161369b565b906100f29161362f565b9190600861096991029161119f60ff841b90565b91906137126101ba6109b093610f04565b9083546136ed565b6100f291600091613701565b8015611186576000190190565b9092919261374361018082611127565b9360208592028301928184116100e057915b8383106137625750505050565b602080916137708486611351565b815201920191613755565b9080601f830112156100e0576101ba91600590613733565b610100818303126100e0576137a88282611351565b926101ba6137b98460208501611351565b936137c78160408601611351565b9360600161377b565b90600590610fc96137e5916101ba8486611251565b600882049160005b83811061384a5750600883029003600081116138095750505050565b92600093845b81811061382457505050015538808080610fe2565b90919460206138406001926112ed6101ba8a5163ffffffff1690565b960192910161380f565b6000805b600881106138635750838201556001016137ed565b9590602061387e6001926113336101ba865163ffffffff1690565b9201960161384e565b906100f2916137d0565b6020810192916100f29190610ec9565b6001600160801b0381166100d9565b905051906100f2826138a1565b91906040838203126100e0576101ba906138d781856138b0565b936020016138b0565b6101ba9081906001600160801b031681565b60408082526101ba93919261390991840190610457565b916020818403910152610457565b909160a761392d6139288483612757565b610a2c565b60009161393983610e3a565b61394283610e3a565b14613bc7576139528460a86136e3565b8461395b855190565b613967610de986610d89565b146139af575b505050506139997f7bab0ec163b5c132c72b8146ac4d6e067e82ed58f8b131150aa71c92589115629290565b926117496139a660405190565b928392836138f2565b6139bd84916139c293612757565b61371a565b6139d76128266139d2609d610f24565b613726565b6139e46115b86001610e3a565b03613a5857613a28613a21613a15613a1c613a0e613a00895190565b60208a010160208a016138bd565b92906138e0565b60a1610daa565b6138e0565b60a0610daa565b613a38610de9612606609d610f24565b14613a47575b3880808461396d565b613a536002609c610f0d565b613a3e565b613abd613a74613a66865190565b602087010160208701613793565b613a8c613a85859495969396610eb6565b60a2610daa565b613a9f613a9885610eb6565b60a3610daa565b613aab61195b86610eb6565b613ab68160a5613887565b60a6613887565b613ac760a2610f24565b613ad3610de986610d89565b11613b90575b50613ae460a3610f24565b613af0610de985610d89565b11613b59575b50613b0160a4610f24565b613b0d610de984610d89565b11613b19575b50613a28565b613b507f2e85588e294368bbb2102d8b8bd81e952c30f94956f69d2e9a6a2da5a690c91991613b4760405190565b91829182613891565b0390a138613b13565b613b877f6c2aac12c3b087390d54813fb777f4bbf13f6d18f0d79199df88e565d22605a091613b4760405190565b0390a138613af6565b613bbe7f1ecd0943228f1a4b519b7ebf99ae3b9116bd7db8120ab6ac64c063285d1c909791613b4760405190565b0390a138613ad9565b6040516341abc80160e01b8152600490fd5b613be56100f291610990565b609761099956fea26469706673582212207d0891435135c24c90997cac0a1649e5459ecffda9619e3b77bc1e18f481fd8964736f6c63430008120033",
  "linkReferences": {},
  "deployedLinkReferences": {}
}