{
  "_format": "hh-sol-artifact-1",
  "contractName": "FunctionsOracle",
  "sourceName": "@chainlink/contracts/src/v0.8/dev/functions/FunctionsOracle.sol",
  "abi": [
    {
      "inputs": [],
      "stateMutability": "nonpayable",
      "type": "constructor"
    },
    {
      "inputs": [],
      "name": "AlreadySet",
      "type": "error"
    },
    {
      "inputs": [],
      "name": "EmptyBillingRegistry",
      "type": "error"
    },
    {
      "inputs": [],
      "name": "EmptyPublicKey",
      "type": "error"
    },
    {
      "inputs": [],
      "name": "EmptyRequestData",
      "type": "error"
    },
    {
      "inputs": [],
      "name": "EmptySendersList",
      "type": "error"
    },
    {
      "inputs": [],
      "name": "InconsistentReportData",
      "type": "error"
    },
    {
      "inputs": [],
      "name": "InvalidRequestID",
      "type": "error"
    },
    {
      "inputs": [],
      "name": "NotAllowedToSetSenders",
      "type": "error"
    },
    {
      "inputs": [],
      "name": "ReportInvalid",
      "type": "error"
    },
    {
      "inputs": [],
      "name": "UnauthorizedPublicKeyChange",
      "type": "error"
    },
    {
      "inputs": [],
      "name": "UnauthorizedSender",
      "type": "error"
    },
    {
      "anonymous": false,
      "inputs": [
        {
          "indexed": false,
          "internalType": "address",
          "name": "account",
          "type": "address"
        }
      ],
      "name": "AuthorizedSendersActive",
      "type": "event"
    },
    {
      "anonymous": false,
      "inputs": [
        {
          "indexed": false,
          "internalType": "address[]",
          "name": "senders",
          "type": "address[]"
        },
        {
          "indexed": false,
          "internalType": "address",
          "name": "changedBy",
          "type": "address"
        }
      ],
      "name": "AuthorizedSendersChanged",
      "type": "event"
    },
    {
      "anonymous": false,
      "inputs": [
        {
          "indexed": false,
          "internalType": "address",
          "name": "account",
          "type": "address"
        }
      ],
      "name": "AuthorizedSendersDeactive",
      "type": "event"
    },
    {
      "anonymous": false,
      "inputs": [
        {
          "indexed": false,
          "internalType": "uint32",
          "name": "previousConfigBlockNumber",
          "type": "uint32"
        },
        {
          "indexed": false,
          "internalType": "bytes32",
          "name": "configDigest",
          "type": "bytes32"
        },
        {
          "indexed": false,
          "internalType": "uint64",
          "name": "configCount",
          "type": "uint64"
        },
        {
          "indexed": false,
          "internalType": "address[]",
          "name": "signers",
          "type": "address[]"
        },
        {
          "indexed": false,
          "internalType": "address[]",
          "name": "transmitters",
          "type": "address[]"
        },
        {
          "indexed": false,
          "internalType": "uint8",
          "name": "f",
          "type": "uint8"
        },
        {
          "indexed": false,
          "internalType": "bytes",
          "name": "onchainConfig",
          "type": "bytes"
        },
        {
          "indexed": false,
          "internalType": "uint64",
          "name": "offchainConfigVersion",
          "type": "uint64"
        },
        {
          "indexed": false,
          "internalType": "bytes",
          "name": "offchainConfig",
          "type": "bytes"
        }
      ],
      "name": "ConfigSet",
      "type": "event"
    },
    {
      "anonymous": false,
      "inputs": [
        {
          "indexed": true,
          "internalType": "bytes32",
          "name": "requestId",
          "type": "bytes32"
        },
        {
          "indexed": false,
          "internalType": "address",
          "name": "requestingContract",
          "type": "address"
        },
        {
          "indexed": false,
          "internalType": "address",
          "name": "requestInitiator",
          "type": "address"
        },
        {
          "indexed": false,
          "internalType": "uint64",
          "name": "subscriptionId",
          "type": "uint64"
        },
        {
          "indexed": false,
          "internalType": "address",
          "name": "subscriptionOwner",
          "type": "address"
        },
        {
          "indexed": false,
          "internalType": "bytes",
          "name": "data",
          "type": "bytes"
        }
      ],
      "name": "OracleRequest",
      "type": "event"
    },
    {
      "anonymous": false,
      "inputs": [
        {
          "indexed": true,
          "internalType": "bytes32",
          "name": "requestId",
          "type": "bytes32"
        }
      ],
      "name": "OracleResponse",
      "type": "event"
    },
    {
      "anonymous": false,
      "inputs": [
        {
          "indexed": true,
          "internalType": "address",
          "name": "from",
          "type": "address"
        },
        {
          "indexed": true,
          "internalType": "address",
          "name": "to",
          "type": "address"
        }
      ],
      "name": "OwnershipTransferRequested",
      "type": "event"
    },
    {
      "anonymous": false,
      "inputs": [
        {
          "indexed": true,
          "internalType": "address",
          "name": "from",
          "type": "address"
        },
        {
          "indexed": true,
          "internalType": "address",
          "name": "to",
          "type": "address"
        }
      ],
      "name": "OwnershipTransferred",
      "type": "event"
    },
    {
      "anonymous": false,
      "inputs": [
        {
          "indexed": false,
          "internalType": "bytes32",
          "name": "configDigest",
          "type": "bytes32"
        },
        {
          "indexed": false,
          "internalType": "uint32",
          "name": "epoch",
          "type": "uint32"
        }
      ],
      "name": "Transmitted",
      "type": "event"
    },
    {
      "anonymous": false,
      "inputs": [
        {
          "indexed": true,
          "internalType": "bytes32",
          "name": "requestId",
          "type": "bytes32"
        },
        {
          "indexed": false,
          "internalType": "string",
          "name": "reason",
          "type": "string"
        }
      ],
      "name": "UserCallbackError",
      "type": "event"
    },
    {
      "anonymous": false,
      "inputs": [
        {
          "indexed": true,
          "internalType": "bytes32",
          "name": "requestId",
          "type": "bytes32"
        },
        {
          "indexed": false,
          "internalType": "bytes",
          "name": "lowLevelData",
          "type": "bytes"
        }
      ],
      "name": "UserCallbackRawError",
      "type": "event"
    },
    {
      "inputs": [],
      "name": "acceptOwnership",
      "outputs": [],
      "stateMutability": "nonpayable",
      "type": "function"
    },
    {
      "inputs": [],
      "name": "activateAuthorizedReceiver",
      "outputs": [],
      "stateMutability": "nonpayable",
      "type": "function"
    },
    {
      "inputs": [
        {
          "internalType": "address[]",
          "name": "senders",
          "type": "address[]"
        }
      ],
      "name": "addAuthorizedSenders",
      "outputs": [],
      "stateMutability": "nonpayable",
      "type": "function"
    },
    {
      "inputs": [],
      "name": "authorizedReceiverActive",
      "outputs": [
        {
          "internalType": "bool",
          "name": "",
          "type": "bool"
        }
      ],
      "stateMutability": "view",
      "type": "function"
    },
    {
      "inputs": [],
      "name": "deactivateAuthorizedReceiver",
      "outputs": [],
      "stateMutability": "nonpayable",
      "type": "function"
    },
    {
      "inputs": [
        {
          "internalType": "address",
          "name": "node",
          "type": "address"
        }
      ],
      "name": "deleteNodePublicKey",
      "outputs": [],
      "stateMutability": "nonpayable",
      "type": "function"
    },
    {
      "inputs": [
        {
          "internalType": "uint64",
          "name": "subscriptionId",
          "type": "uint64"
        },
        {
          "internalType": "bytes",
          "name": "data",
          "type": "bytes"
        },
        {
          "internalType": "uint32",
          "name": "gasLimit",
          "type": "uint32"
        },
        {
          "internalType": "uint256",
          "name": "gasPrice",
          "type": "uint256"
        }
      ],
      "name": "estimateCost",
      "outputs": [
        {
          "internalType": "uint96",
          "name": "",
          "type": "uint96"
        }
      ],
      "stateMutability": "view",
      "type": "function"
    },
    {
      "inputs": [],
      "name": "getAllNodePublicKeys",
      "outputs": [
        {
          "internalType": "address[]",
          "name": "",
          "type": "address[]"
        },
        {
          "internalType": "bytes[]",
          "name": "",
          "type": "bytes[]"
        }
      ],
      "stateMutability": "view",
      "type": "function"
    },
    {
      "inputs": [],
      "name": "getAuthorizedSenders",
      "outputs": [
        {
          "internalType": "address[]",
          "name": "",
          "type": "address[]"
        }
      ],
      "stateMutability": "view",
      "type": "function"
    },
    {
      "inputs": [],
      "name": "getDONPublicKey",
      "outputs": [
        {
          "internalType": "bytes",
          "name": "",
          "type": "bytes"
        }
      ],
      "stateMutability": "view",
      "type": "function"
    },
    {
      "inputs": [],
      "name": "getRegistry",
      "outputs": [
        {
          "internalType": "address",
          "name": "",
          "type": "address"
        }
      ],
      "stateMutability": "view",
      "type": "function"
    },
    {
      "inputs": [
        {
          "internalType": "bytes",
          "name": "",
          "type": "bytes"
        },
        {
          "components": [
            {
              "internalType": "uint64",
              "name": "subscriptionId",
              "type": "uint64"
            },
            {
              "internalType": "address",
              "name": "client",
              "type": "address"
            },
            {
              "internalType": "uint32",
              "name": "gasLimit",
              "type": "uint32"
            },
            {
              "internalType": "uint256",
              "name": "gasPrice",
              "type": "uint256"
            }
          ],
          "internalType": "struct FunctionsBillingRegistryInterface.RequestBilling",
          "name": "",
          "type": "tuple"
        }
      ],
      "name": "getRequiredFee",
      "outputs": [
        {
          "internalType": "uint96",
          "name": "",
          "type": "uint96"
        }
      ],
      "stateMutability": "pure",
      "type": "function"
    },
    {
      "inputs": [
        {
          "internalType": "address",
          "name": "sender",
          "type": "address"
        }
      ],
      "name": "isAuthorizedSender",
      "outputs": [
        {
          "internalType": "bool",
          "name": "",
          "type": "bool"
        }
      ],
      "stateMutability": "view",
      "type": "function"
    },
    {
      "inputs": [],
      "name": "latestConfigDetails",
      "outputs": [
        {
          "internalType": "uint32",
          "name": "configCount",
          "type": "uint32"
        },
        {
          "internalType": "uint32",
          "name": "blockNumber",
          "type": "uint32"
        },
        {
          "internalType": "bytes32",
          "name": "configDigest",
          "type": "bytes32"
        }
      ],
      "stateMutability": "view",
      "type": "function"
    },
    {
      "inputs": [],
      "name": "latestConfigDigestAndEpoch",
      "outputs": [
        {
          "internalType": "bool",
          "name": "scanLogs",
          "type": "bool"
        },
        {
          "internalType": "bytes32",
          "name": "configDigest",
          "type": "bytes32"
        },
        {
          "internalType": "uint32",
          "name": "epoch",
          "type": "uint32"
        }
      ],
      "stateMutability": "view",
      "type": "function"
    },
    {
      "inputs": [],
      "name": "owner",
      "outputs": [
        {
          "internalType": "address",
          "name": "",
          "type": "address"
        }
      ],
      "stateMutability": "view",
      "type": "function"
    },
    {
      "inputs": [
        {
          "internalType": "address[]",
          "name": "senders",
          "type": "address[]"
        }
      ],
      "name": "removeAuthorizedSenders",
      "outputs": [],
      "stateMutability": "nonpayable",
      "type": "function"
    },
    {
      "inputs": [
        {
          "internalType": "uint64",
          "name": "subscriptionId",
          "type": "uint64"
        },
        {
          "internalType": "bytes",
          "name": "data",
          "type": "bytes"
        },
        {
          "internalType": "uint32",
          "name": "gasLimit",
          "type": "uint32"
        }
      ],
      "name": "sendRequest",
      "outputs": [
        {
          "internalType": "bytes32",
          "name": "",
          "type": "bytes32"
        }
      ],
      "stateMutability": "nonpayable",
      "type": "function"
    },
    {
      "inputs": [
        {
          "internalType": "address[]",
          "name": "_signers",
          "type": "address[]"
        },
        {
          "internalType": "address[]",
          "name": "_transmitters",
          "type": "address[]"
        },
        {
          "internalType": "uint8",
          "name": "_f",
          "type": "uint8"
        },
        {
          "internalType": "bytes",
          "name": "_onchainConfig",
          "type": "bytes"
        },
        {
          "internalType": "uint64",
          "name": "_offchainConfigVersion",
          "type": "uint64"
        },
        {
          "internalType": "bytes",
          "name": "_offchainConfig",
          "type": "bytes"
        }
      ],
      "name": "setConfig",
      "outputs": [],
      "stateMutability": "nonpayable",
      "type": "function"
    },
    {
      "inputs": [
        {
          "internalType": "bytes",
          "name": "donPublicKey",
          "type": "bytes"
        }
      ],
      "name": "setDONPublicKey",
      "outputs": [],
      "stateMutability": "nonpayable",
      "type": "function"
    },
    {
      "inputs": [
        {
          "internalType": "address",
          "name": "node",
          "type": "address"
        },
        {
          "internalType": "bytes",
          "name": "publicKey",
          "type": "bytes"
        }
      ],
      "name": "setNodePublicKey",
      "outputs": [],
      "stateMutability": "nonpayable",
      "type": "function"
    },
    {
      "inputs": [
        {
          "internalType": "address",
          "name": "registryAddress",
          "type": "address"
        }
      ],
      "name": "setRegistry",
      "outputs": [],
      "stateMutability": "nonpayable",
      "type": "function"
    },
    {
      "inputs": [
        {
          "internalType": "address",
          "name": "to",
          "type": "address"
        }
      ],
      "name": "transferOwnership",
      "outputs": [],
      "stateMutability": "nonpayable",
      "type": "function"
    },
    {
      "inputs": [
        {
          "internalType": "bytes32[3]",
          "name": "reportContext",
          "type": "bytes32[3]"
        },
        {
          "internalType": "bytes",
          "name": "report",
          "type": "bytes"
        },
        {
          "internalType": "bytes32[]",
          "name": "rs",
          "type": "bytes32[]"
        },
        {
          "internalType": "bytes32[]",
          "name": "ss",
          "type": "bytes32[]"
        },
        {
          "internalType": "bytes32",
          "name": "rawVs",
          "type": "bytes32"
        }
      ],
      "name": "transmit",
      "outputs": [],
      "stateMutability": "nonpayable",
      "type": "function"
    },
    {
      "inputs": [],
      "name": "transmitters",
      "outputs": [
        {
          "internalType": "address[]",
          "name": "",
          "type": "address[]"
        }
      ],
      "stateMutability": "view",
      "type": "function"
    },
    {
      "inputs": [],
      "name": "typeAndVersion",
      "outputs": [
        {
          "internalType": "string",
          "name": "",
          "type": "string"
        }
      ],
      "stateMutability": "pure",
      "type": "function"
    }
  ],
  "bytecode": "0x60a0604052346200002f576200001462000034565b604051613cff620002fc8239608051816131880152613cff90f35b600080fd5b62000040600162000073565b565b9060ff905b9181191691161790565b90565b9062000067620000516200006f92151590565b825462000042565b9055565b6200007e906200008c565b620000406001600862000054565b62000097336200009c565b608052565b62000040906200004090620000d3565b620000bc62000051620000519290565b6001600160a01b031690565b6200005190620000ac565b6200004090620000e46000620000c8565b90620001a1565b60208082526018908201527f43616e6e6f7420736574206f776e657220746f207a65726f0000000000000000604082015260600190565b156200012a57565b60405162461bcd60e51b8152806200014560048201620000eb565b0390fd5b906001600160a01b039062000047565b6200005190620000bc906001600160a01b031682565b620000519062000159565b62000051906200016f565b9062000199620000516200006f926200017a565b825462000149565b620001e790620001e1600091620001b883620000c8565b92620001db620001c885620000bc565b620001d384620000bc565b141562000122565b62000185565b620000bc565b620001f282620000bc565b03620001fb5750565b620000409062000277565b60208082526017908201527f43616e6e6f74207472616e7366657220746f2073656c66000000000000000000604082015260600190565b156200024557565b60405162461bcd60e51b815280620001456004820162000206565b6200005190620000bc565b62000051905462000260565b620002996200028633620000bc565b6200029183620000bc565b14156200023d565b620002a681600162000185565b620002b260006200026b565b90620002ea620002e37fed8889f560326eb138920d842192f0eb3dd22b4f139c87a2c57538e05bae1278936200017a565b916200017a565b91620002f560405190565b600090a356fe60a0604052600436101561001257600080fd5b60003560e01c806303e1bf23146101b2578063110254c8146101ad578063181f5a77146101a85780632408afaa146101a357806326ceabac1461019e57806328242b04146101995780634b4fa0c1146101945780634dcef4041461018f578063533989871461018a5780635ab1bd531461018557806379ba5097146101805780637f15e1661461017b5780638075603114610176578063814118341461017157806381ff70481461016c5780638da5cb5b1461016757806391bb64eb14610162578063a91ee0dc1461015d578063afcb95d714610158578063b1dc65a414610153578063d227d2451461014e578063d328a91e14610149578063e3d0e71214610144578063f1e14a211461013f578063f2fde38b1461013a5763fa00763a036101e657610c18565b610c00565b610be4565b610b31565b61091e565b6108f3565b610862565b61078d565b61074a565b610732565b610717565b6106ed565b6106ad565b610694565b610646565b610609565b6105e1565b6105a3565b6104ef565b6104c2565b610493565b6103d4565b61037a565b6102c8565b610241565b610214565b909182601f830112156101e6578135916001600160401b0383116101e65760200192602083028401116101e657565b600080fd5b906020828203126101e65781356001600160401b0381116101e65761021092016101b7565b9091565b346101e65761022d6102273660046101eb565b906113e1565b604051005b0390f35b60009103126101e657565b346101e657610251366004610236565b61022d610f7c565b60005b83811061026c5750506000910152565b818101518382015260200161025c565b61029d6102a66020936102b093610291815190565b80835293849260200190565b95869101610259565b601f01601f191690565b0190565b60208082526102c59291019061027c565b90565b346101e6576102d8366004610236565b6102326102e36114de565b6040515b918291826102b4565b6001600160a01b031690565b610305906102f0565b9052565b906102b0816020936102fc565b9061033661032f610325845190565b8084529260200190565b9260200190565b9060005b8181106103475750505090565b90919261036161035a6001928651610309565b9460200190565b92910161033a565b60208082526102c592910190610316565b346101e65761038a366004610236565b61023261039561146f565b60405191829182610369565b6103aa816102f0565b036101e657565b905035906103be826103a1565b565b906020828203126101e6576102c5916103b1565b346101e65761022d6103e73660046103c0565b611c17565b6001600160401b0381166103aa565b905035906103be826103ec565b909182601f830112156101e6578135916001600160401b0383116101e65760200192600183028401116101e657565b63ffffffff81166103aa565b905035906103be82610437565b906060828203126101e65761046581836103fb565b9260208301356001600160401b0381116101e657610488836102c5928601610408565b939094604001610443565b346101e6576102326104b26104a9366004610450565b9291909161223a565b6040519182918290815260200190565b346101e6576104d2366004610236565b6102326104dd610ec7565b60405191829182901515815260200190565b346101e65761022d6105023660046101eb565b90611227565b906102c59161027c565b9061052861051e835190565b8083529160200190565b908161053a6020830284019460200190565b926000915b83831061054e57505050505090565b9091929394602061057161056a83856001950387528951610508565b9760200190565b930193019193929061053f565b60408082526102c593919261059591840190610316565b916020818403910152610512565b346101e6576105b3366004610236565b6105bb611cb0565b906102326105c860405190565b9283928361057e565b6020810192916103be91906102fc565b346101e6576105f1366004610236565b6102326105fc6114e6565b6040515b918291826105d1565b346101e657610619366004610236565b61022d610d0c565b906020828203126101e65781356001600160401b0381116101e6576102109201610408565b346101e65761022d610659366004610621565b90611834565b9190916040818403126101e65761067683826103b1565b9260208201356001600160401b0381116101e6576102109201610408565b346101e65761022d6106a736600461065f565b91611856565b346101e6576106bd366004610236565b610232610395612cb2565b63ffffffff9182168152911660208201526060810192916103be9160400152565b0152565b346101e6576106fd366004610236565b610232610708612c93565b604051919391938493846106c8565b346101e657610727366004610236565b6102326105fc610d9e565b346101e657610742366004610236565b61022d610fe0565b346101e65761022d61075d3660046103c0565b611544565b90151581526060810193926103be929091604091610781906020830152565b019063ffffffff169052565b346101e65761079d366004610236565b6102326107a8612295565b60405191939193849384610762565b919060608301116101e657565b806103aa565b905035906103be826107c4565b9060e0828203126101e6576107ec81836107b7565b9260608301356001600160401b0381116101e6578261080c918501610408565b909390929060808101356001600160401b0381116101e657826108309183016101b7565b909390929060a08301356001600160401b0381116101e657610857836102c59286016101b7565b93909460c0016107ca565b346101e65761022d6108753660046107d7565b9695909594919493929361308f565b916080838303126101e65761089982846103fb565b926020810135916001600160401b0383116101e6576108bd846102c5948401610408565b9390946108cd8160408601610443565b936060016107ca565b6001600160601b03169052565b6020810192916103be91906108d6565b346101e657610232610912610909366004610884565b93929092611f06565b604051918291826108e3565b346101e65761092e366004610236565b6102326102e361163e565b634e487b7160e01b600052604160045260246000fd5b90601f01601f191681019081106001600160401b0382111761097057604052565b610939565b906103be61098260405190565b928361094f565b6001600160401b0381116109705760208091020190565b909291926109b56109b082610989565b610975565b93818552602080860192028301928184116101e657915b8383106109d95750505050565b602080916109e784866103b1565b8152019201916109cc565b9080601f830112156101e6578160206102c5933591016109a0565b60ff81166103aa565b905035906103be82610a0d565b6001600160401b03811161097057602090601f01601f19160190565b90826000939282370152565b90929192610a5b6109b082610a23565b938185526020850190828401116101e6576103be92610a3f565b9080601f830112156101e6578160206102c593359101610a4b565b91909160c0818403126101e65780356001600160401b0381116101e65783610ab99183016109f2565b9260208201356001600160401b0381116101e65781610ad99184016109f2565b92604090610ae983838601610a16565b936060810135600180851b0381116101e65784610b07918301610a75565b93610b1581608084016103fb565b9360018060a0850135921b0381116101e6576102c59201610a75565b346101e65761022d610b44366004610a90565b94939093929192612b95565b9190916080818403126101e657610ba9610b6a6080610975565b936000610b7782856103fb565b908601526020610b89828286016103b1565b908601526040610b9b82828601610443565b9086015260608093016107ca565b90830152565b9160a0838303126101e65782356001600160401b0381116101e657610bd9836102c5928601610408565b939094602001610b50565b346101e657610232610912610bfa366004610baf565b91611d78565b346101e65761022d610c133660046103c0565b610c48565b346101e6576102326104dd610c2e3660046103c0565b611479565b6103be90610c3f610e92565b6103be90610dee565b6103be90610c33565b6102c590546102f0565b15610c6257565b60405162461bcd60e51b815260206004820152601660248201527526bab9ba10313290383937b837b9b2b21037bbb732b960511b6044820152606490fd5b906001600160a01b03905b9181191691161790565b6102c5906102f0906001600160a01b031682565b6102c590610cb5565b6102c590610cc9565b90610ceb6102c5610cf292610cd2565b8254610ca0565b9055565b6102f06102c56102c59290565b6102c590610cf6565b33610d31610d22610d1d6001610c51565b6102f0565b610d2b836102f0565b14610c5b565b610d3b6000610c51565b90610d47816000610cdb565b610d5b610d546000610d03565b6001610cdb565b610d8e610d887f8be0079c531659141344cd1fd0a4f28419497f9722a3daafe3b4186f6b6457e093610cd2565b91610cd2565b91610d9860405190565b600090a3565b6102c56000610c51565b15610daf57565b60405162461bcd60e51b815260206004820152601760248201527621b0b73737ba103a3930b739b332b9103a379039b2b63360491b6044820152606490fd5b610e0a610dfa336102f0565b610e03836102f0565b1415610da8565b610e15816001610cdb565b610e1f6000610c51565b90610d8e610d887fed8889f560326eb138920d842192f0eb3dd22b4f139c87a2c57538e05bae127893610cd2565b15610e5457565b60405162461bcd60e51b815260206004820152601660248201527527b7363c9031b0b63630b1363290313c9037bbb732b960511b6044820152606490fd5b6103be33610eac610ea6610d1d6000610c51565b916102f0565b14610e4d565b6102c5905b60ff1690565b6102c59054610eb2565b6102c56008610ebd565b610ee0610edc61226c565b1590565b610eec576103be610f1e565b60405163ad77f06160e01b8152600490fd5b9060ff90610cab565b90610f176102c5610cf292151590565b8254610efe565b610f26610ec7565b610f6a57610f3660016008610f07565b33610f657fae51766a982895b0c444fc99fc1a560762b464d709e6c78376c85617f7eeb5ce9161060060405190565b0390a1565b60405163a741a04560e01b8152600490fd5b6103be610ed1565b610f8f610edc61226c565b610eec576103be610fa1610edc610ec7565b610f6a57610fb160006008610f07565b33610f657fea3828816a323b8d7ff49d755efd105e7719166d6c76fad97a28eee5eccc3d9a9161060060405190565b6103be610f84565b90610ff4610edc61226c565b610eec576103be91611172565b6102c56102c56102c59290565b634e487b7160e01b600052601160045260246000fd5b60001981146110335760010190565b61100e565b634e487b7160e01b600052603260045260246000fd5b919081101561105e576020020190565b611038565b356102c5816103a1565b805482101561105e57611087600191600052602060002090565b91020190600090565b916001600160a01b0360089290920291821b911b610cab565b91906110ba6102c5610cf293610cd2565b908354611090565b80549190600160401b83101561097057826110e59160016103be9501815561106d565b906110a9565b506102c59060208101906103b1565b81835260209092019161110c565b9290565b906000825b82821061111f575050505090565b9091929361114261113b60019261113688866110eb565b610309565b9560200190565b93920190611111565b93929061116a6020916103be94604088019188830360008a01526110fa565b9401906102fc565b8190600061117f81611001565b84146112155761118e90611001565b835b8110156111f0576111cb611190916111c26111a9600990565b6111bc6111b784898961104e565b611063565b90613a7e565b6111d257611024565b905061118e565b6111eb600b6111e56111b784898961104e565b906110c2565b611024565b50604051600080516020613caa8339815191529350610f659033905b9384938461114b565b6040516375158c3b60e01b8152600490fd5b906103be91610fe8565b9061123d610edc61226c565b610eec576103be916112b9565b6102c5916008021c6102f0565b906102c5915461124a565b9190820391821161103357565b634e487b7160e01b600052603160045260246000fd5b6103be916000916110a9565b805480156112b45760001901906112b16112ab838361106d565b90611285565b55565b61126f565b90919082916000906112ca82611001565b8414611215576112d982611001565b845b8110156113bd576112fb60096112f56111b7848a8961104e565b90613b6f565b611313575b61130c6112db91611024565b90506112d9565b9361131d83611001565b600b61132a6102c5825490565b8210156113b55790818861135e610ea6610d1d6111b78c6113576113518961136a9b61106d565b90611257565b958d61104e565b1461136f575b50611024565b61131d565b6113aa816102c56113a061135161139a61138a6113af975490565b6113946001611001565b90611262565b8461106d565b6110e58c8461106d565b611291565b38611364565b505093611300565b5093919250503391610f65600080516020613caa8339815191529361120c60405190565b906103be91611231565b906114066113fa610325845490565b92600052602060002090565b9060005b8181106114175750505090565b90919261143361142c60019261113687610c51565b9460010190565b92910161140a565b906102c5916113eb565b906103be61145f9261145660405190565b9384809261143b565b038361094f565b6102c590611445565b6102c5600b611466565b611484610edc610ec7565b611493576102c5906009613c89565b50600190565b906114a66109b083610a23565b918252565b6114b56015611499565b74046756e6374696f6e734f7261636c6520302e302e3605c1b602082015290565b6102c56114ab565b6102c56114d6565b6102c56114f3600d610c51565b610cd2565b6103be90611504610e92565b611511610d1d6000610d03565b61151a826102f0565b146115325761152b6103be91610cd2565b600d610cdb565b604051632717f8c960e21b8152600490fd5b6103be906114f8565b634e487b7160e01b600052602260045260246000fd5b9060016002830492168015611583575b602083101461157e57565b61154d565b91607f1691611573565b805460009392916115aa6115a083611563565b8085529360200190565b91600181169081156115fc57506001146115c357505050565b6115d69192939450600052602060002090565b916000925b8184106115e85750500190565b8054848401526020909301926001016115db565b92949550505060ff1916825215156020020190565b906102c59161158d565b906103be61145f9261162c60405190565b93848092611611565b6102c59061161b565b6102c5600c611635565b906103be91611655610e92565b6117ff565b634e487b7160e01b600052600060045260246000fd5b9160001960089290920291821b911b610cab565b91906116956102c5610cf293611001565b908354611670565b6103be91600091611684565b8181106116b4575050565b806116c2600060019361169d565b016116a9565b9190601f81116116d757505050565b6116e96103be93600052602060002090565b906020601f84018190048301931061170c575b6020601f909101045b01906116a9565b90915081906116fc565b9060001960089091021c191690565b8161172f91611716565b906002021790565b91906001600160401b0382116109705761175b826117558554611563565b856116c8565b600090601f831160011461178957610cf292916000918361177e575b5050611725565b013590503880611777565b601f1983169161179e85600052602060002090565b92815b8181106117dc575091600293918560019694106117c2575b50505002019055565b6117d2910135601f841690611716565b90553880806117b9565b919360206001819287870135815501950192016117a1565b906103be9291611737565b908061181261180e6000611001565b9190565b14611822576103be91600c6117f4565b604051634f42be3d60e01b8152600490fd5b906103be91611648565b9061184890610cd2565b600052602052604060002090565b919061187d33611867610d1d610d9e565b611870826102f0565b149081156118a657501590565b6118945761188f6103be93600e61183e565b6117f4565b60405163ed6dd19b60e01b8152600490fd5b90506118b181611998565b90816118bc57501590565b90506118ca610ea6866102f0565b141590565b905051906103be826103a1565b909291926118ec6109b082610989565b93818552602080860192028301928184116101e657915b8383106119105750505050565b6020809161191e84866118cf565b815201920191611903565b9080601f830112156101e65781516102c5926020016118dc565b906020828203126101e65781516001600160401b0381116101e6576102c59201611929565b6040513d6000823e3d90fd5b9061197d825190565b81101561105e576020809102010190565b6102c590516102f0565b6119c39060005b5060006119ab30610cd2565b6381411834906119ba60405190565b94859260e01b90565b825260049082905afa918215611a5d57600092611a3a575b506000916119e883611001565b6119f36102c5835190565b811015611a3457611a0c611a078284611974565b61198e565b611a18610ea6856102f0565b14611a2b57611a2690611024565b6119e8565b50505050600190565b50505090565b611a5691923d8091833e611a4e818361094f565b810190611943565b90386119db565b611968565b90611a7590600019906020036008021c90565b8154169055565b90600091611a9a611a9282600052602060002090565b928354611725565b905555565b9192906020821015611af757601f8411600114611ac157610cf2929350611725565b5090611af26103be936001611ae9611ade85600052602060002090565b92601f602091010490565b820191016116a9565b611a7c565b50611b308293611b0e600194600052602060002090565b6117056020601f860104820192601f861680611b38575b50601f602091010490565b600202179055565b611b4490888603611a62565b38611b25565b929091600160401b82116109705760201115611b91576020811015611b7257610cf291611725565b60019160ff1916611b8884600052602060002090565b55600202019055565b60019150600202019055565b908154611ba981611563565b90818311611bd2575b818310611bc0575b50505050565b611bc993611a9f565b38808080611bba565b611bde83838387611b4a565b611bb2565b8181029291811591840414171561103357565b60006103be91611b9d565b90600003611c12576103be90611bf6565b61165a565b611c3c33611c26610d1d610d9e565b611c2f826102f0565b14908115611c5557501590565b611894576000611c506103be92600e61183e565b611c01565b90506118ca610ea6846102f0565b906114a66109b083610989565b60005b828110611c7f57505050565b606082820152602001611c73565b906103be611ca3611c9d84611c63565b93610989565b601f190160208401611c70565b611cbb90606061199f565b825260049082905afa918215611a5d57600092611d44575b50611ce4611cdf835190565b611c8d565b91611cef6000611001565b611cfa6102c5835190565b811015611d3f57611d3a90611d25611d20600e611d1a611a078588611974565b9061183e565b611635565b611d2f8287611974565b526113648186611974565b611cef565b509190565b611d5891923d8091833e611a4e818361094f565b9038611cd3565b611d6c6102c56102c59290565b6001600160601b031690565b505050611d83600090565b506102c56000611d5f565b9493929190611da06114f3600d610c51565b611db0610ea6610d1d6000610d03565b14611532576102c595611e41565b6102c56080610975565b90610305906102f0565b6001600160601b0381166103aa565b905051906103be82611dd2565b906020828203126101e6576102c591611de1565b611e3a6103be94611e30606094989795611e29608086019a600087019063ffffffff169052565b6020850152565b60408301906108d6565b01906108d6565b5060209392611e8c92611e7033611e68611e59611dbe565b6001600160401b039096168652565b878501611dc8565b63ffffffff85166040840152611e87876060850152565b611d78565b611ebd611e9c6114f3600d610c51565b91611ec863a1a6d0419180611eb060405190565b9889978896879660e01b90565b865260048601611e02565b03915afa908115611a5d57600091611ede575090565b6102c5915060203d8111611eff575b611ef7818361094f565b810190611dee565b503d611eed565b6102c594939291906000611d8e565b93929190611f266114f3600d610c51565b611f36610ea6610d1d6000610d03565b14611532576102c594906102c594939291611f4f612248565b61207e565b905051906103be826107c4565b906020828203126101e6576102c591611f54565b91906102a681611f8c816102b09560209181520190565b8095610a3f565b6001600160401b03169052565b906060806103be93611fba60008201516000860190611f93565b611fcc602082015160208601906102fc565b60408181015163ffffffff16908501520151910152565b9392906120026020916103be9460a088019188830360008a0152611f75565b940190611fa0565b906020828203126101e6576102c5916118cf565b6020810192916103be9190611f93565b919361206761207192969461205d6102c5999761205360a088019a60008901906102fc565b60208701906102fc565b6040850190611f93565b60608301906102fc565b6080818503910152611f75565b509192919060008461209261180e83611001565b14612229576020612110946120aa6114f3600d610c51565b61210363a9d03c059433956120f33a6120ec6120c4611dbe565b6001600160401b038d1686820152976120df8b8b8b01611dc8565b63ffffffff166040890152565b6060870152565b604051998a958694859360e01b90565b83528c8a60048501611fe3565b03925af1938415611a5d576000946121f5575b506121539293943292602061213b6114f3600d610c51565b63b2a489ff9061214a60405190565b97889260e01b90565b825281806121648b6004830161201e565b03915afa948515611a5d576000956121bf575b50906121b9917fa1ec73989d79578cd6f67d4f593ac3e0a4d1020e5c0164db52108d7ff785406c956121a68990565b976121b060405190565b9687968761202e565b0390a290565b6121b9929195506121e69060203d81116121ee575b6121de818361094f565b81019061200a565b949091612177565b503d6121d4565b61215393945061221b9060203d8111612222575b612213818361094f565b810190611f61565b9392612123565b503d612209565b6040516203073f60e61b8152600490fd5b6102c5939291906000611f15565b612254610edc32611479565b61225a57565b604051630101292160e31b8152600490fd5b3361227b610ea6610d1d610d9e565b1490565b61228c6102c56102c59290565b63ffffffff1690565b60016000916122ac6122a684611001565b9361227f565b91929190565b6102c56102c56102c59260ff1690565b6102c5601f611001565b156122d357565b60405162461bcd60e51b815260206004820152601060248201526f746f6f206d616e79207369676e65727360801b6044820152606490fd5b1561231257565b60405162461bcd60e51b815260206004820152601260248201527166206d75737420626520706f73697469766560701b6044820152606490fd5b1561235357565b60405162461bcd60e51b8152602060048201526024808201527f6f7261636c6520616464726573736573206f7574206f662072656769737472616044820152633a34b7b760e11b6064820152608490fd5b156123ab57565b60405162461bcd60e51b81526020600482015260186024820152770ccc2ead8e8f25adee4c2c6d8ca40cc40e8dede40d0d2ced60431b6044820152606490fd5b906103be95949392916124666123ff825190565b61246061180e6102c5612410875190565b61245161244a61241f8b6122b2565b9261243661242e6102c56122c2565b8911156122cc565b6102c56124436000611001565b851161230b565b861461234c565b61245b6003611001565b611be3565b116123a4565b906103be9594939291612477610e92565b6127bf565b6102c560c0610975565b90600003611c125760009055565b6102c59060081c610eb7565b6102c59054612494565b634e487b7160e01b600052602160045260246000fd5b600311156124ca57565b6124aa565b906103be826124c0565b156124e057565b60405162461bcd60e51b81526020600482015260176024820152767265706561746564207369676e6572206164647265737360481b6044820152606490fd5b610eb76102c56102c59290565b6102c56040610975565b90610305906124cf565b610eb76102c56102c59260ff1690565b90610f176102c5610cf292612540565b6102c590516124cf565b9061ff009060081b610cab565b6102c5906124cf565b906125906102c5610cf292612577565b825461256a565b6103be916125bc906020906125b66125b0825160ff1690565b85612550565b01612560565b90612580565b906103be91612597565b156125d357565b60405162461bcd60e51b815260206004820152601c60248201527b7265706561746564207472616e736d6974746572206164647265737360201b6044820152606490fd5b6102c59060201c61228c565b6102c59054612617565b9063ffffffff60201b9060201b610cab565b61228c6102c56102c59263ffffffff1690565b906126626102c5610cf29261263f565b825461262d565b6102c59061228c565b6102c59054612669565b6126919063ffffffff165b9163ffffffff1690565b019063ffffffff821161103357565b9063ffffffff90610cab565b906126bc6102c5610cf29261263f565b82546126a0565b6126d66102c56102c59263ffffffff1690565b6001600160401b031690565b9060001990610cab565b906126fa6102c5610cf29290565b82546126e2565b906125906102c5610cf292612540565b6102c59081565b6102c59054612711565b610305906126c3565b95926127b19561277f612799936127a69761277261278d956102c59f9d986127689060208f6106e9610120820198600083019063ffffffff169052565b60408d0190612722565b8a820360608c0152610316565b9088820360808a0152610316565b60ff90931660a0870152565b84820360c086015261027c565b9360e0830190611f93565b61010081840391015261027c565b60009695936127f9612810946127ef61281798956127e8612800966127e261247c565b9d8e0152565b60208c0152565b60ff1660408a0152565b6060880152565b6001600160401b03166080860152565b60a0840152565b600680549060009161282b61180e84611001565b1461288c57612887916102c56113aa836102c561284c61138a6113aa975490565b9461287d61285d611351888661106d565b61286c6113516007998a61106d565b906128828461287d6005938461183e565b612486565b61183e565b612817565b50509060009161289b83611001565b8383016128aa6102c582515190565b821015612a355760059085838251906128c291611974565b6128cb9061198e565b6128d5908461183e565b016128df906124a0565b6128e8876124cf565b906128f2906124cf565b146128fc906124d9565b6129058361251f565b600161290f61252c565b60ff831689820152906129259060208301612536565b8483519061293291611974565b61293b9061198e565b612945908561183e565b9061294f916125c2565b6020860192878585519061296291611974565b61296b9061198e565b612975908361183e565b0161297f906124a0565b612988896124cf565b90612992906124cf565b1461299c906125cc565b60026129a661252c565b60ff909316898401526129bc9060208401612536565b848451906129c991611974565b6129d29061198e565b6129db9161183e565b906129e5916125c2565b8260069151906129f491611974565b6129fd9061198e565b612a06916110c2565b816007915190612a1591611974565b612a1e9061198e565b612a27916110c2565b612a3090611024565b61289b565b505091906040810190612a49825160ff1690565b60029290612a58906003612550565b612a626004612623565b90612a6c4361227f565b612a77906004612652565b6001612a828161227f565b612a8c6004612672565b90612a969161267c565b612aa19060046126ac565b612aaa30610cd2565b95612ab56004612672565b908086019687519360208801998a5194612ad0885160ff1690565b99606081019a8b51906080830198612aef8a516001600160401b031690565b9360a0019a8b5195612b00906126c3565b612b0a9746612c0b565b92820192612b1890846126ec565b885151612b249061251f565b910190612b3091612701565b612b3990612718565b94612b446004612672565b96519751935160ff16905191516001600160401b03169251937f1591690b8638f5fb2dbec82ac741805ac5da8b45dc5263f4875b0496fdce4e0598612b8860405190565b988998610f65988a61272b565b906103be95949392916123eb565b95926127b19561277f612799936127a69761277261278d956102c59f9d98612bdf9060208f612bd86101208201986000830152565b01906102fc565b60408d0190611f93565b6102c590611001565b6102c590612c0661180e6102c59460ff1690565b901b90565b919497600197612c60976102c59a612c4897612c3c9597612c2a600090565b506040519a8b9960208b01998a612ba3565b9081038252038261094f565b612c5a612c53825190565b9160200190565b20612be9565b612c8c60f0612c86612c7d600019612c778461251f565b90612bf2565b9485921b611001565b16921990565b1617611001565b612c9d6004612672565b612ca76004612623565b916122ac6002612718565b6102c56007611466565b90600381101561105e576020020190565b356102c5816107c4565b612cea6102c56102c59263ffffffff1690565b64ffffffffff1690565b6102c5913691610a4b565b61228c90612d136126876102c59460ff1690565b901c90565b9081526040810192916103be91602090610781565b6102c56060610975565b906103be612d776001612d48612d2d565b94612d59612d5582612718565b8752565b612d71612d67838301610ebd565b60ff166020880152565b016124a0565b60ff166040840152565b6102c590612d37565b15612d9157565b60405162461bcd60e51b81526020600482015260156024820152740c6dedcccd2ce88d2cecae6e840dad2e6dac2e8c6d605b1b6044820152606490fd5b612ddd9060ff165b9160ff1690565b019060ff821161103357565b634e487b7160e01b600052601260045260246000fd5b612e0b9060ff16612dd6565b908115612e16570490565b612de9565b15612e2257565b60405162461bcd60e51b815260206004820152601a60248201527977726f6e67206e756d626572206f66207369676e61747572657360301b6044820152606490fd5b15612e6b57565b60405162461bcd60e51b815260206004820152601e60248201527f7369676e617475726573206f7574206f6620726567697374726174696f6e00006044820152606490fd5b906103be612ed96000612ec161252c565b94612d71612ed0838301610ebd565b60ff1687840152565b60208401612536565b6102c590612eb0565b15612ef257565b60405162461bcd60e51b81526020600482015260186024820152773ab730baba3437b934bd32b2103a3930b739b6b4ba3a32b960411b6044820152606490fd5b6001600160401b0381116109705760200290565b6109b06102c591612f32565b369037565b906103be612f6d612f6784612f46565b93612f32565b83612f52565b6102c5601f612f57565b9037565b6103be91606091612f7d565b018092612f81565b612f9d61252c565b906000825260006020830152565b6102c5612f95565b6102c59060f81c612540565b6106e96103be94612fe8606094989795612fde608086019a6000870152565b60ff166020850152565b6040830152565b15612ff657565b60405162461bcd60e51b815260206004820152601e60248201527f61646472657373206e6f7420617574686f72697a656420746f207369676e00006044820152606490fd5b90601f81101561105e576020020190565b1561305357565b60405162461bcd60e51b81526020600482015260146024820152736e6f6e2d756e69717565207369676e617475726560601b6044820152606490fd5b979196939095945a9289896130fd610edc8b6130f66130e66130e16130dc6130c66130cb6130c66130c06000611001565b8c612cbc565b612ccd565b996130d66001611001565b90612cbc565b612be9565b61227f565b946130f086612cd7565b92612cf4565b9085613463565b61345157888486898e8e61311e61318697613118600861251f565b90612cff565b6131567fb04e63db38c49950639fa09d29872f21f5d49d614f3a969d8adf3d4b52e41a629161314c60405190565b9182918c83612d18565b0390a1600260805261318161316c608051612d81565b9861317b61180e6111088c5190565b14612d8a565b6139e6565b7f000000000000000000000000000000000000000000000000000000000000000015613437576131f66131ec6131db836131d560206131cc60406131fb98015160ff1690565b92015160ff1690565b90612dce565b6131e660805161251f565b90612dff565b6131d5600161251f565b6122b2565b985b61320f613208859b90565b8b14612e1b565b61321a888b14612e64565b61326161323061322b33600561183e565b612ee2565b61323c60208201612560565b61325061324a6080516124cf565b916124cf565b14908161340f575b509b9a9b612eeb565b613269612f73565b98612c3c6132af61327a600061251f565b9c6132858585612cf4565b613290612c53825190565b20604051938492602084019283602081612f8d6102b093606096959052565b6132ba612c53825190565b20956132c4612fab565b508c6132d361180e6000611001565b8110156133f657602081101561105e57602060008a8a6133418f8f6130c6888f938f946130c6836133289261332261331861331361332e9a851a60f81b90565b612fb3565b6131d5601b61251f565b9b61104e565b9461104e565b9061333860405190565b94859485612fbf565b838052039060015afa15611a5d576133ef6133e98f9e6131ec8f6133e461336a60005160001b90565b916133de6131f6600061338161322b87600561183e565b6133a361339060208301612560565b61339d61324a60016124cf565b14612fef565b016133d76133c1611a076133bb6131f6855160ff1690565b8761303b565b6133d1610ea6610d1d6000610d03565b1461304c565b5160ff1690565b9061303b565b611dc8565b91611024565b909c6132d3565b5095509750979550985050506103be9591503390613954565b516134279150610d1d906113519060ff16600761106d565b613430336102f0565b1438613258565b6131f66131ec602061344b93015160ff1690565b986131fd565b60405163017c6c6560e31b8152600490fd5b505050611493600090565b94939291906134806114f3600d610c51565b613490610ea6610d1d6000610d03565b14611532576103be956136de565b909291926134ae6109b082610989565b93818552602080860192028301928184116101e657915b8383106134d25750505050565b602080916134e084866107ca565b8152019201916134c5565b9080601f830112156101e6578160206102c59335910161349e565b9291906135156109b082610989565b93818552602080860192028101918383116101e65781905b83821061353b575050505050565b81356001600160401b0381116101e65760209161355b8784938701610a75565b81520191019061352d565b9080601f830112156101e6578160206102c593359101613506565b916060838303126101e65782356001600160401b0381116101e657826135a89185016134eb565b9260208101356001600160401b0381116101e657836135c8918301613566565b9260408201356001600160401b0381116101e6576102c59201613566565b90612e0b565b8015156103aa565b905051906103be826135ec565b906020828203126101e6576102c5916135f4565b61362161180e601f9390565b6000915b8383106136325750505050565b61364261032f6001928451610309565b92019190613625565b939897956136ac6104a0966136a26136976106e9976136898a6103be9e9961367c6136b79a60006104c08501940152565b8c820360208e015261027c565b908a820360408c015261027c565b9c60608901906102fc565b6080870190613615565b60ff16610460850152565b610480830152565b3d156136d9576136ce3d611499565b903d6000602084013e565b606090565b91929594936136f991946136f0606090565b50810190613581565b9491969093613706885190565b9360009461371661180e87611001565b14801561393c575b8015613924575b6134515761373761373f915a90611262565b8951906135e6565b9161374985611001565b6137546102c58b5190565b811015613918576137e590886020898d6137c28b6137756114f3600d610c51565b926137cd8d8d8d8d6137a88d6137a18161379b61379782630739e4f19c611974565b5190565b9d611974565b519d611974565b51935a946137b560405190565b9d8e9c8d9b8c9a60e01b90565b8a5260048a0161364b565b03925af1600091816138e8575b5061383d57506137ea565b613749565b8a613800613797836137fa6136bf565b93611974565b61383561382b7fe0b838ffe6ee22a0d3acf19a85db6a41b34a1ab739e2d6c759a2e42d95bdccb29290565b926102e760405190565b0390a2611024565b156138825761384f613797828d611974565b7f9e9bc7616d42c2835d05ae617e508454e63b30b934be8aa932ebc125e0e58a6461387960405190565b600090a2611024565b61388f613797828d611974565b7fb2931868c372fe17a25643458add467d60ec5c51125a99b7309f41f5bcd2da6c6138b960405190565b6020808252601190820152706572726f7220696e2063616c6c6261636b60781b60408201528060608101613835565b61390a91925060203d8111613911575b613902818361094f565b810190613601565b90386137da565b503d6138f8565b50505050505050509050565b50885161393561180e6102c58a5190565b1415613725565b50885161394d61180e6102c5895190565b141561371e565b906103be959493929161346e565b61396f6102c56102c59290565b61ffff1690565b6102c5610144613962565b6102c56102c56102c59261ffff1690565b9190820180921161103357565b156139a657565b60405162461bcd60e51b81526020600482015260186024820152770c6c2d8d8c8c2e8c240d8cadccee8d040dad2e6dac2e8c6d60431b6044820152606490fd5b613a426103be96613a3d613a27613a489897613a22613a3796613a1c613a1c9a99613a17613a12613976565b613981565b925090565b90613992565b965090565b94613a1c602096613a3788611001565b90611be3565b955090565b91611001565b613a6661180e611108613a60600094613a1c86611001565b93503690565b1461399f565b6102c59081906001600160a01b031681565b90613aab61180e613aa6613aa160006102c596613a99600090565b500194610cc9565b613a6c565b611001565b613afe565b91906116956102c5610cf29390565b80549190600160401b8310156109705782613ae29160016103be9501815561106d565b90613ab0565b90611848565b906126fa6102c5610cf292611001565b613b0b610edc8383613b44565b15613b3d57613b3891613b33906001613b2c84613b288482613abf565b5490565b9301613ae8565b613aee565b600190565b5050600090565b613b62916001613b5d92613b56600090565b5001613ae8565b612718565b6118ca61180e6000611001565b90613b8a61180e613aa6613aa160006102c596613a99600090565b613bd1565b6102c5916008021c81565b906102c59154613b8f565b6103be91600091613ab0565b805480156112b45760001901906112b1613bcb838361106d565b90613ba5565b90613be2613b5d8260018501613ae8565b600092613bee84611001565b8214611a34576102c592613c409492613c4b92613c456001978893613c1b613c1586611001565b82611262565b88850191613c33613c2a845490565b61139489611001565b828103613c505750505090565b613bb1565b01613ae8565b61169d565b613ae2613c79613c8194613c70613c6a613b33958961106d565b90613b9a565b9283918861106d565b888801613ae8565b388080611a34565b90613ca461180e613aa6613aa160006102c596613a99600090565b613b4456fef263cfb3e4298332e776194610cf9fdc09ccb3ada8b9aa39764d882e11fbf0a0a2646970667358221220402db5f5603257213daf21263743aa87659cf3b1048f095172a6ea9e105c3b3664736f6c63430008120033",
  "linkReferences": {},
  "deployedLinkReferences": {}
}