{
  "_format": "hh-sol-artifact-1",
  "contractName": "CasimirManager",
  "sourceName": "src/v1/CasimirManager.sol",
  "abi": [
    {
      "inputs": [
        {
          "internalType": "contract IFunctionsBillingRegistry",
          "name": "functionsBillingRegistry_",
          "type": "address"
        },
        {
          "internalType": "contract IKeeperRegistrar",
          "name": "keeperRegistrar_",
          "type": "address"
        },
        {
          "internalType": "contract IAutomationRegistry",
          "name": "keeperRegistry_",
          "type": "address"
        },
        {
          "internalType": "contract LinkTokenInterface",
          "name": "linkToken_",
          "type": "address"
        },
        {
          "internalType": "contract ISSVClusters",
          "name": "ssvNetwork_",
          "type": "address"
        },
        {
          "internalType": "contract IERC20Upgradeable",
          "name": "ssvToken_",
          "type": "address"
        },
        {
          "internalType": "contract IUniswapV3Factory",
          "name": "swapFactory_",
          "type": "address"
        },
        {
          "internalType": "contract ISwapRouter",
          "name": "swapRouter_",
          "type": "address"
        },
        {
          "internalType": "contract IWETH9",
          "name": "wethToken_",
          "type": "address"
        }
      ],
      "stateMutability": "nonpayable",
      "type": "constructor"
    },
    {
      "inputs": [],
      "name": "EmptyArray",
      "type": "error"
    },
    {
      "inputs": [],
      "name": "ForcedExitAlreadyReported",
      "type": "error"
    },
    {
      "inputs": [],
      "name": "IndexOutOfBounds",
      "type": "error"
    },
    {
      "inputs": [],
      "name": "InsufficientLiquidity",
      "type": "error"
    },
    {
      "inputs": [],
      "name": "InvalidAddress",
      "type": "error"
    },
    {
      "inputs": [],
      "name": "InvalidAmount",
      "type": "error"
    },
    {
      "inputs": [],
      "name": "NoReadyPools",
      "type": "error"
    },
    {
      "inputs": [],
      "name": "PoolAlreadyInitiated",
      "type": "error"
    },
    {
      "inputs": [],
      "name": "PoolAlreadyWithdrawn",
      "type": "error"
    },
    {
      "inputs": [],
      "name": "PoolMaxReshared",
      "type": "error"
    },
    {
      "inputs": [],
      "name": "PoolNotActive",
      "type": "error"
    },
    {
      "inputs": [],
      "name": "PoolNotExiting",
      "type": "error"
    },
    {
      "inputs": [],
      "name": "PoolNotPending",
      "type": "error"
    },
    {
      "inputs": [],
      "name": "TransferFailed",
      "type": "error"
    },
    {
      "inputs": [],
      "name": "Unauthorized",
      "type": "error"
    },
    {
      "anonymous": false,
      "inputs": [
        {
          "indexed": false,
          "internalType": "uint256",
          "name": "amount",
          "type": "uint256"
        }
      ],
      "name": "ClusterBalanceDeposited",
      "type": "event"
    },
    {
      "anonymous": false,
      "inputs": [
        {
          "indexed": true,
          "internalType": "uint32",
          "name": "poolId",
          "type": "uint32"
        }
      ],
      "name": "ExitCompleted",
      "type": "event"
    },
    {
      "anonymous": false,
      "inputs": [
        {
          "indexed": true,
          "internalType": "uint32",
          "name": "poolId",
          "type": "uint32"
        }
      ],
      "name": "ExitRequested",
      "type": "event"
    },
    {
      "anonymous": false,
      "inputs": [
        {
          "indexed": true,
          "internalType": "uint32",
          "name": "poolId",
          "type": "uint32"
        },
        {
          "indexed": false,
          "internalType": "uint256",
          "name": "amount",
          "type": "uint256"
        }
      ],
      "name": "ExitedBalanceDeposited",
      "type": "event"
    },
    {
      "anonymous": false,
      "inputs": [
        {
          "indexed": false,
          "internalType": "uint32[]",
          "name": "poolIds",
          "type": "uint32[]"
        }
      ],
      "name": "ForcedExitsReported",
      "type": "event"
    },
    {
      "anonymous": false,
      "inputs": [
        {
          "indexed": false,
          "internalType": "uint256",
          "name": "amount",
          "type": "uint256"
        }
      ],
      "name": "FunctionsBalanceDeposited",
      "type": "event"
    },
    {
      "anonymous": false,
      "inputs": [],
      "name": "FunctionsCancelled",
      "type": "event"
    },
    {
      "anonymous": false,
      "inputs": [
        {
          "indexed": false,
          "internalType": "uint8",
          "name": "version",
          "type": "uint8"
        }
      ],
      "name": "Initialized",
      "type": "event"
    },
    {
      "anonymous": false,
      "inputs": [
        {
          "indexed": true,
          "internalType": "uint32",
          "name": "poolId",
          "type": "uint32"
        }
      ],
      "name": "InitiationRequested",
      "type": "event"
    },
    {
      "anonymous": false,
      "inputs": [
        {
          "indexed": false,
          "internalType": "uint256",
          "name": "amount",
          "type": "uint256"
        }
      ],
      "name": "LINKBalanceWithdrawn",
      "type": "event"
    },
    {
      "anonymous": false,
      "inputs": [
        {
          "indexed": true,
          "internalType": "address",
          "name": "previousOwner",
          "type": "address"
        },
        {
          "indexed": true,
          "internalType": "address",
          "name": "newOwner",
          "type": "address"
        }
      ],
      "name": "OwnershipTransferred",
      "type": "event"
    },
    {
      "anonymous": false,
      "inputs": [
        {
          "indexed": true,
          "internalType": "uint32",
          "name": "poolId",
          "type": "uint32"
        }
      ],
      "name": "PoolActivated",
      "type": "event"
    },
    {
      "anonymous": false,
      "inputs": [
        {
          "indexed": true,
          "internalType": "uint32",
          "name": "poolId",
          "type": "uint32"
        }
      ],
      "name": "PoolInitiated",
      "type": "event"
    },
    {
      "anonymous": false,
      "inputs": [
        {
          "indexed": true,
          "internalType": "uint32",
          "name": "poolId",
          "type": "uint32"
        }
      ],
      "name": "PoolReshared",
      "type": "event"
    },
    {
      "anonymous": false,
      "inputs": [
        {
          "indexed": true,
          "internalType": "uint32",
          "name": "poolId",
          "type": "uint32"
        },
        {
          "indexed": false,
          "internalType": "uint256",
          "name": "amount",
          "type": "uint256"
        }
      ],
      "name": "RecoveredBalanceDeposited",
      "type": "event"
    },
    {
      "anonymous": false,
      "inputs": [
        {
          "indexed": false,
          "internalType": "uint256",
          "name": "amount",
          "type": "uint256"
        }
      ],
      "name": "ReservedFeesDeposited",
      "type": "event"
    },
    {
      "anonymous": false,
      "inputs": [
        {
          "indexed": false,
          "internalType": "uint256",
          "name": "amount",
          "type": "uint256"
        }
      ],
      "name": "ReservedFeesWithdrawn",
      "type": "event"
    },
    {
      "anonymous": false,
      "inputs": [
        {
          "indexed": false,
          "internalType": "uint256",
          "name": "amount",
          "type": "uint256"
        }
      ],
      "name": "RewardsDeposited",
      "type": "event"
    },
    {
      "anonymous": false,
      "inputs": [
        {
          "indexed": false,
          "internalType": "uint256",
          "name": "amount",
          "type": "uint256"
        }
      ],
      "name": "SSVBalanceWithdrawn",
      "type": "event"
    },
    {
      "anonymous": false,
      "inputs": [
        {
          "indexed": true,
          "internalType": "address",
          "name": "sender",
          "type": "address"
        },
        {
          "indexed": false,
          "internalType": "uint256",
          "name": "amount",
          "type": "uint256"
        }
      ],
      "name": "StakeDeposited",
      "type": "event"
    },
    {
      "anonymous": false,
      "inputs": [
        {
          "indexed": false,
          "internalType": "uint256",
          "name": "amount",
          "type": "uint256"
        }
      ],
      "name": "StakeRebalanced",
      "type": "event"
    },
    {
      "anonymous": false,
      "inputs": [
        {
          "indexed": false,
          "internalType": "uint256",
          "name": "amount",
          "type": "uint256"
        }
      ],
      "name": "TipsDeposited",
      "type": "event"
    },
    {
      "anonymous": false,
      "inputs": [
        {
          "indexed": false,
          "internalType": "uint256",
          "name": "amount",
          "type": "uint256"
        }
      ],
      "name": "UpkeepBalanceDeposited",
      "type": "event"
    },
    {
      "anonymous": false,
      "inputs": [],
      "name": "UpkeepCancelled",
      "type": "event"
    },
    {
      "anonymous": false,
      "inputs": [
        {
          "indexed": true,
          "internalType": "address",
          "name": "sender",
          "type": "address"
        },
        {
          "indexed": false,
          "internalType": "uint256",
          "name": "amount",
          "type": "uint256"
        }
      ],
      "name": "WithdrawalFulfilled",
      "type": "event"
    },
    {
      "anonymous": false,
      "inputs": [
        {
          "indexed": true,
          "internalType": "address",
          "name": "sender",
          "type": "address"
        },
        {
          "indexed": false,
          "internalType": "uint256",
          "name": "amount",
          "type": "uint256"
        }
      ],
      "name": "WithdrawalInitiated",
      "type": "event"
    },
    {
      "anonymous": false,
      "inputs": [
        {
          "indexed": true,
          "internalType": "address",
          "name": "sender",
          "type": "address"
        },
        {
          "indexed": false,
          "internalType": "uint256",
          "name": "amount",
          "type": "uint256"
        }
      ],
      "name": "WithdrawalRequested",
      "type": "event"
    },
    {
      "inputs": [
        {
          "internalType": "uint256",
          "name": "pendingPoolIndex",
          "type": "uint256"
        },
        {
          "components": [
            {
              "internalType": "uint32",
              "name": "validatorCount",
              "type": "uint32"
            },
            {
              "internalType": "uint64",
              "name": "networkFeeIndex",
              "type": "uint64"
            },
            {
              "internalType": "uint64",
              "name": "index",
              "type": "uint64"
            },
            {
              "internalType": "bool",
              "name": "active",
              "type": "bool"
            },
            {
              "internalType": "uint256",
              "name": "balance",
              "type": "uint256"
            }
          ],
          "internalType": "struct ISSVNetworkCore.Cluster",
          "name": "cluster",
          "type": "tuple"
        },
        {
          "internalType": "uint256",
          "name": "feeAmount",
          "type": "uint256"
        },
        {
          "internalType": "uint256",
          "name": "minTokenAmount",
          "type": "uint256"
        },
        {
          "internalType": "bool",
          "name": "processed",
          "type": "bool"
        }
      ],
      "name": "activatePool",
      "outputs": [],
      "stateMutability": "nonpayable",
      "type": "function"
    },
    {
      "inputs": [],
      "name": "cancelFunctions",
      "outputs": [],
      "stateMutability": "nonpayable",
      "type": "function"
    },
    {
      "inputs": [],
      "name": "cancelUpkeep",
      "outputs": [],
      "stateMutability": "nonpayable",
      "type": "function"
    },
    {
      "inputs": [
        {
          "internalType": "uint32[5]",
          "name": "poolIds",
          "type": "uint32[5]"
        }
      ],
      "name": "compoundRewards",
      "outputs": [],
      "stateMutability": "nonpayable",
      "type": "function"
    },
    {
      "inputs": [
        {
          "internalType": "uint64[]",
          "name": "operatorIds",
          "type": "uint64[]"
        },
        {
          "components": [
            {
              "internalType": "uint32",
              "name": "validatorCount",
              "type": "uint32"
            },
            {
              "internalType": "uint64",
              "name": "networkFeeIndex",
              "type": "uint64"
            },
            {
              "internalType": "uint64",
              "name": "index",
              "type": "uint64"
            },
            {
              "internalType": "bool",
              "name": "active",
              "type": "bool"
            },
            {
              "internalType": "uint256",
              "name": "balance",
              "type": "uint256"
            }
          ],
          "internalType": "struct ISSVNetworkCore.Cluster",
          "name": "cluster",
          "type": "tuple"
        },
        {
          "internalType": "uint256",
          "name": "feeAmount",
          "type": "uint256"
        },
        {
          "internalType": "uint256",
          "name": "minTokenAmount",
          "type": "uint256"
        },
        {
          "internalType": "bool",
          "name": "processed",
          "type": "bool"
        }
      ],
      "name": "depositClusterBalance",
      "outputs": [],
      "stateMutability": "nonpayable",
      "type": "function"
    },
    {
      "inputs": [
        {
          "internalType": "uint32",
          "name": "poolId",
          "type": "uint32"
        }
      ],
      "name": "depositExitedBalance",
      "outputs": [],
      "stateMutability": "payable",
      "type": "function"
    },
    {
      "inputs": [
        {
          "internalType": "uint256",
          "name": "feeAmount",
          "type": "uint256"
        },
        {
          "internalType": "uint256",
          "name": "minTokenAmount",
          "type": "uint256"
        },
        {
          "internalType": "bool",
          "name": "processed",
          "type": "bool"
        }
      ],
      "name": "depositFunctionsBalance",
      "outputs": [],
      "stateMutability": "nonpayable",
      "type": "function"
    },
    {
      "inputs": [
        {
          "internalType": "uint32",
          "name": "poolId",
          "type": "uint32"
        }
      ],
      "name": "depositRecoveredBalance",
      "outputs": [],
      "stateMutability": "payable",
      "type": "function"
    },
    {
      "inputs": [],
      "name": "depositReservedFees",
      "outputs": [],
      "stateMutability": "payable",
      "type": "function"
    },
    {
      "inputs": [
        {
          "internalType": "uint32",
          "name": "poolId",
          "type": "uint32"
        }
      ],
      "name": "depositRewards",
      "outputs": [],
      "stateMutability": "payable",
      "type": "function"
    },
    {
      "inputs": [],
      "name": "depositStake",
      "outputs": [],
      "stateMutability": "payable",
      "type": "function"
    },
    {
      "inputs": [
        {
          "internalType": "uint256",
          "name": "feeAmount",
          "type": "uint256"
        },
        {
          "internalType": "uint256",
          "name": "minTokenAmount",
          "type": "uint256"
        },
        {
          "internalType": "bool",
          "name": "processed",
          "type": "bool"
        }
      ],
      "name": "depositUpkeepBalance",
      "outputs": [],
      "stateMutability": "nonpayable",
      "type": "function"
    },
    {
      "inputs": [],
      "name": "eigenStake",
      "outputs": [
        {
          "internalType": "bool",
          "name": "",
          "type": "bool"
        }
      ],
      "stateMutability": "view",
      "type": "function"
    },
    {
      "inputs": [],
      "name": "finalizableActivations",
      "outputs": [
        {
          "internalType": "uint256",
          "name": "",
          "type": "uint256"
        }
      ],
      "stateMutability": "view",
      "type": "function"
    },
    {
      "inputs": [],
      "name": "finalizableCompletedExits",
      "outputs": [
        {
          "internalType": "uint256",
          "name": "",
          "type": "uint256"
        }
      ],
      "stateMutability": "view",
      "type": "function"
    },
    {
      "inputs": [
        {
          "internalType": "uint256",
          "name": "count",
          "type": "uint256"
        }
      ],
      "name": "fulfillWithdrawals",
      "outputs": [],
      "stateMutability": "nonpayable",
      "type": "function"
    },
    {
      "inputs": [],
      "name": "functionsId",
      "outputs": [
        {
          "internalType": "uint64",
          "name": "",
          "type": "uint64"
        }
      ],
      "stateMutability": "view",
      "type": "function"
    },
    {
      "inputs": [],
      "name": "getBufferedBalance",
      "outputs": [
        {
          "internalType": "uint256",
          "name": "bufferedBalance",
          "type": "uint256"
        }
      ],
      "stateMutability": "view",
      "type": "function"
    },
    {
      "inputs": [],
      "name": "getPendingPoolIds",
      "outputs": [
        {
          "internalType": "uint32[]",
          "name": "",
          "type": "uint32[]"
        }
      ],
      "stateMutability": "view",
      "type": "function"
    },
    {
      "inputs": [
        {
          "internalType": "uint256",
          "name": "index",
          "type": "uint256"
        },
        {
          "internalType": "uint256",
          "name": "period",
          "type": "uint256"
        }
      ],
      "name": "getPendingWithdrawalEligibility",
      "outputs": [
        {
          "internalType": "bool",
          "name": "pendingWithdrawalEligibility",
          "type": "bool"
        }
      ],
      "stateMutability": "view",
      "type": "function"
    },
    {
      "inputs": [
        {
          "internalType": "uint32",
          "name": "poolId",
          "type": "uint32"
        }
      ],
      "name": "getPoolAddress",
      "outputs": [
        {
          "internalType": "address",
          "name": "poolAddress",
          "type": "address"
        }
      ],
      "stateMutability": "view",
      "type": "function"
    },
    {
      "inputs": [],
      "name": "getRegistryAddress",
      "outputs": [
        {
          "internalType": "address",
          "name": "registryAddress",
          "type": "address"
        }
      ],
      "stateMutability": "view",
      "type": "function"
    },
    {
      "inputs": [],
      "name": "getStakedPoolIds",
      "outputs": [
        {
          "internalType": "uint32[]",
          "name": "",
          "type": "uint32[]"
        }
      ],
      "stateMutability": "view",
      "type": "function"
    },
    {
      "inputs": [],
      "name": "getTotalStake",
      "outputs": [
        {
          "internalType": "uint256",
          "name": "totalStake",
          "type": "uint256"
        }
      ],
      "stateMutability": "view",
      "type": "function"
    },
    {
      "inputs": [],
      "name": "getUpkeepAddress",
      "outputs": [
        {
          "internalType": "address",
          "name": "upkeepAddress",
          "type": "address"
        }
      ],
      "stateMutability": "view",
      "type": "function"
    },
    {
      "inputs": [
        {
          "internalType": "address",
          "name": "userAddress",
          "type": "address"
        }
      ],
      "name": "getUserStake",
      "outputs": [
        {
          "internalType": "uint256",
          "name": "userStake",
          "type": "uint256"
        }
      ],
      "stateMutability": "view",
      "type": "function"
    },
    {
      "inputs": [],
      "name": "getWithdrawableBalance",
      "outputs": [
        {
          "internalType": "uint256",
          "name": "withdrawableBalance",
          "type": "uint256"
        }
      ],
      "stateMutability": "view",
      "type": "function"
    },
    {
      "inputs": [
        {
          "internalType": "address",
          "name": "daoOracleAddress_",
          "type": "address"
        },
        {
          "internalType": "address",
          "name": "functionsOracleAddress",
          "type": "address"
        },
        {
          "components": [
            {
              "internalType": "uint256",
              "name": "minCollateral",
              "type": "uint256"
            },
            {
              "internalType": "uint256",
              "name": "lockPeriod",
              "type": "uint256"
            },
            {
              "internalType": "uint32",
              "name": "userFee",
              "type": "uint32"
            },
            {
              "internalType": "bool",
              "name": "compoundStake",
              "type": "bool"
            },
            {
              "internalType": "bool",
              "name": "eigenStake",
              "type": "bool"
            },
            {
              "internalType": "bool",
              "name": "liquidStake",
              "type": "bool"
            },
            {
              "internalType": "bool",
              "name": "privateOperators",
              "type": "bool"
            },
            {
              "internalType": "bool",
              "name": "verifiedOperators",
              "type": "bool"
            }
          ],
          "internalType": "struct ICasimirCore.Strategy",
          "name": "strategy",
          "type": "tuple"
        }
      ],
      "name": "initialize",
      "outputs": [],
      "stateMutability": "nonpayable",
      "type": "function"
    },
    {
      "inputs": [
        {
          "internalType": "bytes32",
          "name": "depositDataRoot",
          "type": "bytes32"
        },
        {
          "internalType": "bytes",
          "name": "publicKey",
          "type": "bytes"
        },
        {
          "internalType": "bytes",
          "name": "signature",
          "type": "bytes"
        },
        {
          "internalType": "bytes",
          "name": "withdrawalCredentials",
          "type": "bytes"
        },
        {
          "internalType": "uint64[]",
          "name": "operatorIds",
          "type": "uint64[]"
        },
        {
          "internalType": "bytes",
          "name": "shares",
          "type": "bytes"
        }
      ],
      "name": "initiatePool",
      "outputs": [],
      "stateMutability": "nonpayable",
      "type": "function"
    },
    {
      "inputs": [],
      "name": "latestBeaconBalance",
      "outputs": [
        {
          "internalType": "uint256",
          "name": "",
          "type": "uint256"
        }
      ],
      "stateMutability": "view",
      "type": "function"
    },
    {
      "inputs": [],
      "name": "liquidStake",
      "outputs": [
        {
          "internalType": "bool",
          "name": "",
          "type": "bool"
        }
      ],
      "stateMutability": "view",
      "type": "function"
    },
    {
      "inputs": [],
      "name": "lockPeriod",
      "outputs": [
        {
          "internalType": "uint256",
          "name": "",
          "type": "uint256"
        }
      ],
      "stateMutability": "view",
      "type": "function"
    },
    {
      "inputs": [],
      "name": "owner",
      "outputs": [
        {
          "internalType": "address",
          "name": "",
          "type": "address"
        }
      ],
      "stateMutability": "view",
      "type": "function"
    },
    {
      "inputs": [
        {
          "internalType": "uint256",
          "name": "beaconBalance",
          "type": "uint256"
        },
        {
          "internalType": "uint256",
          "name": "sweptBalance",
          "type": "uint256"
        },
        {
          "internalType": "uint256",
          "name": "activatedDeposits",
          "type": "uint256"
        },
        {
          "internalType": "uint256",
          "name": "completedExits",
          "type": "uint256"
        }
      ],
      "name": "rebalanceStake",
      "outputs": [],
      "stateMutability": "nonpayable",
      "type": "function"
    },
    {
      "inputs": [],
      "name": "renounceOwnership",
      "outputs": [],
      "stateMutability": "nonpayable",
      "type": "function"
    },
    {
      "inputs": [
        {
          "internalType": "uint256",
          "name": "stakedPoolIndex",
          "type": "uint256"
        },
        {
          "internalType": "uint32[]",
          "name": "blamePercents",
          "type": "uint32[]"
        },
        {
          "components": [
            {
              "internalType": "uint32",
              "name": "validatorCount",
              "type": "uint32"
            },
            {
              "internalType": "uint64",
              "name": "networkFeeIndex",
              "type": "uint64"
            },
            {
              "internalType": "uint64",
              "name": "index",
              "type": "uint64"
            },
            {
              "internalType": "bool",
              "name": "active",
              "type": "bool"
            },
            {
              "internalType": "uint256",
              "name": "balance",
              "type": "uint256"
            }
          ],
          "internalType": "struct ISSVNetworkCore.Cluster",
          "name": "cluster",
          "type": "tuple"
        }
      ],
      "name": "reportCompletedExit",
      "outputs": [],
      "stateMutability": "nonpayable",
      "type": "function"
    },
    {
      "inputs": [
        {
          "internalType": "uint32[]",
          "name": "poolIds",
          "type": "uint32[]"
        }
      ],
      "name": "reportForcedExits",
      "outputs": [],
      "stateMutability": "nonpayable",
      "type": "function"
    },
    {
      "inputs": [],
      "name": "reportPeriod",
      "outputs": [
        {
          "internalType": "uint32",
          "name": "",
          "type": "uint32"
        }
      ],
      "stateMutability": "view",
      "type": "function"
    },
    {
      "inputs": [
        {
          "internalType": "uint256",
          "name": "amount",
          "type": "uint256"
        }
      ],
      "name": "requestWithdrawal",
      "outputs": [],
      "stateMutability": "nonpayable",
      "type": "function"
    },
    {
      "inputs": [],
      "name": "requestedExits",
      "outputs": [
        {
          "internalType": "uint256",
          "name": "",
          "type": "uint256"
        }
      ],
      "stateMutability": "view",
      "type": "function"
    },
    {
      "inputs": [],
      "name": "requestedWithdrawalBalance",
      "outputs": [
        {
          "internalType": "uint256",
          "name": "",
          "type": "uint256"
        }
      ],
      "stateMutability": "view",
      "type": "function"
    },
    {
      "inputs": [],
      "name": "reservedFeeBalance",
      "outputs": [
        {
          "internalType": "uint256",
          "name": "",
          "type": "uint256"
        }
      ],
      "stateMutability": "view",
      "type": "function"
    },
    {
      "inputs": [
        {
          "internalType": "uint32",
          "name": "poolId",
          "type": "uint32"
        },
        {
          "internalType": "uint64[]",
          "name": "operatorIds",
          "type": "uint64[]"
        },
        {
          "internalType": "uint64",
          "name": "newOperatorId",
          "type": "uint64"
        },
        {
          "internalType": "uint64",
          "name": "oldOperatorId",
          "type": "uint64"
        },
        {
          "internalType": "bytes",
          "name": "shares",
          "type": "bytes"
        },
        {
          "components": [
            {
              "internalType": "uint32",
              "name": "validatorCount",
              "type": "uint32"
            },
            {
              "internalType": "uint64",
              "name": "networkFeeIndex",
              "type": "uint64"
            },
            {
              "internalType": "uint64",
              "name": "index",
              "type": "uint64"
            },
            {
              "internalType": "bool",
              "name": "active",
              "type": "bool"
            },
            {
              "internalType": "uint256",
              "name": "balance",
              "type": "uint256"
            }
          ],
          "internalType": "struct ISSVNetworkCore.Cluster",
          "name": "cluster",
          "type": "tuple"
        },
        {
          "components": [
            {
              "internalType": "uint32",
              "name": "validatorCount",
              "type": "uint32"
            },
            {
              "internalType": "uint64",
              "name": "networkFeeIndex",
              "type": "uint64"
            },
            {
              "internalType": "uint64",
              "name": "index",
              "type": "uint64"
            },
            {
              "internalType": "bool",
              "name": "active",
              "type": "bool"
            },
            {
              "internalType": "uint256",
              "name": "balance",
              "type": "uint256"
            }
          ],
          "internalType": "struct ISSVNetworkCore.Cluster",
          "name": "oldCluster",
          "type": "tuple"
        },
        {
          "internalType": "uint256",
          "name": "feeAmount",
          "type": "uint256"
        },
        {
          "internalType": "uint256",
          "name": "minTokenAmount",
          "type": "uint256"
        },
        {
          "internalType": "bool",
          "name": "processed",
          "type": "bool"
        }
      ],
      "name": "resharePool",
      "outputs": [],
      "stateMutability": "nonpayable",
      "type": "function"
    },
    {
      "inputs": [
        {
          "internalType": "address",
          "name": "newOwner",
          "type": "address"
        }
      ],
      "name": "transferOwnership",
      "outputs": [],
      "stateMutability": "nonpayable",
      "type": "function"
    },
    {
      "inputs": [],
      "name": "upkeepId",
      "outputs": [
        {
          "internalType": "uint256",
          "name": "",
          "type": "uint256"
        }
      ],
      "stateMutability": "view",
      "type": "function"
    },
    {
      "inputs": [],
      "name": "userFee",
      "outputs": [
        {
          "internalType": "uint32",
          "name": "",
          "type": "uint32"
        }
      ],
      "stateMutability": "view",
      "type": "function"
    },
    {
      "inputs": [
        {
          "internalType": "uint64[]",
          "name": "operatorIds",
          "type": "uint64[]"
        },
        {
          "components": [
            {
              "internalType": "uint32",
              "name": "validatorCount",
              "type": "uint32"
            },
            {
              "internalType": "uint64",
              "name": "networkFeeIndex",
              "type": "uint64"
            },
            {
              "internalType": "uint64",
              "name": "index",
              "type": "uint64"
            },
            {
              "internalType": "bool",
              "name": "active",
              "type": "bool"
            },
            {
              "internalType": "uint256",
              "name": "balance",
              "type": "uint256"
            }
          ],
          "internalType": "struct ISSVNetworkCore.Cluster",
          "name": "cluster",
          "type": "tuple"
        },
        {
          "internalType": "uint256",
          "name": "amount",
          "type": "uint256"
        }
      ],
      "name": "withdrawClusterBalance",
      "outputs": [],
      "stateMutability": "nonpayable",
      "type": "function"
    },
    {
      "inputs": [
        {
          "internalType": "uint256",
          "name": "amount",
          "type": "uint256"
        }
      ],
      "name": "withdrawLINKBalance",
      "outputs": [],
      "stateMutability": "nonpayable",
      "type": "function"
    },
    {
      "inputs": [
        {
          "internalType": "uint256",
          "name": "amount",
          "type": "uint256"
        }
      ],
      "name": "withdrawReservedFees",
      "outputs": [],
      "stateMutability": "nonpayable",
      "type": "function"
    },
    {
      "inputs": [
        {
          "internalType": "uint256",
          "name": "amount",
          "type": "uint256"
        }
      ],
      "name": "withdrawSSVBalance",
      "outputs": [],
      "stateMutability": "nonpayable",
      "type": "function"
    },
    {
      "stateMutability": "payable",
      "type": "receive"
    }
  ],
  "bytecode": "0x6101a060405234620000de5762000029620000196200020f565b9796909695919594929462000269565b604051615e26620004ce82396080518181816123cb015281816124bf01526149db015260a0518181816123650152614b6c015260c05181612770015260e05181818161293b0152614aaa0152610100518181816120f701528181613d41015281816140b80152818161474f015261495e0152610120518181816120bb01528181613d0d0152818161407c0152614c0f0152610140518161588c015261016051816157ee0152610180518161578e0152615e2690f35b600080fd5b634e487b7160e01b600052604160045260246000fd5b90601f01601f191681019081106001600160401b038211176200011b57604052565b620000e3565b90620001386200013060405190565b9283620000f9565b565b6001600160a01b031690565b90565b62000146906200013a565b6200015f8162000149565b03620000de57565b90505190620001388262000154565b909161012082840312620000de5762000190838362000167565b92620001a0816020850162000167565b92620001b0826040830162000167565b92620001c0836060840162000167565b92620001d0816080850162000167565b92620001e08260a0830162000167565b9262000146620001f48460c0850162000167565b93620002048160e0860162000167565b936101000162000167565b62000232620062f480380380620002268162000121565b92833981019062000176565b909192939495969798565b62000146906200013a906001600160a01b031682565b62000146906200023d565b620001469062000253565b6200027e62000278826200025e565b62000492565b6200028d62000278836200025e565b6200029c62000278846200025e565b620002ab62000278856200025e565b620002ba62000278866200025e565b620002c962000278876200025e565b620002d862000278886200025e565b620002e762000278896200025e565b620002f6620002788a6200025e565b60805260c05260e05260a052610100526101205261014052610160526101805262000138620003ea565b620001469060081c5b60ff1690565b62000146905462000320565b156200034357565b60405162461bcd60e51b815260206004820152602760248201527f496e697469616c697a61626c653a20636f6e747261637420697320696e697469604482015266616c697a696e6760c81b6064820152608490fd5b620001469062000329565b62000146905462000398565b6200032962000146620001469260ff1690565b90620003d662000146620003e692620003af565b825460ff191660ff919091161790565b9055565b6200040862000402620003fe60006200032f565b1590565b6200033b565b620004146000620003a3565b60ff908190811603620004245750565b62000431816000620003c2565b620004727f7f26b83ff96e1f2b6a682f133852f6798a09c465da95921460cefb3847402498916200046160405190565b9182918260ff909116815260200190565b0390a1565b6200013a62000146620001469290565b620001469062000477565b620004b3620004ac620004a6600062000487565b6200013a565b916200013a565b14620004bb57565b60405163e6c4247b60e01b8152600490fdfe60806040526004361015610023575b361561001957600080fd5b610021611b34565b005b60003560e01c80630d2d76a2146103435780630ea61dad1461033e578063189f4fcd146103395780631ae0f14a1461033457806329f2593c1461032f57806335ca8ce71461032a5780633fd8b02f1461032557806341f6910a146103205780634200a7aa1461031b57806342a1bbd214610316578063457cf6ae14610311578063483a657f1461030c57806358c4e72e14610307578063606225d0146103025780636770897a146102fd5780636d83dd5c146102f8578063715018a6146102f3578063784b95b8146102ee5780637bc74225146102e957806380637015146102e4578063867918b6146102df57806389fffc3c146102da5780638da5cb5b146102d55780639ee679e8146102d05780639fe3dcdb146102cb578063a0b297d3146102c6578063a2089f0e146102c1578063a52ecbbe146102bc578063aaf0c558146102b7578063af0f8090146102b2578063b641a34f146102ad578063b8250ec0146102a8578063bbadc93a146102a3578063be788e701461029e578063cba2bd3914610299578063cc48739814610294578063d2aa789f1461028f578063d5d2722c1461028a578063d78ebbdc14610285578063e17e3ea014610280578063ea79ae891461027b578063ecd3fc9b14610276578063efa3fdc914610271578063f056a1aa1461026c578063f21de1e814610267578063f2fde38b14610262578063f3bf94991461025d578063f8655cdd14610258578063f95ea5a2146102535763ff1e460f0361000e576111a4565b6110d2565b6110bf565b6110a7565b61106a565b61104f565b611036565b61101b565b610ff4565b610fcd565b610fa8565b610ebb565b610df5565b610dda565b610dbb565b610d9c565b610c61565b610c46565b610c01565b610bda565b610bbf565b610b97565b610b42565b610ae5565b610aca565b610aa6565b610a8e565b610a67565b610a2f565b610a17565b6109fc565b6109e1565b6109c9565b6109b1565b610989565b6108fd565b6108bf565b61087d565b61083f565b610820565b6107f1565b6107cc565b610780565b6106ac565b610663565b61060a565b6104e9565b6103d8565b6103a6565b610358565b600091031261035357565b600080fd5b610363366004610348565b61036b611c94565b604051005b0390f35b610386916008021c5b63ffffffff1690565b90565b906103869154610374565b61038660066098610389565b9052565b565b34610353576103b6366004610348565b6103706103c1610394565b6040519182918263ffffffff909116815260200190565b34610353576103e8366004610348565b61036b614a9d565b634e487b7160e01b600052604160045260246000fd5b90601f01601f191681019081106001600160401b0382111761042757604052565b6103f0565b906103a461043960405190565b9283610406565b6001600160401b0381116104275760200290565b63ffffffff81165b0361035357565b905035906103a482610454565b9092919261048561048082610440565b61042c565b93602085920283019281841161035357915b8383106104a45750505050565b602080916104b28486610463565b815201920191610497565b9080601f830112156103535761038691600590610470565b9060a08282031261035357610386916104bd565b346103535761036b6104fc3660046104d5565b612ffc565b8061045c565b905035906103a482610501565b6001600160401b031690565b61045c81610514565b905035906103a482610520565b80151561045c565b905035906103a482610536565b91909160a081840312610353576105b661056560a061042c565b9360006105728285610463565b90860152602061058482828601610529565b90860152604061059682828601610529565b9086015260606105a88282860161053e565b908601526080809301610507565b90830152565b919061012083820312610353576105d38184610507565b926105e1826020830161054b565b926103866105f28460c08501610507565b936106008160e08601610507565b936101000161053e565b346103535761036b61061d3660046105bc565b93929092613c19565b610386916008021c610514565b906103869154610626565b610386600a6098610633565b6103a090610514565b6020810192916103a4919061064a565b3461035357610673366004610348565b61037061067e61063e565b60405191829182610653565b610386916008021c81565b90610386915461068a565b61038660006097610695565b34610353576106bc366004610348565b6103706106c76106a0565b6040515b9182918290815260200190565b6001600160401b0381116104275760208091020190565b909291926106ff610480826106d8565b938185526020808601920283019281841161035357915b8383106107235750505050565b602080916107318486610529565b815201920191610716565b9080601f8301121561035357816020610386933591016106ef565b9190610120838203126103535782356001600160401b03811161035357816105d391850161073c565b346103535761036b610793366004610757565b939290926120a7565b9091606082840312610353576103866107b58484610507565b936107c38160208601610507565b9360400161053e565b346103535761036b6107df36600461079c565b91612352565b61038660006098610389565b3461035357610801366004610348565b6103706103c16107e5565b906020828203126103535761038691610463565b61036b61082e36600461080c565b611e37565b6103866000609e610695565b346103535761084f366004610348565b6103706106c7610833565b919060408382031261035357610386906108748185610507565b93602001610507565b346103535761037061089961089336600461085a565b90614f53565b60405191829182901515815260200190565b906020828203126103535761038691610507565b346103535761036b6108d23660046108ab565b61341d565b610386916008021c5b60ff1690565b9061038691546108d7565b610386600560986108e6565b346103535761090d366004610348565b6103706108996108f1565b0190565b9061093c61093561092b845190565b8084529260200190565b9260200190565b9060005b81811061094d5750505090565b909192610970610969600192865163ffffffff16815260200190565b9460200190565b929101610940565b60208082526103869291019061091c565b3461035357610999366004610348565b6103706109a461522e565b6040515b91829182610978565b34610353576109c1366004610348565b61036b611215565b346103535761036b6109dc3660046108ab565b612a70565b34610353576109f1366004610348565b6103706106c7615297565b3461035357610a0c366004610348565b6103706106c76152bf565b346103535761036b610a2a3660046108ab565b614c00565b610a3a366004610348565b61036b612a09565b6001600160a01b031690565b6103a090610a42565b6020810192916103a49190610a4e565b3461035357610a77366004610348565b610370610a826111d3565b60405191829182610a57565b346103535761036b610aa13660046108ab565b6133be565b3461035357610ab6366004610348565b61036b6149ce565b6103866000609d610695565b3461035357610ada366004610348565b6103706106c7610abe565b3461035357610af5366004610348565b610370610a8261525c565b909160e0828403126103535781356001600160401b03811161035357610b2b8461038692850161073c565b93610b39816020860161054b565b9360c001610507565b346103535761036b610b55366004610b00565b91614951565b60808183031261035357610b6f8282610507565b92610386610b808460208501610507565b93610b8e8160408601610507565b93606001610507565b346103535761036b610baa366004610b5b565b92919091612b9a565b6103866000609a610695565b3461035357610bcf366004610348565b6103706106c7610bb3565b3461035357610370610a82610bf036600461080c565b615238565b6103866000609b610695565b3461035357610c11366004610348565b6103706106c7610bf5565b61045c81610a42565b905035906103a482610c1c565b906020828203126103535761038691610c25565b34610353576103706106c7610c5c366004610c32565b615269565b3461035357610c71366004610348565b6103706106c76152e4565b6001600160401b03811161042757602090601f01601f19160190565b90826000939282370152565b90929192610cb461048082610c7c565b93818552602085019082840111610353576103a492610c98565b9080601f830112156103535781602061038693359101610ca4565b9160c08383031261035357610cfe8284610507565b9260208101356001600160401b0381116103535783610d1e918301610cce565b9260408201356001600160401b0381116103535781610d3e918401610cce565b9260608301356001600160401b0381116103535782610d5e918501610cce565b9260808101356001600160401b0381116103535783610d7e91830161073c565b9260a08201356001600160401b038111610353576103869201610cce565b346103535761036b610daf366004610ce9565b94939093929192613726565b61036b610dc936600461080c565b611f09565b61038660006099610695565b3461035357610dea366004610348565b6103706106c7610dce565b3461035357610e05366004610348565b6103706109a4615224565b90929192610e20610480826106d8565b938185526020808601920283019281841161035357915b838310610e445750505050565b60208091610e528486610463565b815201920191610e37565b9080601f830112156103535781602061038693359101610e10565b909160e08284031261035357610e8e8383610507565b926020830135906001600160401b03821161035357610eb281610386938601610e5d565b9360400161054b565b346103535761036b610ece366004610e78565b91614651565b91909161010081840312610353576105b6610ef061010061042c565b936000610efd8285610507565b908601526020610f0f82828601610507565b908601526040610f2182828601610463565b908601526060610f338282860161053e565b908601526080610f458282860161053e565b9086015260a0610f578282860161053e565b9086015260c0610f698282860161053e565b9086015260e080930161053e565b90916101408284031261035357610386610f918484610c25565b93610f9f8160208601610c25565b93604001610ed4565b346103535761036b610fbb366004610f77565b916119c3565b6103866000609f610695565b3461035357610fdd366004610348565b6103706106c7610fc1565b6103866000609c610695565b3461035357611004366004610348565b6103706106c7610fe8565b610386600460986108e6565b346103535761102b366004610348565b61037061089961100f565b346103535761036b61104936600461079c565b91612752565b346103535761105f366004610348565b610370610a8261524f565b346103535761036b61107d366004610c32565b611329565b906020828203126103535781356001600160401b038111610353576103869201610e5d565b346103535761036b6110ba366004611082565b6144a5565b61036b6110cd36600461080c565b611d1d565b346103535761036b6110e53660046108ab565b614b5c565b9161024083830312610353576111008284610463565b9260208101356001600160401b038111610353578361112091830161073c565b9260409161113082848301610529565b9361113e8360608401610529565b936001806080850135921b038111610353578361115c918401610cce565b9261116a8160a0850161054b565b9261117982610140830161054b565b9261038661118b846101e08501610507565b9361119a816102008601610507565b936102200161053e565b346103535761036b6111b73660046110ea565b98979097969196959295949394613f83565b6103869054610a42565b61038660336111c9565b6111e5611271565b6103a4611203565b610a426103866103869290565b610386906111ed565b6103a461121060006111fa565b611388565b6103a46111dd565b1561122457565b60405162461bcd60e51b81528061126d600482016020808252818101527f4f776e61626c653a2063616c6c6572206973206e6f7420746865206f776e6572604082015260600190565b0390fd5b6103a461127c6111d3565b61129361128d33610a42565b610a42565b91610a42565b1461121d565b6103a4906112a5611271565b611305565b156112b157565b60405162461bcd60e51b815260206004820152602660248201527f4f776e61626c653a206e6577206f776e657220697320746865207a65726f206160448201526564647265737360d01b6064820152608490fd5b6103a49061121061131961128860006111fa565b61132283610a42565b14156112aa565b6103a490611299565b906001600160a01b03905b9181191691161790565b61038690610a42906001600160a01b031682565b61038690611347565b6103869061135b565b9061137d61038661138492611364565b8254611332565b9055565b61139260336111c9565b9061139e81603361136d565b6113d16113cb7f8be0079c531659141344cd1fd0a4f28419497f9722a3daafe3b4186f6b6457e093611364565b91611364565b916113db60405190565b600090a3565b6103869060081c6108e0565b61038690546113e1565b610386906108e0565b61038690546113f7565b6108e06103866103869290565b1561141e57565b60405162461bcd60e51b815260206004820152602e60248201527f496e697469616c697a61626c653a20636f6e747261637420697320616c72656160448201526d191e481a5b9a5d1a585b1a5e995960921b6064820152608490fd5b9060ff9061133d565b6108e06103866103869260ff1690565b906114a361038661138492611483565b825461147a565b9061ff009060081b61133d565b906114c761038661138492151590565b82546114aa565b6103a09061140a565b6020810192916103a491906114ce565b91611535906114fd6114f960006113ed565b1590565b9283806115d8575b8015611593575b61151590611417565b6001948461152c6115258861140a565b6000611493565b61158357611743565b61153c5750565b6115476000806114b7565b61157e7f7f26b83ff96e1f2b6a682f133852f6798a09c465da95921460cefb38474024989161157560405190565b918291826114d7565b0390a1565b61158e8660006114b7565b611743565b506115a86114f96115a330611364565b611acb565b801561150c57506115156115bc6000611400565b6115d06115c9600161140a565b9160ff1690565b14905061150c565b506115e36000611400565b6115f06115c9600161140a565b10611505565b905051906103a482610c1c565b9060208282031261035357610386916115f6565b6040513d6000823e3d90fd5b6116556103a49461164c606094989795611645608086019a6000870190610a4e565b6020850152565b15156040830152565b019015159052565b6116556103a49461168960609498979561167f608086019a6000870190610a4e565b6020850190610a4e565b6040830190610a4e565b9063ffffffff9061133d565b61037d6103866103869263ffffffff1690565b906116c26103866113849261169f565b8254611693565b9060ff60201b9060201b61133d565b906116e861038661138492151590565b82546116c9565b9060ff60281b9060281b61133d565b9061170e61038661138492151590565b82546116ef565b6103866103866103869290565b906000199061133d565b9061173c61038661138492611715565b8254611722565b61175e9061174f611a4b565b611757611a8a565b60a061136d565b6117bb339161177661176f84611364565b60a161136d565b73__$9b59661500862860ed33a22dd071583f74$__622e7a5c60206117a361179e60a16111c9565b611364565b63c4009f1b906117b260405190565b96879260e01b90565b825260049082905afa93841561196f5760009461199d575b50602090611809906118146117e6895190565b60c08a0151151560e08b01511515916117fe60405190565b998a96879660e01b90565b865260048601611623565b0381845af4801561196f5761183861183f9161186295600091611941575b50611364565b60a261136d565b633033484d602061185361179e60a16111c9565b63042711b3906117b260405190565b825260049082905afa92831561196f57602094600094611974575b50906118b56118aa9261189360608a0151151590565b9061189d60405190565b9889978896879660e01b90565b86526004860161165d565b03915af490811561196f57611925926118e56118de61191e9460a0946000916119415750611364565b60a361136d565b6119006118f9604083015163ffffffff1690565b60986116b2565b6119176119106080830151151590565b60986116d8565b0151151590565b60986116fe565b6103a461193a683635c9adc5dea00000611715565b60a961172c565b611962915060203d8111611968575b61195a8183610406565b810190611603565b38611832565b503d611950565b611617565b6118aa929194506119946118b591873d81116119685761195a8183610406565b9491925061187d565b60209194506119bb61180991833d81116119685761195a8183610406565b9491506117d3565b906103a492916114e7565b156119d557565b60405162461bcd60e51b815260206004820152602b60248201527f496e697469616c697a61626c653a20636f6e7472616374206973206e6f74206960448201526a6e697469616c697a696e6760a81b6064820152608490fd5b611a40611a3b60006113ed565b6119ce565b6103a46103a4611a6a565b6103a4611a2e565b611a60611a3b60006113ed565b6103a48033611388565b6103a4611a53565b611a7f611a3b60006113ed565b6103a46103a4611ac3565b6103a4611a72565b611a9f611a3b60006113ed565b6103a4611ab1565b6103866001611715565b6103a4611abc611aa7565b606561172c565b6103a4611a92565b3b611add611ad96000611715565b9190565b1190565b6103869081565b6103869054611ae1565b634e487b7160e01b600052601160045260246000fd5b9190611b13565b9290565b8201809211611b1e57565b611af2565b61038667016345785d8a0000611715565b611b51611b4a34611b4560ad611ae8565b611b08565b60ad61172c565b611b5b60ad611ae8565b611b69611ad9610386611b23565b1015611b7157565b6103a46152fb565b611b81611cf2565b611a9f611bae565b90611b9390611364565b600052602052604060002090565b91908203918211611b1e57565b33611bbd6103868260a8611b89565b90611c363492611bed611be6611bdc611bd587615adc565b8097611ba1565b611b45609e611ae8565b609e61172c565b611bf681611ae8565b90600091611c06611ad984611715565b11611c7b575b611c22611c1960a9611ae8565b6001830161172c565b01611c3084611b4583611ae8565b9061172c565b611c3f82615393565b611c76611c6c7f0a7bb2e28cc4698aac06db79cf9163bfcc20719286cf59fa7d492ceda1b8edc292611364565b926106cb60405190565b0390a2565b611c8f611c8785615269565b83830161172c565b611c0c565b6103a4611b79565b6103866002611715565b15611cad57565b60405162461bcd60e51b815260206004820152601f60248201527f5265656e7472616e637947756172643a207265656e7472616e742063616c6c006044820152606490fd5b6103a4611cff6065611ae8565b611abc611d0a611c9c565b91821415611ca6565b90611b939061169f565b3490611d296000611715565b8214611d9a57611d45611d40611d4a9260ac611d13565b6111c9565b615b8d565b611d63611be6611bdc611d5c84615adc565b8094611ba1565b611d6c81615393565b61157e7f4e9221f2cca6ca0397acc6004ea0b716798254f5abcf53924fab34f0373e5d4e916106cb60405190565b60405163162908e360e11b8152600490fd5b9160001960089290920291821b911b61133d565b921b90565b9190611dd661038661138493611715565b908354611dac565b6103a491600091611dc5565b916001600160a01b0360089290920291821b911b61133d565b9190611e1461038661138493611364565b908354611dea565b6103a491600091611e03565b6000198114611b1e5760010190565b611e8290611ec0611eb982611e976000611e928360ac611e5d611d45611d408484611d13565b611e8d84611e8884349d8e611e7c611e7760ae9d8e611d13565b611ae8565b90611b08565b99611d13565b611dde565b611d13565b611e1c565b611eaf611ea882611b4560b0611ae8565b60b061172c565b611b4560a6611ae8565b60a661172c565b611edc611ed5611ed0609c611ae8565b611e28565b609c61172c565b611c76611c6c7f3bcdee983cede9aed1dd2f044dc6988c607f0686c76384fc0e1adc7f2da70a659261169f565b33611f1d61128d61128861179e60a26111c9565b03611f84573490611f3f611f328260ae611d13565b611c3084611b4583611ae8565b611f57611f5083611b4560a7611ae8565b60a761172c565b611c76611c6c7fdbef13e1112ea87e66055a896cdcd1f750860e5bf921bf0d4ed44ba9262a30cc9261169f565b6040516282b42960e81b8152600490fd5b905051906103a482610536565b906020828203126103535761038691611f95565b9160206103a4929493611fd160408201966000830190610a4e565b0152565b906109188160209361064a565b90611ff161093561092b845190565b9060005b8181106120025750505090565b9091926120156109696001928651611fd5565b929101611ff5565b805163ffffffff1682526103a4919060809081906120436020820151602086019061064a565b6120556040820151604086019061064a565b6060818101511515908501520151910152565b6120a06120986060936103a49698979561208b6101008601926000870190610a4e565b8482036020860152611fe2565b966040830152565b019061201d565b92936120e791926120b6615b7c565b6120df7f0000000000000000000000000000000000000000000000000000000000000000611364565b958691615761565b9261212e602063095ea7b361211b7f0000000000000000000000000000000000000000000000000000000000000000611364565b9361212560405190565b93849260e01b90565b8252816000816121428b8960048401611fb6565b03925af1801561196f576121fa575b5063bc26e7e59061216130611364565b91813b1561035357600061218b9161219682968961217e60405190565b998a988997889660e01b90565b865260048601612068565b03925af1801561196f576121d4575b5061157e7f03a7e13393022cb5060ce4b834080e56619d145926fe449bb16202f1b503b892916106cb60405190565b6121ed9060005b6121e58183610406565b810190610348565b386121a5565b503d6121db565b61221a9060203d811161221f575b6122128183610406565b810190611fa2565b612151565b503d612208565b6103869060501c610514565b6103869054612226565b6122496103866103869290565b610514565b905051906103a482610520565b90602082820312610353576103869161224e565b90600160501b600160901b039060501b61133d565b61224961038661038692610514565b906122a361038661138492612284565b825461226f565b9160206103a49294936122c56040820196600083019061064a565b0190610a4e565b60005b8381106122df5750506000910152565b81810151838201526020016122cf565b61231061231960209361091893612304815190565b80835293849260200190565b958691016122cc565b601f01601f191690565b61234561038694929361233e60608401956000850190610a4e565b6020830152565b60408184039101526122ef565b916123919192612360615b7c565b6123897f0000000000000000000000000000000000000000000000000000000000000000611364565b938491615761565b809161239d6098612232565b906000916123b36123ad8461223c565b91610514565b146124b7575b90602091612435634000aea0926123ef7f0000000000000000000000000000000000000000000000000000000000000000611364565b936124406123fd6098612232565b61242461240960405190565b80926124188b83019182610653565b90810382520382610406565b6040515b9889978896879560e01b90565b855260048501612323565b03925af1801561196f5761245b9160009161249f575b501590565b61248d5761157e7fe7f63294b02fb47136b60e9c35c152ab6c2b2a86ab3af951d6ffab8d5d629aa3916106cb60405190565b6040516312171d8360e31b8152600490fd5b6114f9915060203d811161221f576122128183610406565b9091506124e37f0000000000000000000000000000000000000000000000000000000000000000611364565b9163a21a23e46124fc6124f560405190565b9160e01b90565b815260208160048185885af1801561196f57612522916000916125aa575b506098612293565b637341c10c6125316098612232565b61253e61179e60a36111c9565b94803b156103535761256584809461257061255860405190565b998a968795869460e01b90565b8452600484016122aa565b03925af191821561196f57849360209361258e575b509091506123b9565b6125a490833d85116121f3576121e58183610406565b38612585565b6125cb915060203d81116125d1575b6125c38183610406565b81019061225b565b3861251a565b503d6125b9565b6125e56103866103869290565b6001600160601b031690565b906125fe61048083610c7c565b918252565b61260d600f6125f1565b6e0436173696d6972563155706b65657608c1b602082015290565b610386612603565b369037565b906103a461264b612645846125f1565b93610c7c565b601f190160208401612630565b61038661010061042c565b906103a090610a42565b61037d6103866103869290565b905051906103a482610501565b90602082820312610353576103869161267a565b906103869060e08061273061271e6126d86126c6610100870160008a015188820360008a01526122ef565b602089015187820360208901526122ef565b6126ea60408901516040880190610a4e565b60608881015163ffffffff169087015261270c60808901516080880190610a4e565b60a088015186820360a08801526122ef565b60c087015185820360c08701526122ef565b9401516001600160601b0316910152565b60208082526103869291019061269b565b916127609192612360615b7c565b90612794602063095ea7b361211b7f0000000000000000000000000000000000000000000000000000000000000000611364565b8252816000816127a8898960048401611fb6565b03925af1801561196f576129ed575b506127c26099611ae8565b906000916127d2611ad984611715565b03612935576308b79da46127e4612628565b926127ee81611715565b6127f781612635565b9061280260a36111c9565b61280b90611364565b90624c4b4061281930611364565b9061282383612635565b9261282d90612635565b936128378b6125d8565b95612840612658565b9a888c019061284c9152565b60208b015261285e9060408b01612663565b6128679061266d565b63ffffffff16606089015261287f9060808901612663565b60a087015260c08601526001600160601b031660e08501526040518080956128a8829560e01b90565b82526128b79060048301612741565b03915a94602095f1801561196f576128d991600091612907575b50609961172c565b61157e7f0fcf8c58921869521a957a8aa0ab16c4258af2b8c6557e8d9dbf3aab53c20805916106cb60405190565b612928915060203d811161292e575b6129208183610406565b810190612687565b386128d1565b503d612916565b5061295f7f0000000000000000000000000000000000000000000000000000000000000000611364565b63948108f761296e6099611ae8565b612977856125d8565b92803b156103535761299e8580946129ba61299160405190565b9788968795869460e01b90565b845260048401526001600160601b031660248301526044820190565b03925af1801561196f576129d0575b50506128d9565b816129e692903d106121f3576121e58183610406565b38806129c9565b612a049060203d811161221f576122128183610406565b6127b7565b612a11615b0f565b34612a23611be682611b45609e611ae8565b61157e7f431d08206b01e9b9077cabb8011b58a4646e8125f84c47b0f029eb1e38be2051916106cb60405190565b3d15612a6b57612a603d6125f1565b903d6000602084013e565b606090565b612a78615b0f565b612a85610386609e611ae8565b8111611d9a57612aa1611be682612a9c609e611ae8565b611ba1565b612ac060008033612ab160405190565b60009186905af1612456612a51565b61248d5761157e7ffe68a2fa247d7adc06c5700d6fab7708ce6f5e5aeab4e7882a1f3cfb16af12e3916106cb60405190565b6103869060301c61037d565b6103869054612af2565b63ffffffff1663ffffffff8114611b1e5760010190565b9063ffffffff60301b9060301b61133d565b90612b416103866113849261169f565b8254612b1f565b6103866801bc16d674ec800000611715565b81810292918115918404141715611b1e57565b91908083039260009091128015828513169184121617611b1e57565b600160ff1b8114611b1e5760000390565b612c2390612d48612d416103a496612c34612bf3612c2e612c23612c08612bf9612d4f9c612bc6615b9a565b612be2612bdb612bd66098612afe565b612b08565b6098612b31565b612bea612b48565b95868092612b5a565b97612b5a565b93612c0360b35490565b612b5a565b92612c28612c23612c198d8c611b08565b611e7c60a7611ae8565b611715565b93611b08565b90612b6d565b612d3c612cca612d07612cfa612c23612c56612c5060a5611ae8565b87612b6d565b9b6000809d612c6482611715565b811315612dd457612c77612c7d91611715565b91611715565b881315612d8c57612c8d90615adc565b612cb961193a612caf612ca060a9611ae8565b84612ca9615297565b91612eb3565b611b4560a9611ae8565b612cd1612cca82611b4560a4611ae8565b60a461172c565b612ced600080516020615dd1833981519152916106cb60405190565b0390a1611e7c60a7611ae8565b612c2e612c2360a6611ae8565b93612d118a611715565b8513612d70575b612d32612cca612d2860a6611ae8565b612a9c60a4611ae8565b611b4560a4611ae8565b612b6d565b60a561172c565b609a61172c565b612d5a8160a661172c565b612d658160a761172c565b611ed581609b61172c565b612d87612cca612d28612d8288611715565b615adc565b612d18565b612d9f61193a612caf612ca060a9611ae8565b612db0612cca82611b4560a4611ae8565b612dcc600080516020615dd1833981519152916106cb60405190565b0390a1612c19565b90612dde90611715565b8112612deb575b50612c19565b612c23612df791612b89565b612e1461193a612e0a612ca060a9611ae8565b612a9c60a9611ae8565b612e25612cca82612a9c60a4611ae8565b612e41600080516020615dd1833981519152916106cb60405190565b0390a138612de5565b634e487b7160e01b600052601260045260246000fd5b8115612e6a570490565b612e4a565b15612e7657565b60405162461bcd60e51b81526020600482015260156024820152744d6174683a206d756c446976206f766572666c6f7760581b6044820152606490fd5b919060009260001982820991808202928380821091030391600095612ed787611715565b8414612fc2579285612f3493612f4796936103869996612efe612ef78690565b8511612e6f565b5009908282119003910394612f11811990565b90612f2160019261091884611715565b8116908180928192049804950304010290565b1791612f47612f4b82612f476003611715565b0290565b612f7c612c77612fbc612fad612f9e612f8f612f80600297612f6c89611715565b18612f478b8202612f7c8b611715565b0390565b612f478a8202612f7c8a611715565b612f47898202612f7c89611715565b612f47888202612f7c88611715565b612f47878202612f7c87611715565b80950290565b505050506103869250612e60565b634e487b7160e01b600052603260045260246000fd5b906005811015612ff7576020020190565b612fd0565b613004615b9a565b60005b60058110156130c45761302761301d8284612fe6565b5163ffffffff1690565b906000916130348361266d565b63ffffffff8216146130be5761179e61179e611d406130549360ac611d13565b9163152111f792803b156103535761307a93829161307160405190565b95869260e01b90565b8252600490829084905af192831561196f5761309c936130a1575b5050611e28565b613007565b816130b792903d106121f3576121e58183610406565b3880613095565b50505050565b5050565b611a9f906130d4611cf2565b6131bb565b610386606061042c565b6103866103866103869263ffffffff1690565b8054821015612ff757613110600391600052602060002090565b91020190600090565b634e487b7160e01b600052600060045260246000fd5b6103869051610a42565b6103a49190611c309060409060029061315b816131558761312f565b9061136d565b61316d60018201611c30602088015190565b0192015190565b9190613183576103a491613139565b613119565b80549190600160401b83101561042757826131ab9160016103a4950181556130f6565b90613174565b8115612e6a570690565b336131ca6103868260a8611b89565b6131d382615269565b81906131df908261172c565b6131e881611ae8565b8411611d9a5761320861321592600161320160a9611ae8565b910161172c565b611c3084612a9c83611ae8565b6132206103866152e4565b821161328b57906103a49161323861038660b0611ae8565b82116132545761324f611ea883612a9c60b0611ae8565b615453565b61324f61328461326d61326760b0611ae8565b85611ba1565b61327a611ea86000611715565b612a9c60af611ae8565b60af61172c565b6132d060ab61329a6098612afe565b906132cb6132c46132a96130d9565b936132b48786612663565b6132bf886020870152565b6130e3565b6040840152565b613188565b6132e86132e183611b45609d611ae8565b609d61172c565b6132ff6132f8611ed060aa611ae8565b60aa61172c565b613309609f611ae8565b61331b613314612b48565b8092612b5a565b613325609d611ae8565b811061335b575b5050611c76611c6c7f6d92f7d3303f995bf21956bb0c51b388bae348eaf45c23debd2cfa3fcd9ec64692611364565b8161338e6133796133a79461337485612a9c609d611ae8565b612e60565b916133898394612a9c609d611ae8565b6131b1565b61339b611ad96000611715565b116133ae575b506154a2565b388061332c565b6133b89150611e28565b386133a1565b6103a4906130c8565b8015611b1e576000190190565b906103a46132c460026133e56130d9565b946133f86133f2826111c9565b87612663565b61340e61340760018301611ae8565b6020880152565b01611ae8565b610386906133d4565b613425615b9a565b60009182915b60009061343782611715565b81111561357357613447906133c7565b9360ab91613453835490565b61345f611ad983611715565b1461355a5761347761347182856130f6565b50613414565b92613483604085015190565b613493611ad96132bf6098612afe565b116134ee576134dc6134e793926134bc6134ad6134e19490565b6134b683611715565b90615d44565b6134d56134cf6020880195611e7c875190565b98611e28565b950161312f565b915190565b90615453565b919261342b565b50506132f89294506103a49391506132e1613532915b61351161038660b0611ae8565b811161353c57613528611ea882612a9c60b0611ae8565b612a9c609d611ae8565b612a9c60aa611ae8565b61355561328461326d61354f60b0611ae8565b84611ba1565b613528565b506132f89294506103a49391506132e161353291613504565b5050916103a4916135326132e16132f893613504565b8054919291831015612ff75760086135a8600492600052602060002090565b8185040193060290565b9190600861133d910291611dc063ffffffff841b90565b91906135da6103866113849361169f565b9083546135b2565b80549190600160401b83101561042757826136059160016103a495018155613589565b906135c9565b9061361a61093561092b845190565b9060005b81811061362b5750505090565b90919261363e6109696001928651611fd5565b92910161361e565b9490613685613694916136a1956136786103869a989661366e60c08c019460008d0190610a4e565b60208b0190610a4e565b88820360408a015261360b565b63ffffffff9093166060870152565b84820360808601526122ef565b9160a08184039101526122ef565b9081526060602082018190526103869391926136cd918401906122ef565b9160408184039101526122ef565b906136e4825190565b811015612ff7576020809102010190565b6103869051610514565b9160206103a492949361371a6040820196600083019061064a565b019063ffffffff169052565b959493929095613734615b7c565b60b19661373f885490565b9560009661374f611ad989611715565b146139e8576137cc9061378461377561377161376b8b8e613589565b90610389565b9b90565b61377e8a611715565b90615bf8565b6137948a60b26135e2565b6135e2565b73__$9b59661500862860ed33a22dd071583f74$__637bb561fb60206137bd61179e60a16111c9565b63b1aea1cd906117b260405190565b825260049082905afa92831561196f578c956020956000956139bd575b5061381892916138239161380061179e60a26111c9565b988d61380b60405190565b9a8b998a98899860e01b90565b885260048801613646565b03915af4801561196f5761179e611d408a61179e9361385a9560009161399f575b50611e8d60ac916138558484611d13565b61136d565b63679a394192613868612b48565b823b1561035357879461388c6138819361242860405190565b8552600485016136af565b03925af1801561196f57613983575b5060005b6138aa610386835190565b811015613944576138be61179e60a26111c9565b90634b2ead2f6138d66138d183866136db565b6136f5565b833b156103535787936138fe8780946139096138f160405190565b9889968795869460e01b90565b8452600484016136ff565b03925af191821561196f5761392392613928575b50611e28565b61389f565b61393e90853d87116121f3576121e58183610406565b3861391d565b505050906139727ffd87813c1a6fbf36da272fa38d639260c3bdba9940eb8c1e85aaa8a0fb5684979161169f565b9061397c60405190565b8080611c76565b61399990833d85116121f3576121e58183610406565b3861389b565b6139b7915060203d81116119685761195a8183610406565b38613844565b613823919550916139de6138189493883d81116119685761195a8183610406565b95915091926137e9565b6040516396beb5c960e01b8152600490fd5b90929192613a0a610480826106d8565b938185526020808601920283019281841161035357915b838310613a2e5750505050565b60208091613a3c848661224e565b815201920191613a21565b9080601f83011215610353578151610386926020016139fa565b90929192613a7161048082610c7c565b93818552602085019082840111610353576103a4926122cc565b9080601f8301121561035357815161038692602001613a61565b6006111561035357565b905051906103a482613aa5565b91909160808184031261035357613ad3608061042c565b81519093906001600160401b0381116103535781613af2918401613a47565b845260208201516001600160401b0381116103535781613b13918401613a8b565b60208501526040820151906001600160401b03821161035357613b3b816105b6938501613a8b565b60408601526060809301613aaf565b906020828203126103535781516001600160401b038111610353576103869201613abc565b634e487b7160e01b600052602160045260246000fd5b60061115613b8f57565b613b6f565b906103a482613b85565b6103869051613b94565b61038690613b94565b6103a090613ba8565b6020810192916103a49190613bb1565b90613c116103a495979694613c03608095613bf56120a09561012088019088820360008a01526122ef565b908682036020880152611fe2565b9084820360408601526122ef565b966060830152565b919290613c24615b7c565b60b291613c3461376b8585613589565b95613c4961179e61179e611d408a60ac611d13565b90635bfb8ff296613c63613c5c60405190565b9860e01b90565b8852600088600481865afa97881561196f57600098613e7c575b50613c8a60608901613b9e565b613c9d613c976001613b94565b91613b94565b03613e6a57613cb9613cb2611ed0609b611ae8565b609b61172c565b632e49d78b6002843b1561035357613cf394613ce860008094613cdb60405190565b9889958694859360e01b90565b835260048301613bba565b03925af192831561196f57613d3193613e54575b506123897f0000000000000000000000000000000000000000000000000000000000000000611364565b90613d65602063095ea7b361211b7f0000000000000000000000000000000000000000000000000000000000000000611364565b825281600081613d79898960048401611fb6565b03925af1801561196f57613e38575b50602086015186516040909701519390926306e8fb9c833b1561035357613dd3613dc893600097938894613dbb60405190565b9c8d998a98899760e01b90565b875260048701613bca565b03925af190811561196f57613df393613dee92613e28575090565b615bf8565b613dfe8160b36135e2565b6139727fe5ccad2f38056904cfa0cbb4a05b39f62f112c23f909af977745060cb6f632fb9161169f565b6103869060006121e58183610406565b613e4f9060203d811161221f576122128183610406565b613d88565b613e649060006121e58183610406565b38613d07565b604051631606491160e01b8152600490fd5b613e9891983d8091833e613e908183610406565b810190613b4a565b9638613c7d565b906020828203126103535761038691613aaf565b906020828203126103535781516001600160401b038111610353576103869201613a8b565b906020828203126103535781516001600160401b038111610353576103869201613a47565b939290613f2d6103a493613f1f60409360e089019089820360008b01526122ef565b908782036020890152611fe2565b94019061201d565b602080825261038692910190611fe2565b6103a090611715565b604090613f7c6103a49496959396613f6f6060840198600085019061064a565b63ffffffff166020830152565b0190613f46565b98949592979690939196613f95615b7c565b613fa961179e61179e611d408d60ac611d13565b9663200d2ed296613fbc613c5c60405190565b88526020886004818c5afa97881561196f57600098614475575b50600297613fe389613b94565b613fec82613b94565b1415908161445e575b5061444c5763fd0d7a0d9761401361400c60405190565b9960e01b90565b89526020896004818d5afa98891561196f57600099614428575b5061403790611715565b881015614416576363ffab319361405761405060405190565b9560e01b90565b85526000856004818d5afa94851561196f576000956143ed575b50906140a8916140a07f0000000000000000000000000000000000000000000000000000000000000000611364565b948591615761565b946140e6602063095ea7b36140dc7f0000000000000000000000000000000000000000000000000000000000000000611364565b9561212560405190565b8252816000816140fa8d8b60048401611fb6565b03925af1801561196f576143d1575b506312b3fc1963e1d95a2e9161412861412160405190565b9360e01b90565b83526000836004818e5afa92831561196f576000936143ae575b50843b15610353576000916141746141689261415d60405190565b958694859460e01b90565b84528960048501613efd565b038183875af1801561196f57614398575b506306e8fb9c94823b156103535786956141b8613dc8936000979388946141ab60405190565b9a8b998a98899760e01b90565b03925af1801561196f57614382575b5063c678112f833b15610353576141f16000916141fc6141e660405190565b948593849360e01b90565b835260048301613f35565b038183875af1801561196f5761436c575b5061422163a936938b91611e7c6001611715565b823b1561035357614257926142496000809461423c60405190565b9687958694859360e01b90565b835260048301526024820190565b03925af1801561196f57614356575b5061427461179e60a26111c9565b637eb0ad92600093823b156103535785926142988680946142a38261242860405190565b855260048501613f4f565b03925af1801561196f5761433a575b506142c061179e60a26111c9565b90634b2ead2f90823b156103535784926138fe8580946142e261299160405190565b03925af1801561196f5761431d575b50506139727f937d237e9f5ed76027995e9f9d7d8096014e47129d95090d0295632abcbcd3539161169f565b8161433392903d106121f3576121e58183610406565b38806142f1565b61435090833d85116121f3576121e58183610406565b386142b2565b6143669060006121e58183610406565b38614266565b61437c9060006121e58183610406565b3861420d565b6143929060006121e58183610406565b386141c7565b6143a89060006121e58183610406565b38614185565b6143ca91933d8091833e6143c28183610406565b810190613ed8565b9138614142565b6143e89060203d811161221f576122128183610406565b614109565b61440e906140a89392963d8091833e6144068183610406565b810190613eb3565b949091614071565b60405163dc4c424f60e01b8152600490fd5b6140379199506144459060203d811161292e576129208183610406565b989061402d565b6040516338c0a90160e11b8152600490fd5b905061446d613c976001613b94565b141538613ff5565b61449791985060203d811161449e575b61448f8183610406565b810190613e9f565b9638613fd6565b503d614485565b906144ae615b7c565b6000809281935b6144c0610386835190565b8510156145ef576144e761179e61179e611d406144e061301d8a886136db565b60ac611d13565b9463200d2ed2956145016144fa60405190565b9760e01b90565b8752602087600481845afa96871561196f576000976145cf575b5060039261452884613b94565b61453189613b94565b146145bd5761453f90611e28565b9660049061454f613c9783613b94565b146145ad575b632e49d78b91803b15610353576145756000809461457e6138f160405190565b84528301613bba565b03925af191821561196f576145979261459d5750611e28565b936144b5565b61393e9060006121e58183610406565b946145b790611e28565b94614555565b604051635fb43e8760e01b8152600490fd5b6145e891975060203d811161449e5761448f8183610406565b953861451b565b61461c919394509161461261460b61462394611b4560b4611ae8565b60b461172c565b612a9c609f611ae8565b609f61172c565b61157e7f7f037f10f2d12027cdd5ec1d95fcd86f448b31edc2eacea6e91997ce20d1d6bc916109a860405190565b909161465b615b7c565b60b39161466b61376b8285613589565b9361468061179e61179e611d408860ac611d13565b9363200d2ed29061469a61469360405190565b9260e01b90565b8252602082600481895afa91821561196f57600092614907575b506003936146c185613b94565b6146ca84613b94565b1415806148ec575b6148da576146df91615bf8565b6004926146eb84613b94565b6146f483613b94565b036148b457505061471061461c61470b609f611ae8565b6133c7565b631b3bb8f0843b156103535761472e6000916147386141e660405190565b8352868301610978565b038183885af1801561196f5761489e575b506147737f0000000000000000000000000000000000000000000000000000000000000000611364565b6312b3fc19926363ffab319461479261478b60405190565b9660e01b90565b8652600086808681010381845afa95861561196f5760009661487a575b509060006147cf9263e1d95a2e906147c660405190565b94859260e01b90565b8252818088810103915afa91821561196f5760009261485f575b50823b156103535760009461480f86926148069461217e60405190565b86528501613efd565b03925af1801561196f57614849575b506139727f4ab3ec53a27d9876941ac7b3ddc5c26553f8e08c95669c555c4c5eb9b32fe8119161169f565b6148599060006121e58183610406565b3861481e565b61487391923d8091833e6143c28183610406565b90386147e9565b6148956000916147cf9493983d8091833e6144068183610406565b969192506147af565b6148ae9060006121e58183610406565b38614749565b613c976148c091613b94565b03614710576148d561460b61470b60b4611ae8565b614710565b60405163819faccb60e01b8152600490fd5b506148f76004613b94565b61490084613b94565b14156146d2565b61492091925060203d811161449e5761448f8183610406565b90386146b4565b6040906120a06149496103a49597969460e08401908482036000860152611fe2565b966020830152565b614959615b7c565b6149827f0000000000000000000000000000000000000000000000000000000000000000611364565b63686e682c813b156103535760006149a2916149ad829661242860405190565b855260048501614927565b03925af1801561196f576149be5750565b6103a49060006121e58183610406565b6149d6615b0f565b6149ff7f0000000000000000000000000000000000000000000000000000000000000000611364565b63d7ae1d30614a0e6098612232565b614a1730611364565b92803b156103535761256560008094614a3261299160405190565b03925af1801561196f57614a87575b50614a56614a4f600061223c565b6098612293565b7f6b6c11b597b6280a8925efd3043303f85d2b0fd2d0649a0b55219d21be6c686c614a8060405190565b808061157e565b614a979060006121e58183610406565b38614a41565b614aa5615b0f565b614ace7f0000000000000000000000000000000000000000000000000000000000000000611364565b63c8048022614add6099611ae8565b823b1561035357614af8926142496000809461423c60405190565b03925af1801561196f57614b46575b50614b1c614b156000611715565b609961172c565b7f9c0083a2c5746d47affaeaa2eb47bb2172826857ed6844c653cf424920494059614a8060405190565b614b569060006121e58183610406565b38614b07565b614b64615b0f565b806020614b907f0000000000000000000000000000000000000000000000000000000000000000611364565b63a9059cbb90614ba960003393614bb461299160405190565b845260048401611fb6565b03925af1801561196f57614bce9160009161249f57501590565b61248d5761157e7f37c81379344c24e4d4cb765f311177d8b7c1a1ed36e11c35dbe5c07c01459065916106cb60405190565b614c08615b0f565b614c3381337f0000000000000000000000000000000000000000000000000000000000000000614c87565b61157e7f1c818f4d038e3fd663d4e26128f71c0cb0ca12dbc5fc1915b210e151a051e9ed916106cb60405190565b614c7a614c746103869263ffffffff1690565b60e01b90565b6001600160e01b03191690565b614cca600492614cbb6103a495614ca163a9059cbb614c61565b92614cab60405190565b9687946020860190815201611fb6565b60208201810382520383610406565b614d69565b614cd960206125f1565b7f5361666545524332303a206c6f772d6c6576656c2063616c6c206661696c6564602082015290565b610386614ccf565b15614d1157565b60405162461bcd60e51b815260206004820152602a60248201527f5361666545524332303a204552433230206f7065726174696f6e20646964206e6044820152691bdd081cdd58d8d9595960b21b6064820152608490fd5b6103a491614d79614d8892611364565b90614d82614d02565b91614dc6565b8051614d97611ad96000611715565b14908115614da6575b50614d0a565b614dc091506020614db5825190565b818301019101611fa2565b38614da0565b6103869291614dd56000611715565b91614e36565b15614de257565b60405162461bcd60e51b815260206004820152602660248201527f416464726573733a20696e73756666696369656e742062616c616e636520666f6044820152651c8818d85b1b60d21b6064820152608490fd5b90600061038694938192614e48606090565b50614e5f614e5530611364565b8390311015614ddb565b60208101905191855af1614e71612a51565b91614ec3565b15614e7e57565b60405162461bcd60e51b815260206004820152601d60248201527f416464726573733a2063616c6c20746f206e6f6e2d636f6e74726163740000006044820152606490fd5b91929015614ef557508151614edb611ad96000611715565b14614ee4575090565b614ef061038691611acb565b614e77565b82614f0c565b6020808252610386929101906122ef565b90614f15825190565b614f22611ad96000611715565b1115614f315750805190602001fd5b61126d90614f3e60405190565b62461bcd60e51b815291829160048301614efb565b9190600092614f6260aa611ae8565b8110614f6c575050565b614f8d91929350611b0f6002614f86611ad99360ab6130f6565b5001611ae8565b111590565b6103869061037d565b6103869060201c61037d565b6103869060401c61037d565b6103869060601c61037d565b6103869060801c61037d565b6103869060a01c61037d565b6103869060c01c61037d565b6103869060e01c61037d565b9060019061500d61500161092b855490565b93600052602060002090565b600092615158575b615020565b50505090565b549080831061513b575b80831061511e575b808310615101575b8083106150e4575b8083106150c7575b8083106150aa575b80831061508d575b8210615067575b8061501a565b826150846001939461507a602094614fe3565b63ffffffff169052565b01910138615061565b91926020816150a160019361507a86614fd7565b0193019161505a565b91926020816150be60019361507a86614fcb565b01930191615052565b91926020816150db60019361507a86614fbf565b0193019161504a565b91926020816150f860019361507a86614fb3565b01930191615042565b919260208161511560019361507a86614fa7565b0193019161503a565b919260208161513260019361507a86614f9b565b01930191615032565b919260208161514f60019361507a86614f92565b0193019161502a565b6007830182111561501557926001602061507a6151e5600894838080808080808f54976151888161507a8b614f92565b016151968161507a8a614f9b565b016151a48161507a89614fa7565b016151b28161507a88614fb3565b016151c08161507a87614fbf565b016151ce8161507a86614fcb565b016151dc8161507a85614fd7565b01928391614fe3565b019401920191615158565b9061038691614fef565b906103a46152149261520b60405190565b938480926151f0565b0383610406565b610386906151fa565b61038660b261521b565b61038660b361521b565b611d4061038691615247600090565b5060ac611d13565b61038661179e60a26111c9565b61038661179e60a36111c9565b6103869060a8612ca9600161340e615286600061340e8787611b89565b9461529160a9611ae8565b94611b89565b6103866152af6152a56152bf565b611e7c60a4611ae8565b6152b9609d611ae8565b90611ba1565b6103866152ca6152e4565b611e7c6152d660b15490565b6152de612b48565b90612b5a565b6103866152f160af611ae8565b611e7c60b0611ae8565b615308612d8260ad611ae8565b61531c611be6611bdc83612a9c60ad611ae8565b615329611b4a6000611715565b61533281615393565b61157e7ff8658710ce7e8a4a5b7a98ce1af4f298996ad35241a321612e5d55e88b04e753916106cb60405190565b6103869054614fcb565b9063ffffffff60a01b9060a01b61133d565b9061538c6103866113849261169f565b825461536a565b60009061539f82611715565b8111156130c4576153bb6153b1612b48565b6152b960af611ae8565b818111156153de575090612c236132846153d993611b4560af611ae8565b615393565b90612a9c6132846153ee94611715565b61540c60b1615400612bd660a3615360565b9061378f8260a361537c565b61541660a3615360565b6154407fda5acf35c9387ee83e9a4857bd17ce23ee4667fa24fcc9e145cf641f477a4f369161169f565b9061544a60405190565b600090a2615393565b61547160008061546260405190565b60009086865af1612456612a51565b61248d57611c76611c6c7fcfe0964cf042360e70a85e0fa4d30400a09a6c1f1dbe998bef3bdbbb1ba1198492611364565b906000906154af82611715565b905b6154ba83611715565b841115615629576154cf61376b8360b3613589565b6154e361179e61179e611d408460ac611d13565b9063200d2ed26154f56124f560405190565b8152602081600481865afa90811561196f5760009161560b575b5061551a6001613b94565b61552382613b94565b149081156155f5575b50615539575b50506154b1565b90929461554861554e916133c7565b95611e28565b92632e49d78b6004823b156103535761557a9261557088809461423c60405190565b8352808301613bba565b03925af1801561196f576155d9575b5061559a61461c611ed0609f611ae8565b6155c47f22f0bbd39772e68a16caa935d437e997aea4854e3db82046a9edf222c00653459161169f565b906155ce60405190565b600090a23880615532565b6155ef90853d87116121f3576121e58183610406565b38615589565b9050615604613c976002613b94565b143861552c565b615623915060203d811161449e5761448f8183610406565b3861550f565b92505050565b61563c6103866103869290565b62ffffff1690565b610386610bb861562f565b6040906156796103a4949695939661566f60608401986000850190610a4e565b6020830190610a4e565b019062ffffff169052565b6001600160801b03811661045c565b905051906103a482615684565b906020828203126103535761038691615693565b6103869081906001600160801b031681565b9060e0806103a4936156e060008201516000860190610a4e565b6156f260208201516020860190610a4e565b60408181015162ffffff169085015261571360608201516060860190610a4e565b61572260808201516080860152565b61573160a082015160a0860152565b61574060c082015160c0860152565b01516001600160a01b0316910152565b610100810192916103a491906156c6565b91909261576c600090565b50156157785750905090565b615789611be683612a9c609e611ae8565b6157b27f0000000000000000000000000000000000000000000000000000000000000000611364565b9263d0e30db0843b15610353576157cb6124f560405190565b815260008160048187895af1801561196f57615aa3575b5063095ea7b3926158127f0000000000000000000000000000000000000000000000000000000000000000611364565b936370a0823161582130611364565b9161582e61469360405190565b8252602082806158418660048301610a57565b03818b5afa91821561196f57600092615a7d575b506158686020916158746141e660405190565b83528a60048401611fb6565b038160008b5af1801561196f57615a61575b506158b07f0000000000000000000000000000000000000000000000000000000000000000611364565b9084602088631698ee82946158e16158c6615644565b966158ec886158d460405190565b9788968795869560e01b90565b85526004850161564f565b03915afa90811561196f5761591161179e61592093602093600091615a4a5750611364565b631a6865029061212560405190565b825260049082905afa90811561196f57600091615a1c575b5061594384916156b4565b10615a0a574291600095615955612658565b9861596290888b01612663565b61596f9060208a01612663565b62ffffff1660408801526159869060608801612663565b608086015260a085015260c084015261599e816111ed565b6001600160a01b031660e084015263414bf389906159bb60405190565b8080956159c9829560e01b90565b82526159d89060048301615750565b03915a94602095f190811561196f576000916159f2575090565b610386915060203d811161292e576129208183610406565b60405163bb55fd2760e01b8152600490fd5b615a3d915060203d8111615a43575b615a358183610406565b8101906156a0565b38615938565b503d615a2b565b6119629150843d81116119685761195a8183610406565b615a789060203d811161221f576122128183610406565b615886565b6020919250615a9b61586891833d811161292e576129208183610406565b929150615855565b615ab39060006121e58183610406565b386157e2565b6103869054614f92565b63ffffffff9081169116019063ffffffff8211611b1e57565b610386906064612ca9615b09615b03615af56098615ab9565b615afe8561266d565b615ac3565b92611715565b916130e3565b33615b316020615b2261179e60a16111c9565b63893d20e89061212560405190565b825260049082905afa90811561196f57615b579161128d91600091615b5e575b50610a42565b03611f8457565b615b76915060203d81116119685761195a8183610406565b38615b51565b33615b5761128d61128860a06111c9565b615b5761128d3392610a42565b33615b5761128d61128861179e60a36111c9565b634e487b7160e01b600052603160045260246000fd5b6103a4916000916135c9565b80548015615bf3576000190190615bf0615bea8383613589565b90615bc4565b55565b615bae565b90615c01825490565b615c0e611ad96000611715565b14615c9257615c1e610386835490565b811015615c80575b8154615c3a6103866001926152b984611715565b821015615c755790611ed0615c6661376b615c60615c5a615c7096611715565b85611b08565b86613589565b6136058386613589565b615c26565b50506103a490615bd0565b604051634e23d03560e01b8152600490fd5b60405163521299a960e01b8152600490fd5b90808203615cb0575050565b6103a491611c30906002908190615cca81613155876111c9565b615cdd60018201611c3060018801611ae8565b019201611ae8565b9190613183576103a491615ca4565b60008082556103a491600290615d0d8360018301611dde565b01611dde565b90600003613183576103a490615cf4565b80548015615bf3576000190190615bf0615d3e83836130f6565b90615d13565b90615d4d825490565b615d5a611ad96000611715565b14615c9257615d6a610386835490565b811015615c80575b8154615d866103866001926152b984611715565b821015615dc55790611ed0615daf615da9615da3615dc095611715565b84611b08565b856130f6565b50615dba83866130f6565b90615ce5565b615d72565b50506103a490615d2456fe98272bf4346d2df18cd71298e274359d2bdc8caa09a958b3055156f211d897e4a2646970667358221220d5ae66ef52dc5f46afd2e584d7e4d3043983c6692afc6ff0cbb679c8b723b80e64736f6c63430008120033",
  "linkReferences": {
    "src/v1/libraries/CasimirBeacon.sol": {
      "CasimirBeacon": [
        {
          "length": 20,
          "start": 7238
        },
        {
          "length": 20,
          "start": 15460
        }
      ]
    }
  },
  "deployedLinkReferences": {
    "src/v1/libraries/CasimirBeacon.sol": {
      "CasimirBeacon": [
        {
          "length": 20,
          "start": 6008
        },
        {
          "length": 20,
          "start": 14230
        }
      ]
    }
  }
}