{
  "_format": "hh-sol-artifact-1",
  "contractName": "PoolManager",
  "sourceName": "src/PoolManager.sol",
  "abi": [
    {
      "inputs": [],
      "stateMutability": "nonpayable",
      "type": "constructor"
    },
    {
      "inputs": [],
      "name": "depositContract",
      "outputs": [
        {
          "internalType": "contract IDepositContract",
          "name": "",
          "type": "address"
        }
      ],
      "stateMutability": "view",
      "type": "function"
    },
    {
      "inputs": [],
      "name": "depositContractAddress",
      "outputs": [
        {
          "internalType": "address",
          "name": "",
          "type": "address"
        }
      ],
      "stateMutability": "view",
      "type": "function"
    }
  ],
  "bytecode": "0x60806040526f219ab540356cbb839cbe05303d7705fa6000806101000a81548173ffffffffffffffffffffffffffffffffffffffff021916908373ffffffffffffffffffffffffffffffffffffffff16021790555060008054906101000a900473ffffffffffffffffffffffffffffffffffffffff16600160006101000a81548173ffffffffffffffffffffffffffffffffffffffff021916908373ffffffffffffffffffffffffffffffffffffffff1602179055503480156100c157600080fd5b5061012d6040518060400160405280601981526020017f4465706f73697420636f6e747261637420616464726573733a00000000000000815250600160009054906101000a900473ffffffffffffffffffffffffffffffffffffffff1661013260201b6100c11760201c565b6102fe565b6101d082826040516024016101489291906102ce565b6040516020818303038152906040527f319af333000000000000000000000000000000000000000000000000000000007bffffffffffffffffffffffffffffffffffffffffffffffffffffffff19166020820180517bffffffffffffffffffffffffffffffffffffffffffffffffffffffff83818316178352505050506101d460201b60201c565b5050565b60008151905060006a636f6e736f6c652e6c6f679050602083016000808483855afa5050505050565b600081519050919050565b600082825260208201905092915050565b60005b8381101561023757808201518184015260208101905061021c565b60008484015250505050565b6000601f19601f8301169050919050565b600061025f826101fd565b6102698185610208565b9350610279818560208601610219565b61028281610243565b840191505092915050565b600073ffffffffffffffffffffffffffffffffffffffff82169050919050565b60006102b88261028d565b9050919050565b6102c8816102ad565b82525050565b600060408201905081810360008301526102e88185610254565b90506102f760208301846102bf565b9392505050565b6103528061030d6000396000f3fe608060405234801561001057600080fd5b50600436106100365760003560e01c80632a4dbd2b1461003b578063e94ad65b14610059575b600080fd5b610043610077565b60405161005091906101c7565b60405180910390f35b61006161009b565b60405161006e9190610241565b60405180910390f35b60008054906101000a900473ffffffffffffffffffffffffffffffffffffffff1681565b600160009054906101000a900473ffffffffffffffffffffffffffffffffffffffff1681565b61015982826040516024016100d79291906102ec565b6040516020818303038152906040527f319af333000000000000000000000000000000000000000000000000000000007bffffffffffffffffffffffffffffffffffffffffffffffffffffffff19166020820180517bffffffffffffffffffffffffffffffffffffffffffffffffffffffff838183161783525050505061015d565b5050565b60008151905060006a636f6e736f6c652e6c6f679050602083016000808483855afa5050505050565b600073ffffffffffffffffffffffffffffffffffffffff82169050919050565b60006101b182610186565b9050919050565b6101c1816101a6565b82525050565b60006020820190506101dc60008301846101b8565b92915050565b6000819050919050565b60006102076102026101fd84610186565b6101e2565b610186565b9050919050565b6000610219826101ec565b9050919050565b600061022b8261020e565b9050919050565b61023b81610220565b82525050565b60006020820190506102566000830184610232565b92915050565b600081519050919050565b600082825260208201905092915050565b60005b8381101561029657808201518184015260208101905061027b565b60008484015250505050565b6000601f19601f8301169050919050565b60006102be8261025c565b6102c88185610267565b93506102d8818560208601610278565b6102e1816102a2565b840191505092915050565b6000604082019050818103600083015261030681856102b3565b905061031560208301846101b8565b939250505056fea2646970667358221220b7027354c9430df8cc3957e680e326d0f87567340ad018e6432df17e4a8be25264736f6c63430008110033",
  "linkReferences": {},
  "deployedLinkReferences": {}
}