{
  "_format": "hh-sol-artifact-1",
  "contractName": "PoolManager",
  "sourceName": "src/PoolManager.sol",
  "abi": [
    {
      "inputs": [
        {
          "internalType": "address",
          "name": "depositContractAddress",
          "type": "address"
        }
      ],
      "stateMutability": "nonpayable",
      "type": "constructor"
    },
    {
      "anonymous": false,
      "inputs": [
        {
          "indexed": false,
          "internalType": "address",
          "name": "userAddress",
          "type": "address"
        },
        {
          "indexed": false,
          "internalType": "uint256",
          "name": "stakedAmount",
          "type": "uint256"
        }
      ],
      "name": "Stake",
      "type": "event"
    },
    {
      "inputs": [],
      "name": "depositContract",
      "outputs": [
        {
          "internalType": "contract IDepositContract",
          "name": "",
          "type": "address"
        }
      ],
      "stateMutability": "view",
      "type": "function"
    },
    {
      "inputs": [],
      "name": "depositThreshold",
      "outputs": [
        {
          "internalType": "uint256",
          "name": "",
          "type": "uint256"
        }
      ],
      "stateMutability": "view",
      "type": "function"
    },
    {
      "inputs": [],
      "name": "stake",
      "outputs": [],
      "stateMutability": "payable",
      "type": "function"
    },
    {
      "inputs": [
        {
          "internalType": "address",
          "name": "",
          "type": "address"
        }
      ],
      "name": "userBalances",
      "outputs": [
        {
          "internalType": "uint256",
          "name": "",
          "type": "uint256"
        }
      ],
      "stateMutability": "view",
      "type": "function"
    }
  ],
  "bytecode": "0x608060405234801561001057600080fd5b506040516104e13803806104e1833981810160405281019061003291906100db565b806000806101000a81548173ffffffffffffffffffffffffffffffffffffffff021916908373ffffffffffffffffffffffffffffffffffffffff16021790555050610108565b600080fd5b600073ffffffffffffffffffffffffffffffffffffffff82169050919050565b60006100a88261007d565b9050919050565b6100b88161009d565b81146100c357600080fd5b50565b6000815190506100d5816100af565b92915050565b6000602082840312156100f1576100f0610078565b5b60006100ff848285016100c6565b91505092915050565b6103ca806101176000396000f3fe60806040526004361061003f5760003560e01c806326224c64146100445780633a4b66f114610081578063734daaa11461008b578063e94ad65b146100b6575b600080fd5b34801561005057600080fd5b5061006b6004803603810190610066919061021e565b6100e1565b6040516100789190610264565b60405180910390f35b6100896100f9565b005b34801561009757600080fd5b506100a061018a565b6040516100ad9190610264565b60405180910390f35b3480156100c257600080fd5b506100cb610197565b6040516100d891906102de565b60405180910390f35b60016020528060005260406000206000915090505481565b7febedb8b3c678666e7f36970bc8f57abf6d8fa2e828c0da91ea5b75bf68ed101a333460405161012a929190610308565b60405180910390a134600160003373ffffffffffffffffffffffffffffffffffffffff1673ffffffffffffffffffffffffffffffffffffffff16815260200190815260200160002060008282546101819190610360565b92505081905550565b6801bc16d674ec80000081565b60008054906101000a900473ffffffffffffffffffffffffffffffffffffffff1681565b600080fd5b600073ffffffffffffffffffffffffffffffffffffffff82169050919050565b60006101eb826101c0565b9050919050565b6101fb816101e0565b811461020657600080fd5b50565b600081359050610218816101f2565b92915050565b600060208284031215610234576102336101bb565b5b600061024284828501610209565b91505092915050565b6000819050919050565b61025e8161024b565b82525050565b60006020820190506102796000830184610255565b92915050565b6000819050919050565b60006102a461029f61029a846101c0565b61027f565b6101c0565b9050919050565b60006102b682610289565b9050919050565b60006102c8826102ab565b9050919050565b6102d8816102bd565b82525050565b60006020820190506102f360008301846102cf565b92915050565b610302816101e0565b82525050565b600060408201905061031d60008301856102f9565b61032a6020830184610255565b9392505050565b7f4e487b7100000000000000000000000000000000000000000000000000000000600052601160045260246000fd5b600061036b8261024b565b91506103768361024b565b925082820190508082111561038e5761038d610331565b5b9291505056fea2646970667358221220292f20906d6d17b807d39dc8935d4c5bb9d3796e6a778e53d0bb9b94a55df50664736f6c63430008110033",
  "linkReferences": {},
  "deployedLinkReferences": {}
}