{
  "_format": "hh-sol-artifact-1",
  "contractName": "SSVPool",
  "sourceName": "src/SSVPool.sol",
  "abi": [
    {
      "inputs": [],
      "stateMutability": "nonpayable",
      "type": "constructor"
    },
    {
      "inputs": [
        {
          "internalType": "address",
          "name": "userAddress",
          "type": "address"
        }
      ],
      "name": "deposit",
      "outputs": [],
      "stateMutability": "payable",
      "type": "function"
    },
    {
      "inputs": [],
      "name": "getBalance",
      "outputs": [
        {
          "internalType": "uint256",
          "name": "",
          "type": "uint256"
        }
      ],
      "stateMutability": "view",
      "type": "function"
    },
    {
      "inputs": [
        {
          "internalType": "address",
          "name": "userAddress",
          "type": "address"
        }
      ],
      "name": "getUserBalance",
      "outputs": [
        {
          "internalType": "uint256",
          "name": "",
          "type": "uint256"
        }
      ],
      "stateMutability": "view",
      "type": "function"
    }
  ],
  "bytecode": "0x608060405234801561001057600080fd5b506102c2806100206000396000f3fe6080604052600436106100345760003560e01c806312065fe0146100395780634773489214610064578063f340fa01146100a1575b600080fd5b34801561004557600080fd5b5061004e6100bd565b60405161005b919061017e565b60405180910390f35b34801561007057600080fd5b5061008b600480360381019061008691906101fc565b6100c5565b604051610098919061017e565b60405180910390f35b6100bb60048036038101906100b691906101fc565b61010d565b005b600047905090565b60008060008373ffffffffffffffffffffffffffffffffffffffff1673ffffffffffffffffffffffffffffffffffffffff168152602001908152602001600020549050919050565b346000808373ffffffffffffffffffffffffffffffffffffffff1673ffffffffffffffffffffffffffffffffffffffff168152602001908152602001600020600082825461015b9190610258565b9250508190555050565b6000819050919050565b61017881610165565b82525050565b6000602082019050610193600083018461016f565b92915050565b600080fd5b600073ffffffffffffffffffffffffffffffffffffffff82169050919050565b60006101c98261019e565b9050919050565b6101d9816101be565b81146101e457600080fd5b50565b6000813590506101f6816101d0565b92915050565b60006020828403121561021257610211610199565b5b6000610220848285016101e7565b91505092915050565b7f4e487b7100000000000000000000000000000000000000000000000000000000600052601160045260246000fd5b600061026382610165565b915061026e83610165565b925082820190508082111561028657610285610229565b5b9291505056fea264697066735822122064aaaeae330f38b8afe4c405c27ed0a23169ceaf4ae33f2a87db77d35f52fbd464736f6c63430008110033",
  "linkReferences": {},
  "deployedLinkReferences": {}
}