{
  "_format": "hh-sol-artifact-1",
  "contractName": "ConfirmedOwner",
  "sourceName": "@chainlink/contracts/src/v0.8/ConfirmedOwner.sol",
  "abi": [
    {
      "inputs": [
        {
          "internalType": "address",
          "name": "newOwner",
          "type": "address"
        }
      ],
      "stateMutability": "nonpayable",
      "type": "constructor"
    },
    {
      "anonymous": false,
      "inputs": [
        {
          "indexed": true,
          "internalType": "address",
          "name": "from",
          "type": "address"
        },
        {
          "indexed": true,
          "internalType": "address",
          "name": "to",
          "type": "address"
        }
      ],
      "name": "OwnershipTransferRequested",
      "type": "event"
    },
    {
      "anonymous": false,
      "inputs": [
        {
          "indexed": true,
          "internalType": "address",
          "name": "from",
          "type": "address"
        },
        {
          "indexed": true,
          "internalType": "address",
          "name": "to",
          "type": "address"
        }
      ],
      "name": "OwnershipTransferred",
      "type": "event"
    },
    {
      "inputs": [],
      "name": "acceptOwnership",
      "outputs": [],
      "stateMutability": "nonpayable",
      "type": "function"
    },
    {
      "inputs": [],
      "name": "owner",
      "outputs": [
        {
          "internalType": "address",
          "name": "",
          "type": "address"
        }
      ],
      "stateMutability": "view",
      "type": "function"
    },
    {
      "inputs": [
        {
          "internalType": "address",
          "name": "to",
          "type": "address"
        }
      ],
      "name": "transferOwnership",
      "outputs": [],
      "stateMutability": "nonpayable",
      "type": "function"
    }
  ],
  "bytecode": "0x60806040523462000030576200001e62000018620000d4565b62000112565b6040516103cb6200034382396103cb90f35b600080fd5b634e487b7160e01b600052604160045260246000fd5b90601f01601f191681019081106001600160401b038211176200006d57604052565b62000035565b906200008a6200008260405190565b92836200004b565b565b6001600160a01b031690565b90565b620000a6816200008c565b036200003057565b905051906200008a826200009b565b9060208282031262000030576200009891620000ae565b620000986200070e80380380620000eb8162000073565b928339810190620000bd565b6200008c62000098620000989290565b6200009890620000f7565b6200008a9062000123600062000107565b90620001e8565b60208082526018908201527f43616e6e6f7420736574206f776e657220746f207a65726f0000000000000000604082015260600190565b156200016957565b60405162461bcd60e51b81528062000184600482016200012a565b0390fd5b62000098906200008c906001600160a01b031682565b620000989062000188565b62000098906200019e565b90620001c862000098620001e492620001a9565b82546001600160a01b0319166001600160a01b03919091161790565b9055565b6200022e9062000228600091620001ff8362000107565b92620002226200020f856200008c565b6200021a846200008c565b141562000161565b620001b4565b6200008c565b62000239826200008c565b03620002425750565b6200008a90620002be565b60208082526017908201527f43616e6e6f74207472616e7366657220746f2073656c66000000000000000000604082015260600190565b156200028c57565b60405162461bcd60e51b81528062000184600482016200024d565b62000098906200008c565b620000989054620002a7565b620002e0620002cd336200008c565b620002d8836200008c565b141562000284565b620002ed816001620001b4565b620002f96000620002b2565b90620003316200032a7fed8889f560326eb138920d842192f0eb3dd22b4f139c87a2c57538e05bae127893620001a9565b91620001a9565b916200033c60405190565b600090a356fe6080604052600436101561001257600080fd5b60003560e01c806379ba5097146100425780638da5cb5b1461003d5763f2fde38b03610052576100fe565b6100a6565b610057565b600091031261005257565b600080fd5b3461005257610067366004610047565b61006f6101ef565b604051005b0390f35b6001600160a01b031690565b90565b61009090610078565b9052565b6020810192916100a49190610087565b565b34610052576100b6366004610047565b6100746100c1610281565b60405191829182610094565b6100d681610078565b0361005257565b905035906100a4826100cd565b9060208282031261005257610084916100dd565b346100525761006f6101113660046100ea565b61012b565b6100a490610122610375565b6100a4906102d1565b6100a490610116565b6100849054610078565b1561014557565b60405162461bcd60e51b815260206004820152601660248201527526bab9ba10313290383937b837b9b2b21037bbb732b960511b6044820152606490fd5b61008490610078906001600160a01b031682565b61008490610183565b61008490610197565b906101b96100846101d5926101a0565b82546001600160a01b0319166001600160a01b03919091161790565b9055565b6100786100846100849290565b610084906101d9565b336102146102056102006001610134565b610078565b61020e83610078565b1461013e565b61021e6000610134565b9061022a8160006101a9565b61023e61023760006101e6565b60016101a9565b61027161026b7f8be0079c531659141344cd1fd0a4f28419497f9722a3daafe3b4186f6b6457e0936101a0565b916101a0565b9161027b60405190565b600090a3565b6100846000610134565b1561029257565b60405162461bcd60e51b815260206004820152601760248201527621b0b73737ba103a3930b739b332b9103a379039b2b63360491b6044820152606490fd5b6102ed6102dd33610078565b6102e683610078565b141561028b565b6102f88160016101a9565b6103026000610134565b9061027161026b7fed8889f560326eb138920d842192f0eb3dd22b4f139c87a2c57538e05bae1278936101a0565b1561033757565b60405162461bcd60e51b815260206004820152601660248201527527b7363c9031b0b63630b1363290313c9037bbb732b960511b6044820152606490fd5b6100a43361038f6103896102006000610134565b91610078565b1461033056fea26469706673582212201484a18e9b6096a3604f820bcfbf36a507d54f5391e01f3636f5837d8870c47b64736f6c63430008120033",
  "linkReferences": {},
  "deployedLinkReferences": {}
}