{
  "_format": "hh-sol-artifact-1",
  "contractName": "CasimirRegistryDev",
  "sourceName": "src/v1/dev/CasimirRegistry.sol",
  "abi": [
    {
      "inputs": [
        {
          "internalType": "contract ISSVViews",
          "name": "ssvViews_",
          "type": "address"
        }
      ],
      "stateMutability": "nonpayable",
      "type": "constructor"
    },
    {
      "inputs": [],
      "name": "CollateralInUse",
      "type": "error"
    },
    {
      "inputs": [],
      "name": "InsufficientCollateral",
      "type": "error"
    },
    {
      "inputs": [],
      "name": "InvalidAddress",
      "type": "error"
    },
    {
      "inputs": [],
      "name": "InvalidAmount",
      "type": "error"
    },
    {
      "inputs": [],
      "name": "OperatorAlreadyRegistered",
      "type": "error"
    },
    {
      "inputs": [],
      "name": "OperatorNotActive",
      "type": "error"
    },
    {
      "inputs": [],
      "name": "OperatorNotPrivate",
      "type": "error"
    },
    {
      "inputs": [],
      "name": "OperatorResharing",
      "type": "error"
    },
    {
      "inputs": [],
      "name": "PoolAlreadyExists",
      "type": "error"
    },
    {
      "inputs": [],
      "name": "PoolAlreadyInitiated",
      "type": "error"
    },
    {
      "inputs": [],
      "name": "PoolAlreadyWithdrawn",
      "type": "error"
    },
    {
      "inputs": [],
      "name": "PoolDoesNotExist",
      "type": "error"
    },
    {
      "inputs": [],
      "name": "PoolMaxReshared",
      "type": "error"
    },
    {
      "inputs": [],
      "name": "PoolNotActive",
      "type": "error"
    },
    {
      "inputs": [],
      "name": "PoolNotExiting",
      "type": "error"
    },
    {
      "inputs": [],
      "name": "PoolNotPending",
      "type": "error"
    },
    {
      "inputs": [],
      "name": "TransferFailed",
      "type": "error"
    },
    {
      "inputs": [],
      "name": "Unauthorized",
      "type": "error"
    },
    {
      "anonymous": false,
      "inputs": [
        {
          "indexed": true,
          "internalType": "uint64",
          "name": "operatorId",
          "type": "uint64"
        },
        {
          "indexed": false,
          "internalType": "uint256",
          "name": "amount",
          "type": "uint256"
        }
      ],
      "name": "CollateralDeposited",
      "type": "event"
    },
    {
      "anonymous": false,
      "inputs": [
        {
          "indexed": true,
          "internalType": "uint64",
          "name": "operatorId",
          "type": "uint64"
        }
      ],
      "name": "DeactivationCompleted",
      "type": "event"
    },
    {
      "anonymous": false,
      "inputs": [
        {
          "indexed": true,
          "internalType": "uint64",
          "name": "operatorId",
          "type": "uint64"
        }
      ],
      "name": "DeactivationRequested",
      "type": "event"
    },
    {
      "anonymous": false,
      "inputs": [
        {
          "indexed": true,
          "internalType": "uint64",
          "name": "operatorId",
          "type": "uint64"
        }
      ],
      "name": "DeregistrationCompleted",
      "type": "event"
    },
    {
      "anonymous": false,
      "inputs": [
        {
          "indexed": false,
          "internalType": "uint8",
          "name": "version",
          "type": "uint8"
        }
      ],
      "name": "Initialized",
      "type": "event"
    },
    {
      "anonymous": false,
      "inputs": [
        {
          "indexed": true,
          "internalType": "uint64",
          "name": "operatorId",
          "type": "uint64"
        },
        {
          "indexed": false,
          "internalType": "uint32",
          "name": "poolId",
          "type": "uint32"
        }
      ],
      "name": "OperatorPoolAdded",
      "type": "event"
    },
    {
      "anonymous": false,
      "inputs": [
        {
          "indexed": false,
          "internalType": "uint64",
          "name": "operatorId",
          "type": "uint64"
        },
        {
          "indexed": false,
          "internalType": "uint32",
          "name": "poolId",
          "type": "uint32"
        },
        {
          "indexed": false,
          "internalType": "uint256",
          "name": "blameAmount",
          "type": "uint256"
        }
      ],
      "name": "OperatorPoolRemoved",
      "type": "event"
    },
    {
      "anonymous": false,
      "inputs": [
        {
          "indexed": true,
          "internalType": "uint64",
          "name": "operatorId",
          "type": "uint64"
        }
      ],
      "name": "OperatorRegistered",
      "type": "event"
    },
    {
      "anonymous": false,
      "inputs": [
        {
          "indexed": true,
          "internalType": "address",
          "name": "previousOwner",
          "type": "address"
        },
        {
          "indexed": true,
          "internalType": "address",
          "name": "newOwner",
          "type": "address"
        }
      ],
      "name": "OwnershipTransferred",
      "type": "event"
    },
    {
      "anonymous": false,
      "inputs": [
        {
          "indexed": true,
          "internalType": "uint64",
          "name": "operatorId",
          "type": "uint64"
        },
        {
          "indexed": false,
          "internalType": "uint256",
          "name": "amount",
          "type": "uint256"
        }
      ],
      "name": "WithdrawalFulfilled",
      "type": "event"
    },
    {
      "inputs": [
        {
          "internalType": "uint64",
          "name": "operatorId",
          "type": "uint64"
        },
        {
          "internalType": "uint32",
          "name": "poolId",
          "type": "uint32"
        }
      ],
      "name": "addOperatorPool",
      "outputs": [],
      "stateMutability": "nonpayable",
      "type": "function"
    },
    {
      "inputs": [
        {
          "internalType": "uint64",
          "name": "operatorId",
          "type": "uint64"
        }
      ],
      "name": "depositCollateral",
      "outputs": [],
      "stateMutability": "payable",
      "type": "function"
    },
    {
      "inputs": [
        {
          "internalType": "uint64",
          "name": "operatorId",
          "type": "uint64"
        }
      ],
      "name": "getOperator",
      "outputs": [
        {
          "components": [
            {
              "internalType": "uint64",
              "name": "id",
              "type": "uint64"
            },
            {
              "internalType": "bool",
              "name": "active",
              "type": "bool"
            },
            {
              "internalType": "uint256",
              "name": "collateral",
              "type": "uint256"
            },
            {
              "internalType": "uint256",
              "name": "poolCount",
              "type": "uint256"
            },
            {
              "internalType": "bool",
              "name": "resharing",
              "type": "bool"
            }
          ],
          "internalType": "struct ICasimirCoreDev.Operator",
          "name": "operator",
          "type": "tuple"
        }
      ],
      "stateMutability": "view",
      "type": "function"
    },
    {
      "inputs": [],
      "name": "getOperatorIds",
      "outputs": [
        {
          "internalType": "uint64[]",
          "name": "",
          "type": "uint64[]"
        }
      ],
      "stateMutability": "view",
      "type": "function"
    },
    {
      "inputs": [
        {
          "internalType": "uint256",
          "name": "minCollateral_",
          "type": "uint256"
        },
        {
          "internalType": "bool",
          "name": "privateOperators_",
          "type": "bool"
        },
        {
          "internalType": "bool",
          "name": "verifiedOperators_",
          "type": "bool"
        }
      ],
      "name": "initialize",
      "outputs": [],
      "stateMutability": "nonpayable",
      "type": "function"
    },
    {
      "inputs": [],
      "name": "minCollateral",
      "outputs": [
        {
          "internalType": "uint256",
          "name": "",
          "type": "uint256"
        }
      ],
      "stateMutability": "view",
      "type": "function"
    },
    {
      "inputs": [],
      "name": "owner",
      "outputs": [
        {
          "internalType": "address",
          "name": "",
          "type": "address"
        }
      ],
      "stateMutability": "view",
      "type": "function"
    },
    {
      "inputs": [],
      "name": "privateOperators",
      "outputs": [
        {
          "internalType": "bool",
          "name": "",
          "type": "bool"
        }
      ],
      "stateMutability": "view",
      "type": "function"
    },
    {
      "inputs": [
        {
          "internalType": "uint64",
          "name": "operatorId",
          "type": "uint64"
        }
      ],
      "name": "registerOperator",
      "outputs": [],
      "stateMutability": "payable",
      "type": "function"
    },
    {
      "inputs": [
        {
          "internalType": "uint64",
          "name": "operatorId",
          "type": "uint64"
        },
        {
          "internalType": "uint32",
          "name": "poolId",
          "type": "uint32"
        },
        {
          "internalType": "uint256",
          "name": "blameAmount",
          "type": "uint256"
        }
      ],
      "name": "removeOperatorPool",
      "outputs": [],
      "stateMutability": "nonpayable",
      "type": "function"
    },
    {
      "inputs": [],
      "name": "renounceOwnership",
      "outputs": [],
      "stateMutability": "nonpayable",
      "type": "function"
    },
    {
      "inputs": [
        {
          "internalType": "uint64",
          "name": "operatorId",
          "type": "uint64"
        }
      ],
      "name": "requestDeactivation",
      "outputs": [],
      "stateMutability": "nonpayable",
      "type": "function"
    },
    {
      "inputs": [
        {
          "internalType": "uint64",
          "name": "operatorId",
          "type": "uint64"
        },
        {
          "internalType": "uint256",
          "name": "amount",
          "type": "uint256"
        }
      ],
      "name": "requestWithdrawal",
      "outputs": [],
      "stateMutability": "nonpayable",
      "type": "function"
    },
    {
      "inputs": [
        {
          "internalType": "address",
          "name": "newOwner",
          "type": "address"
        }
      ],
      "name": "transferOwnership",
      "outputs": [],
      "stateMutability": "nonpayable",
      "type": "function"
    },
    {
      "inputs": [],
      "name": "verifiedOperators",
      "outputs": [
        {
          "internalType": "bool",
          "name": "",
          "type": "bool"
        }
      ],
      "stateMutability": "view",
      "type": "function"
    }
  ],
  "bytecode": "0x60a06040523462000040576200001e62000018620000ef565b6200013e565b604051611a2b6200030e82396080518181816117cf01526119550152611a2b90f35b600080fd5b634e487b7160e01b600052604160045260246000fd5b90601f01601f191681019081106001600160401b038211176200007d57604052565b62000045565b906200009a6200009260405190565b92836200005b565b565b6001600160a01b031690565b90565b620000a8906200009c565b620000c181620000ab565b036200004057565b905051906200009a82620000b6565b906020828203126200004057620000a891620000c9565b620000a862001d3980380380620001068162000083565b928339810190620000d8565b620000a8906200009c906001600160a01b031682565b620000a89062000112565b620000a89062000128565b620001536200014d8262000133565b620002d2565b6080526200009a6200022a565b620000a89060081c5b60ff1690565b620000a8905462000160565b156200018357565b60405162461bcd60e51b815260206004820152602760248201527f496e697469616c697a61626c653a20636f6e747261637420697320696e697469604482015266616c697a696e6760c81b6064820152608490fd5b620000a89062000169565b620000a89054620001d8565b62000169620000a8620000a89260ff1690565b9062000216620000a86200022692620001ef565b825460ff191660ff919091161790565b9055565b62000248620002426200023e60006200016f565b1590565b6200017b565b620002546000620001e3565b60ff908190811603620002645750565b6200027181600062000202565b620002b27f7f26b83ff96e1f2b6a682f133852f6798a09c465da95921460cefb384740249891620002a160405190565b9182918260ff909116815260200190565b0390a1565b6200009c620000a8620000a89290565b620000a890620002b7565b620002f3620002ec620002e66000620002c7565b6200009c565b916200009c565b14620002fb57565b60405163e6c4247b60e01b8152600490fdfe6080604052600436101561001257600080fd5b60003560e01c80630891c80e146101025780634b2ead2f146100fd5780635cb050f0146100f8578063715018a6146100f35780637eb0ad92146100ee5780638da5cb5b146100e9578063ad537cfb146100e4578063ba2de9bc146100df578063d0520bda146100da578063e00e2683146100d5578063e1d95a2e146100d0578063e53e1fd3146100cb578063ea70b504146100c6578063f2fde38b146100c15763f92779e3036101125761056e565b610556565b610511565b6104f2565b6104cb565b610443565b61042a565b6103db565b6103a0565b610334565b6102f6565b61029b565b610274565b6101dc565b610146565b600091031261011257565b600080fd5b610126916008021c5b60ff1690565b90565b906101269154610117565b61012660006098610129565b9052565b565b3461011257610156366004610107565b610173610161610134565b60405191829182901515815260200190565b0390f35b6001600160401b031690565b61018c81610177565b0361011257565b9050359061014482610183565b63ffffffff811661018c565b90503590610144826101a0565b919060408382031261011257610126906101d38185610193565b936020016101ac565b34610112576101f56101ef3660046101b9565b90611267565b604051005b906020828203126101125761012691610193565b61014090610177565b90608080610144936102316000820151600086019061020e565b60208181015115159085015261024c60408201516040860152565b61025b60608201516060860152565b01511515910152565b60a0810192916101449190610217565b346101125761017361028f61028a3660046101fa565b61157c565b60405191829182610264565b34610112576102ab366004610107565b6101f56105d2565b8061018c565b90503590610144826102b3565b9091606082840312610112576101266102df8484610193565b936102ed81602086016101ac565b936040016102b9565b34610112576101f56103093660046102c6565b916112c4565b6001600160a01b031690565b6101409061030f565b602081019291610144919061031b565b3461011257610344366004610107565b61017361034f610590565b60405191829182610324565b80151561018c565b905035906101448261035b565b90916060828403126101125761012661038984846102b9565b936103978160208601610363565b93604001610363565b34610112576101f56103b3366004610370565b91610a60565b610126916008021c81565b9061012691546103b9565b610126600060976103c4565b34610112576103eb366004610107565b6101736103f66103cf565b6040515b9182918290815260200190565b919060408382031261011257610126906104218185610193565b936020016102b9565b34610112576101f561043d366004610407565b90610f03565b6101f56104513660046101fa565b610dde565b906104638160209361020e565b0190565b90610487610480610476845190565b8084529260200190565b9260200190565b9060005b8181106104985750505090565b9091926104b26104ab6001928651610456565b9460200190565b92910161048b565b602080825261012692910190610467565b34610112576104db366004610107565b6101736104e661171c565b604051918291826104ba565b6101f56105003660046101fa565b610cd0565b61012660016098610129565b3461011257610521366004610107565b610173610161610505565b61018c8161030f565b905035906101448261052c565b906020828203126101125761012691610535565b34610112576101f5610569366004610542565b6106e6565b34610112576101f56105813660046101fa565b610ff3565b610126905461030f565b6101266033610586565b6105a261062e565b6101446105c0565b61030f6101266101269290565b610126906105aa565b6101446105cd60006105b7565b610745565b61014461059a565b156105e157565b60405162461bcd60e51b81528061062a600482016020808252818101527f4f776e61626c653a2063616c6c6572206973206e6f7420746865206f776e6572604082015260600190565b0390fd5b610144610639610590565b61065061064a3361030f565b61030f565b9161030f565b146105da565b6101449061066261062e565b6106c2565b1561066e57565b60405162461bcd60e51b815260206004820152602660248201527f4f776e61626c653a206e6577206f776e657220697320746865207a65726f206160448201526564647265737360d01b6064820152608490fd5b610144906105cd6106d661064560006105b7565b6106df8361030f565b1415610667565b61014490610656565b906001600160a01b03905b9181191691161790565b6101269061030f906001600160a01b031682565b61012690610704565b61012690610718565b9061073a61012661074192610721565b82546106ef565b9055565b61074f6033610586565b9061075b81603361072a565b61078e6107887f8be0079c531659141344cd1fd0a4f28419497f9722a3daafe3b4186f6b6457e093610721565b91610721565b9161079860405190565b600090a3565b6101269060081c610120565b610126905461079e565b61012690610120565b61012690546107b4565b6101206101266101269290565b156107db57565b60405162461bcd60e51b815260206004820152602e60248201527f496e697469616c697a61626c653a20636f6e747261637420697320616c72656160448201526d191e481a5b9a5d1a585b1a5e995960921b6064820152608490fd5b9060ff906106fa565b6101206101266101269260ff1690565b9061086061012661074192610840565b8254610837565b9061ff009060081b6106fa565b9061088461012661074192151590565b8254610867565b610140906107c7565b602081019291610144919061088b565b916108f2906108ba6108b660006107aa565b1590565b928380610995575b8015610950575b6108d2906107d4565b600194846108e96108e2886107c7565b6000610850565b61094057610a1c565b6108f95750565b610904600080610874565b61093b7f7f26b83ff96e1f2b6a682f133852f6798a09c465da95921460cefb38474024989161093260405190565b91829182610894565b0390a1565b61094b866000610874565b610a1c565b506109656108b661096030610721565b610b68565b80156108c957506108d261097960006107bd565b61098d61098660016107c7565b9160ff1690565b1490506108c9565b506109a060006107bd565b6109ad61098660016107c7565b106108c2565b9062010000600160b01b039060101b6106fa565b906109d761012661074192610721565b82546109b3565b90600019906106fa565b6101266101266101269290565b90610a05610126610741926109e8565b82546109de565b9061086061012661074192151590565b6101449291610a52610a5992610a30610ae8565b610a38610b27565b610a4b610a4433610721565b60986109c7565b60976109f5565b6098610a0c565b6098610874565b9061014492916108a4565b15610a7257565b60405162461bcd60e51b815260206004820152602b60248201527f496e697469616c697a61626c653a20636f6e7472616374206973206e6f74206960448201526a6e697469616c697a696e6760a81b6064820152608490fd5b610add610ad860006107aa565b610a6b565b610144610144610b07565b610144610acb565b610afd610ad860006107aa565b6101448033610745565b610144610af0565b610b1c610ad860006107aa565b610144610144610b60565b610144610b0f565b610b3c610ad860006107aa565b610144610b4e565b61012660016109e8565b610144610b59610b44565b60656109f5565b610144610b2f565b3b610b7a610b7660006109e8565b9190565b1190565b610b8d61012661012692610177565b610177565b90610b9c90610b7e565b600052602052604060002090565b61012690610177565b6101269054610baa565b610b8d6101266101269290565b634e487b7160e01b600052604160045260246000fd5b634e487b7160e01b600052603260045260246000fd5b8054919291831015610c1f576004610c15600892600052602060002090565b8185040193060290565b610be0565b916001600160401b0360089290920291821b911b6106fa565b9190610c4e61012661074193610b7e565b908354610c24565b80549190600160401b831015610c7f5782610c7991600161014495018155610bf6565b90610c3d565b610bca565b906001600160401b03906106fa565b90610ca361012661074192610b7e565b8254610c84565b9060ff60401b9060401b6106fa565b90610cc961012661074192151590565b8254610caa565b610cd9816117c4565b610ce360986107bd565b610d97575b610cf661012682609a610b92565b610cff81610bb3565b90600091610d15610d0f84610bbd565b91610177565b03610d8557610d4991610d29846099610c56565b8101610d358482610c93565b610d4160018092610cb9565b3491016109f5565b610d737f6c28af0fa8641eefbc0d8a2deb29fe2e420f3c970612ddd49f4ade278b1ef30091610b7e565b90610d7d60405190565b80805b0390a2565b6040516342ee68b560e01b8152600490fd5b610da08161194a565b610ce8565b6101269081565b6101269054610da5565b634e487b7160e01b600052601160045260246000fd5b91908201809211610dd957565b610db6565b610de7816117c4565b610df561012682609a610b92565b90610e223492610e1a60018201610e1486610e0f83610dac565b610dcc565b906109f5565b600190610cb9565b610d80610e4f7f478fd3b7431f8a8f520a48fff1ae5c0ed303d0da53379c749d51eb717109d0fd92610b7e565b926103fa60405190565b6101269060401c610120565b6101269054610e59565b91908203918211610dd957565b90601f01601f191681019081106001600160401b03821117610c7f57604052565b90610144610eaa60405190565b9283610e7c565b6001600160401b038111610c7f57602090601f01601f19160190565b90610edf610eda83610eb1565b610e9d565b918252565b3d15610efe57610ef33d610ecd565b903d6000602084013e565b606090565b610f0c816117c4565b610f1a61012682609a610b92565b610f2381610e65565b8015610fe1575b610fcf57600101610f3a81610dac565b8311610fbd5780610e1484610f51610f5694610dac565b610e6f565b610f7a60008033610f6660405190565b60009187905af1610f75610ee4565b501590565b610fab57610d80610e4f7ffbf588986ff2bb1251165e28bd1289b7ba0f7566cc35e6af5889569f366f12f592610b7e565b6040516312171d8360e31b8152600490fd5b60405163162908e360e11b8152600490fd5b60405163afc9264160e01b8152600490fd5b50610fee600382016107bd565b610f2a565b610ffc816117c4565b61100a61012682609a610b92565b6110166108b682610e65565b6110ba5760038101611027816107bd565b6110a85761103760028301610dac565b90600091611047610b76846109e8565b036110705750806110589201610cb9565b610d736000805160206119d683398151915291610b7e565b61107e925060019150610a0c565b610d737f6ce085df0f5d0adb0ef91043f72a6052808184fb2b3a001aa7aa02491c83cc9b91610b7e565b6040516355d41bcb60e01b8152600490fd5b604051631a8660cb60e01b8152600490fd5b90610144916110d961062e565b611139565b6110f16101266101269263ffffffff1690565b63ffffffff1690565b90610b9c906110de565b634e487b7160e01b600052601260045260246000fd5b8115611124570490565b611104565b63ffffffff909116815260200190565b61114761012682609a610b92565b6111536108b682610e65565b6110ba57611163600382016107bd565b6110a857609b906111856111808561117b8686610b92565b6110fa565b6107bd565b611255576111bf60026111ad61119d60018501610dac565b6111a76097610dac565b9061111a565b9201916111b983610dac565b90610e6f565b6111cc610b7660006109e8565b1461124357610e146111fa846111f5611203956111f08961117b6001958694610b92565b610a0c565b6109e8565b610e0f83610dac565b610d806112307fbe8529b64d7d8127a1381d88d17db86853a0f47cd284922bc368e908bdf798dd92610b7e565b9261123a60405190565b91829182611129565b604051633a23d82560e01b8152600490fd5b604051630188c99160e11b8152600490fd5b90610144916110cc565b6101269060101c61030f565b6101269054611271565b6040513d6000823e3d90fd5b6040906112c061014494969593966112b36060840198600085019061020e565b63ffffffff166020830152565b0152565b6112cd8261189a565b6112db61012682609a610b92565b609b906112f26108b66111808661117b8787610b92565b6114a6576113036101266097610dac565b8511610fbd5761131f83926111f08661117b6000968794610b92565b600161134c61132d826109e8565b6113476113416002860192610f5184610dac565b826109f5565b610dac565b611358610b76856109e8565b1480611494575b611450575b61136d836109e8565b86116113ae575b50505061093b7f49dcf09e309b952203505270574bb3e5b39128299fb760bea57249ad29251acd936113a560405190565b93849384611293565b6113c09101610e1486610f5183610dac565b6113d26113cd609861127d565b610721565b63cc48739890803b15610112576113f79183916113ee60405190565b93849260e01b90565b82528188816114098a60048301611129565b03925af1801561144b5761141e575b80611374565b8161143d92903d10611444575b6114358183610e7c565b810190610107565b3880611418565b503d61142b565b611287565b61145c83808401610cb9565b6114698360038401610a0c565b6000805160206119d683398151915261148185610b7e565b9061148b60405190565b600090a2611364565b506114a1600383016107bd565b61135f565b6040516302721e1f60e61b8152600490fd5b61012660a0610e9d565b6114ca6114b8565b906000825260208080808086016000815201600081520160008152016000905250565b6101266114c2565b9061014090610177565b9061014461156a60036115106114b8565b9461152361151d82610bb3565b876114f5565b61153861152f82610e65565b15156020880152565b61154e61154760018301610dac565b6040880152565b61156461155d60028301610dac565b6060880152565b016107bd565b15156080840152565b610126906114ff565b6115936101269161158b6114ed565b50609a610b92565b611573565b6101269060401c610177565b6101269060801c610177565b6101269060c01c610177565b906001906115da6115ce610476855490565b93600052602060002090565b60009261168c575b6115ed565b50505090565b549080831061166f575b808310611652575b808310611635575b8210611614575b806115e7565b8261162c600193946116276020946115b0565b61020e565b0191013861160e565b9192602081611649600193611627866115a4565b01930191611607565b919260208161166660019361162786611598565b019301916115ff565b919260208161168360019361162786610baa565b019301916115f7565b600383018211156115e25792600160206116276116dd6004948380808b54936116b88161162787610baa565b016116c68161162786611598565b016116d481611627856115a4565b019283916115b0565b01940192019161168c565b90610126916115bc565b9061014461170c9261170360405190565b938480926116e8565b0383610e7c565b610126906116f2565b6101266099611713565b905051906101448261052c565b90505190610144826102b3565b90505190610144826101a0565b905051906101448261035b565b909160c082840312610112576117708383611726565b9261177e8160208501611733565b9261178c8260408301611740565b9261012661179d8460608501611726565b936117ab816080860161174d565b9360a00161174d565b602081019291610144919061020e565b60c061181c916117f37f0000000000000000000000000000000000000000000000000000000000000000610721565b61181163be3f058e61180460405190565b9586948593849360e01b90565b8352600483016117b4565b03915afa90811561144b57600091611855575b5061183d61064a339261030f565b0361184457565b6040516282b42960e81b8152600490fd5b611876915060c03d811161187f575b61186e8183610e7c565b81019061175a565b5050505061182f565b503d611864565b906020828203126101125761012691611726565b336118a6610645610590565b6118af8261030f565b141591826118c0575b505061184457565b6118f29192506020906118d66113cd609861127d565b6118e763b641a34f61180460405190565b835260048301611129565b03915afa90811561144b576119139161064a9160009161191c575b5061030f565b141538806118b8565b61193d915060203d8111611943575b6119358183610e7c565b810190611886565b3861190d565b503d61192b565b60c0611979916117f37f0000000000000000000000000000000000000000000000000000000000000000610721565b03915afa90811561144b576000916119b3575b5061199a610b7660006109e8565b036119a157565b60405163a002a22d60e01b8152600490fd5b6119cb915060c03d811161187f5761186e8183610e7c565b505050509061198c56fe9de20cb25572ce81ea17f07e8df6b2f97f2c264f9127b1f19410a228353d790ea2646970667358221220d5e262d52bace12c805b11b46a51323dd1fa3d6a9a69ff5bfe807eda8cd4133464736f6c63430008120033",
  "linkReferences": {},
  "deployedLinkReferences": {}
}