{
  "_format": "hh-sol-artifact-1",
  "contractName": "CasimirViews",
  "sourceName": "src/v1/CasimirViews.sol",
  "abi": [
    {
      "inputs": [],
      "stateMutability": "nonpayable",
      "type": "constructor"
    },
    {
      "inputs": [],
      "name": "InvalidAddress",
      "type": "error"
    },
    {
      "inputs": [],
      "name": "InvalidAmount",
      "type": "error"
    },
    {
      "inputs": [],
      "name": "PoolAlreadyInitiated",
      "type": "error"
    },
    {
      "inputs": [],
      "name": "PoolAlreadyWithdrawn",
      "type": "error"
    },
    {
      "inputs": [],
      "name": "PoolMaxReshared",
      "type": "error"
    },
    {
      "inputs": [],
      "name": "PoolNotActive",
      "type": "error"
    },
    {
      "inputs": [],
      "name": "PoolNotExiting",
      "type": "error"
    },
    {
      "inputs": [],
      "name": "PoolNotPending",
      "type": "error"
    },
    {
      "inputs": [],
      "name": "TransferFailed",
      "type": "error"
    },
    {
      "inputs": [],
      "name": "Unauthorized",
      "type": "error"
    },
    {
      "anonymous": false,
      "inputs": [
        {
          "indexed": false,
          "internalType": "uint8",
          "name": "version",
          "type": "uint8"
        }
      ],
      "name": "Initialized",
      "type": "event"
    },
    {
      "inputs": [
        {
          "internalType": "uint256",
          "name": "startIndex",
          "type": "uint256"
        },
        {
          "internalType": "uint256",
          "name": "endIndex",
          "type": "uint256"
        }
      ],
      "name": "getCompoundablePoolIds",
      "outputs": [
        {
          "internalType": "uint32[5]",
          "name": "compoundablePoolIds",
          "type": "uint32[5]"
        }
      ],
      "stateMutability": "view",
      "type": "function"
    },
    {
      "inputs": [],
      "name": "getDepositedPoolCount",
      "outputs": [
        {
          "internalType": "uint256",
          "name": "depositedPoolCount",
          "type": "uint256"
        }
      ],
      "stateMutability": "view",
      "type": "function"
    },
    {
      "inputs": [
        {
          "internalType": "uint256",
          "name": "startIndex",
          "type": "uint256"
        },
        {
          "internalType": "uint256",
          "name": "endIndex",
          "type": "uint256"
        }
      ],
      "name": "getDepositedPoolPublicKeys",
      "outputs": [
        {
          "internalType": "bytes[]",
          "name": "",
          "type": "bytes[]"
        }
      ],
      "stateMutability": "view",
      "type": "function"
    },
    {
      "inputs": [
        {
          "internalType": "uint256",
          "name": "startIndex",
          "type": "uint256"
        },
        {
          "internalType": "uint256",
          "name": "endIndex",
          "type": "uint256"
        }
      ],
      "name": "getDepositedPoolStatuses",
      "outputs": [
        {
          "internalType": "enum ICasimirCore.PoolStatus[]",
          "name": "",
          "type": "uint8[]"
        }
      ],
      "stateMutability": "view",
      "type": "function"
    },
    {
      "inputs": [
        {
          "internalType": "uint256",
          "name": "startIndex",
          "type": "uint256"
        },
        {
          "internalType": "uint256",
          "name": "endIndex",
          "type": "uint256"
        }
      ],
      "name": "getOperators",
      "outputs": [
        {
          "components": [
            {
              "internalType": "uint64",
              "name": "id",
              "type": "uint64"
            },
            {
              "internalType": "bool",
              "name": "active",
              "type": "bool"
            },
            {
              "internalType": "uint256",
              "name": "collateral",
              "type": "uint256"
            },
            {
              "internalType": "uint256",
              "name": "poolCount",
              "type": "uint256"
            },
            {
              "internalType": "bool",
              "name": "resharing",
              "type": "bool"
            }
          ],
          "internalType": "struct ICasimirCore.Operator[]",
          "name": "",
          "type": "tuple[]"
        }
      ],
      "stateMutability": "view",
      "type": "function"
    },
    {
      "inputs": [
        {
          "internalType": "uint32",
          "name": "poolId",
          "type": "uint32"
        }
      ],
      "name": "getPoolConfig",
      "outputs": [
        {
          "components": [
            {
              "internalType": "address",
              "name": "poolAddress",
              "type": "address"
            },
            {
              "internalType": "uint256",
              "name": "balance",
              "type": "uint256"
            },
            {
              "internalType": "uint64[]",
              "name": "operatorIds",
              "type": "uint64[]"
            },
            {
              "internalType": "bytes",
              "name": "publicKey",
              "type": "bytes"
            },
            {
              "internalType": "uint256",
              "name": "reshares",
              "type": "uint256"
            },
            {
              "internalType": "enum ICasimirCore.PoolStatus",
              "name": "status",
              "type": "uint8"
            }
          ],
          "internalType": "struct ICasimirCore.PoolConfig",
          "name": "poolConfig",
          "type": "tuple"
        }
      ],
      "stateMutability": "view",
      "type": "function"
    },
    {
      "inputs": [
        {
          "internalType": "uint256",
          "name": "startIndex",
          "type": "uint256"
        },
        {
          "internalType": "uint256",
          "name": "endIndex",
          "type": "uint256"
        }
      ],
      "name": "getSweptBalance",
      "outputs": [
        {
          "internalType": "uint128",
          "name": "sweptBalance",
          "type": "uint128"
        }
      ],
      "stateMutability": "view",
      "type": "function"
    },
    {
      "inputs": [
        {
          "internalType": "address",
          "name": "managerAddress",
          "type": "address"
        }
      ],
      "name": "initialize",
      "outputs": [],
      "stateMutability": "nonpayable",
      "type": "function"
    }
  ],
  "bytecode": "0x6080604052346200002657620000146200002b565b604051611a69620001928239611a6990f35b600080fd5b6200003562000104565b565b620000469060081c5b60ff1690565b90565b62000046905462000037565b156200005d57565b60405162461bcd60e51b815260206004820152602760248201527f496e697469616c697a61626c653a20636f6e747261637420697320696e697469604482015266616c697a696e6760c81b6064820152608490fd5b620000469062000040565b620000469054620000b2565b6200004062000046620000469260ff1690565b90620000f0620000466200010092620000c9565b825460ff191660ff919091161790565b9055565b620001226200011c62000118600062000049565b1590565b62000055565b6200012e6000620000bd565b60ff9081908116036200013e5750565b6200014b816000620000dc565b6200018c7f7f26b83ff96e1f2b6a682f133852f6798a09c465da95921460cefb3847402498916200017b60405190565b9182918260ff909116815260200190565b0390a156fe6080604052600436101561001257600080fd5b60003560e01c80630812a9fe1461009257806312c3456b1461008d5780634179ee79146100885780635d1e078014610083578063b29a57e41461007e578063c4d66de814610079578063dcf25c1d146100745763ea4dd2b9036100a0576105c9565b6104fe565b61045a565b610408565b610384565b610352565b610168565b61013c565b805b036100a057565b600080fd5b905035906100b282610097565b565b91906040838203126100a0576100d7906100ce81856100a5565b936020016100a5565b90565b9052565b0190565b6100f26100ee60059390565b9190565b6000915b8383106101035750505050565b61012361011c600192845163ffffffff16815260200190565b9260200190565b920191906100f6565b60a0810192916100b291906100e2565b346100a0576101646101586101523660046100b4565b90610abc565b6040519182918261012c565b0390f35b346100a05761016461018461017e3660046100b4565b906118d5565b604051918291826001600160801b03909116815260200190565b63ffffffff8116610099565b905035906100b28261019e565b906020828203126100a0576100d7916101aa565b6001600160a01b031690565b6100da906101cb565b906101f961011c6101ef845190565b8084529260200190565b9060005b81811061020a5750505090565b90919261023061022960019286516001600160401b0316815260200190565b9460200190565b9291016101fd565b60005b83811061024b5750506000910152565b818101518382015260200161023b565b61027c6102856020936100de93610270815190565b80835293849260200190565b95869101610238565b601f01601f191690565b634e487b7160e01b600052602160045260246000fd5b600611156102af57565b61028f565b906100b2826102a5565b6100d7906102b4565b6100da906102be565b906100d79060a08061032761031560c085016102f4600089015160008801906101d7565b61030360208901516020880152565b604088015186820360408801526101e0565b6060870151858203606087015261025b565b9461033760808201516080860152565b01519101906102c7565b60208082526100d7929101906102d0565b346100a05761016461036d6103683660046101b7565b611669565b60405191829182610341565b60009103126100a057565b346100a057610394366004610379565b61016461039f610ced565b6040519182918290815260200190565b906100de816020936102c7565b906103cb61011c6101ef845190565b9060005b8181106103dc5750505090565b9091926103ef61022960019286516103af565b9291016103cf565b60208082526100d7929101906103bc565b346100a05761016461042461041e3660046100b4565b906110e6565b604051918291826103f7565b610099816101cb565b905035906100b282610430565b906020828203126100a0576100d791610439565b346100a05761047261046d366004610446565b610873565b604051005b906100d79161025b565b9061049761048d835190565b8083529160200190565b90816104a96020830284019460200190565b926000915b8383106104bd57505050505090565b909192939460206104e06104d983856001950387528951610477565b9760200190565b93019301919392906104ae565b60208082526100d792910190610481565b346100a05761016461051a6105143660046100b4565b90610e66565b604051918291826104ed565b80516001600160401b031682526100b29190608090819060208181015115159085015261055860408201516040860152565b61056760608201516060860152565b01511515910152565b906100de8160a093610526565b9061058c61011c6101ef845190565b9060005b81811061059d5750505090565b9091926105b06102296001928651610570565b929101610590565b60208082526100d79291019061057d565b346100a0576101646105e56105df3660046100b4565b90611480565b604051918291826105b8565b6100d79060081c5b60ff1690565b6100d790546105f1565b6100d7906105f9565b6100d79054610609565b6105f96100d76100d79290565b6100d7906101cb906001600160a01b031682565b6100d790610629565b6100d79061063d565b1561065657565b60405162461bcd60e51b815260206004820152602e60248201527f496e697469616c697a61626c653a20636f6e747261637420697320616c72656160448201526d191e481a5b9a5d1a585b1a5e995960921b6064820152608490fd5b9060ff905b9181191691161790565b6105f96100d76100d79260ff1690565b906106e16100d76106e8926106c1565b82546106b2565b9055565b9061ff009060081b6106b7565b906107096100d76106e892151590565b82546106ec565b6100da9061061c565b6020810192916100b29190610710565b61073a61073660006105ff565b1590565b8080610817575b80156107d2575b6107519061064f565b6107746001928261076b6107648661061c565b60006106d1565b6107c257610860565b61077b5750565b6107866000806106f9565b6107bd7f7f26b83ff96e1f2b6a682f133852f6798a09c465da95921460cefb3847402498916107b460405190565b91829182610719565b0390a1565b6107cd8460006106f9565b610860565b506107e76107366107e230610646565b610889565b801561074857506107516107fb6000610612565b61080f610808600161061c565b9160ff1690565b149050610748565b506108226000610612565b61082f610808600161061c565b10610741565b9062010000600160b01b039060101b6106b7565b906108596100d76106e892610646565b8254610835565b61086c6100b291610646565b6000610849565b6100b290610729565b6100d76100d76100d79290565b3b6108976100ee600061087c565b1190565b634e487b7160e01b600052604160045260246000fd5b90601f01601f191681019081106001600160401b038211176108d257604052565b61089b565b906100b26108e460405190565b92836108b1565b6001600160401b0381116108d25760200290565b61090b6100d7916108eb565b6108d7565b369037565b906100b261092b610925846108ff565b936108eb565b83610910565b6100d76005610915565b6100d79060101c6101cb565b6100d7905461093b565b6001600160401b0381116108d25760208091020190565b905051906100b28261019e565b9092919261098561090b82610951565b93818552602080860192028301928184116100a057915b8383106109a95750505050565b602080916109b78486610968565b81520192019161099c565b9080601f830112156100a05781516100d792602001610975565b906020828203126100a05781516001600160401b0381116100a0576100d792016109c2565b6040513d6000823e3d90fd5b634e487b7160e01b600052601160045260246000fd5b6000198114610a325760010190565b610a0d565b91908203918211610a3257565b634e487b7160e01b600052603260045260246000fd5b90610a63825190565b811015610a74576020809102010190565b610a44565b905051906100b282610430565b906020828203126100a0576100d791610a79565b6100d767016345785d8a000061087c565b906005811015610a74576020020190565b91610ac5610931565b92610af5846000610add610ad882610947565b610646565b63d5d2722c90610aec60405190565b94859260e01b90565b825260049082905afa8015610c7d57610b3792600091610cc7575b506000610b1f610ad882610947565b636d83dd5c90610b2e60405190565b95869260e01b90565b825260049082905afa928315610c7d57600093610ca4575b50600092610b5c8461087c565b945b875b811015610c4557610b726100d7845190565b811015610c8257610b90610b868285610a5a565b5163ffffffff1690565b610bb96020610ba1610ad889610947565b63b641a34f90610bb060405190565b93849260e01b90565b825263ffffffff8516600483015260249082905afa908115610c7d57600091610c4f575b5031610bed6100ee6100d7610a9a565b1015610c08575b50610c01610b6091610a23565b9050610b5e565b95610c26610c2b9297610c1b8388610aab565b9063ffffffff169052565b610a23565b9485610c3a6100ee600561087c565b14610c455738610bf4565b5050505050509050565b610c70915060203d8111610c76575b610c6881836108b1565b810190610a86565b38610bdd565b503d610c5e565b610a01565b610c9f610b86610c99610c93865190565b84610a37565b84610a5a565b610b90565b610cc091933d8091833e610cb881836108b1565b8101906109dc565b9138610b4f565b610cda913d8091833e610cb881836108b1565b38610b10565b91908201809211610a3257565b610d0d6000610cfe610ad882610947565b63d5d2722c90610bb060405190565b825260049082905afa908115610c7d57610d4e91610d3191600091610d7857505190565b6000610d3f610ad882610947565b636d83dd5c90610aec60405190565b825260049082905afa918215610c7d576100d792610d7291600091610d7857505190565b90610ce0565b610d8b913d8091833e610cb881836108b1565b5190565b90610d9c61090b83610951565b918252565b60005b828110610db057505050565b606082820152602001610da4565b906100b2610dd4610dce84610d8f565b93610951565b601f190160208401610da1565b6001600160401b0381116108d257602090601f01601f19160190565b90929192610e0d61090b82610de1565b938185526020850190828401116100a0576100b292610238565b9080601f830112156100a05781516100d792602001610dfd565b906020828203126100a05781516001600160401b0381116100a0576100d79201610e27565b610ea49290610e7d610e788285610a37565b610dbe565b916000610e8c610ad882610947565b63d5d2722c90610e9b60405190565b97889260e01b90565b825260049082905afa948515610c7d57600095611079575b50610edd6000610ece610ad882610947565b636d83dd5c90610bb060405190565b825260049082905afa908115610c7d57600091611060575b50600091610f028361087c565b865b85101561105557610f166100d7895190565b85101561102e57610f6d6020610f2f610b86888c610a5a565b610f3b610ad888610947565b610f5963b641a34f610f4c60405190565b9586948593849360e01b90565b835263ffffffff1660048301526024820190565b03915afa908115610c7d57610f92610ad8610fa1938893600091611010575b50610646565b6363ffab3190610bb060405190565b825260049082905afa908115610c7d57610f0492610fe792610fe192600091610fef575b50610fd0828b610a5a565b52610fdb818a610a5a565b50610a23565b95610a23565b949050610f02565b61100a913d8091833e61100281836108b1565b810190610e41565b38610fc5565b611028915060203d8111610c7657610c6881836108b1565b38610f8c565b610f6d6020611050610b8661104a6110448d5190565b8a610a37565b87610a5a565b610f2f565b509550505050905090565b611073913d8091833e610cb881836108b1565b38610ef5565b61108d91953d8091833e610cb881836108b1565b9338610ebc565b906100b26110a4610dce84610d8f565b601f190160208401610910565b600611156100a057565b905051906100b2826110b1565b906020828203126100a0576100d7916110bb565b906100da906102b4565b6110f86110f38284610a37565b611094565b9261110a6000610cfe610ad882610947565b825260049082905afa908115610c7d57600091611299575b506111346000610ece610ad882610947565b825260049082905afa908115610c7d57600091611280575b506000926111598461087c565b865b8610156112775761116d6100d7855190565b861015611256576111926020611186610b868988610a5a565b610f3b610ad889610947565b03915afa908115610c7d576111b7610ad86111c69360209360009161123f5750610646565b63200d2ed290610bb060405190565b825260049082905afa908115610c7d5782610c268b6112059461115b966111ff9560009261120d575b506111fa9192610a5a565b6110dc565b96610a23565b959050611159565b6111fa92506112329060203d8111611238575b61122a81836108b1565b8101906110c8565b916111ef565b503d611220565b6110289150843d8111610c7657610c6881836108b1565b6111926020611272610b8661104a61126c895190565b8b610a37565b611186565b50945050505050565b611293913d8091833e610cb881836108b1565b3861114c565b6112ac913d8091833e610cb881836108b1565b38611122565b6100d760a06108d7565b6112c46112b2565b90600082526020808080808601600081520160005b81520160008152016000905250565b6100d76112bc565b60005b8281106112ff57505050565b60209061130a6112e8565b81840152016112f3565b906100b2611324610dce84610d8f565b601f1901602084016112f0565b6001600160401b038116610099565b905051906100b282611331565b9092919261135d61090b82610951565b93818552602080860192028301928184116100a057915b8383106113815750505050565b6020809161138f8486611340565b815201920191611374565b9080601f830112156100a05781516100d79260200161134d565b906020828203126100a05781516001600160401b0381116100a0576100d7920161139a565b801515610099565b905051906100b2826113d9565b905051906100b282610097565b91909160a0818403126100a05761146661141560a06108d7565b9360006114228285611340565b908601526020611434828286016113e1565b908601526040611446828286016113ee565b908601526060611458828286016113ee565b9086015260808093016113e1565b90830152565b9060a0828203126100a0576100d7916113fb565b61149261148d8284610a37565b611314565b906114b460206114a5610ad86000610947565b63f21de1e890610bb060405190565b825260049082905afa908115610c7d576114d991610ad8916000916110105750610646565b9363e1d95a2e906114f36114ec60405190565b9260e01b90565b8252600082600481895afa918215610c7d576000926115ef575b50611518600061087c565b855b8410156115e55761153b61152e8585610a5a565b516001600160401b031690565b60a061155c635cb050f061157361155160405190565b948593849360e01b90565b83526001600160401b031660048301526024820190565b03818b5afa908115610c7d5761151a926115af926115a9926000916115b7575b5061159e828a610a5a565b52610fdb8189610a5a565b94610a23565b939050611518565b6115d8915060a03d81116115de575b6115d081836108b1565b81019061146c565b38611593565b503d6115c6565b5094505050905090565b61160b91923d8091833e61160381836108b1565b8101906113b4565b903861150d565b6100d760c06108d7565b611624611612565b90600082526020808080808087016000815201606081520160606112d9565b6100d761161c565b906020828203126100a0576100d7916113ee565b906100da906101cb565b602061168591611677611643565b50610f3b610ad86000610947565b03915afa908115610c7d5760009161185a575b506116a281610646565b6116ad823191610646565b9063e1d95a2e6116c66116bf60405190565b9160e01b90565b8152600081600481865afa908115610c7d57600091611841575b506363ffab31926116fa6116f360405190565b9460e01b90565b8452600084600481845afa938415610c7d57600094611826575b5063fd0d7a0d9361172e61172760405190565b9560e01b90565b8552602085600481855afa918215610c7d5761175e956000936117f4575b5060405160209163200d2ed291610e9b565b825260049082905afa928315610c7d576100d7956000946117c2575b50906117ab6117b2926117a46117b9969761179d611796611612565b9b8c61165f565b60208b0152565b6040890152565b6060870152565b6080850152565b60a083016110dc565b6117b994506117b292916117a46117e96117ab9360203d81116112385761122a81836108b1565b96505091925061177a565b602091935061181890823d811161181f575b61181081836108b1565b81019061164b565b929061174c565b503d611806565b61183a91943d8091833e61100281836108b1565b9238611714565b611854913d8091833e61160381836108b1565b386116e0565b611872915060203d8111610c7657610c6881836108b1565b38611698565b634e487b7160e01b600052601260045260246000fd5b8115611898570490565b611878565b6118aa6100d76100d79290565b6001600160801b031690565b6001600160801b03908116911601906001600160801b038211610a3257565b6118e96000936000610add610ad882610947565b825260049082905afa918215610c7d57600092611a16575b5061191591926000610b1f610ad882610947565b825260049082905afa928315610c7d576000936119f7575b50945b845b86116119ef576119436100d7855190565b8610156119d457611969602061195c610b868988610a5a565b610f3b610ad86000610947565b03915afa908115610c7d57611932926119a86119a36119ae946111ff946000916119b6575b503161199d633b9aca0061087c565b9061188e565b61189d565b906118b6565b959050611930565b6119ce915060203d8111610c7657610c6881836108b1565b3861198e565b61196960206119ea610b8661104a61126c895190565b61195c565b945092505050565b611a0f9061193292943d8091833e610cb881836108b1565b929061192d565b611a2d90611915933d8091833e610cb881836108b1565b9161190156fea26469706673582212203b991829f29122418a639ae658bb9fe9f532471e0e0970ca6a0bedbdd34f1a6164736f6c63430008120033",
  "linkReferences": {},
  "deployedLinkReferences": {}
}