{
  "_format": "hh-sol-artifact-1",
  "contractName": "CasimirFactory",
  "sourceName": "src/v1/CasimirFactory.sol",
  "abi": [
    {
      "inputs": [
        {
          "internalType": "address",
          "name": "managerBeaconAddress_",
          "type": "address"
        },
        {
          "internalType": "address",
          "name": "poolBeaconAddress_",
          "type": "address"
        },
        {
          "internalType": "address",
          "name": "registryBeaconAddress_",
          "type": "address"
        },
        {
          "internalType": "address",
          "name": "upkeepBeaconAddress_",
          "type": "address"
        },
        {
          "internalType": "address",
          "name": "viewsBeaconAddress_",
          "type": "address"
        }
      ],
      "stateMutability": "nonpayable",
      "type": "constructor"
    },
    {
      "inputs": [],
      "name": "InvalidAddress",
      "type": "error"
    },
    {
      "inputs": [],
      "name": "InvalidAmount",
      "type": "error"
    },
    {
      "inputs": [],
      "name": "PoolAlreadyInitiated",
      "type": "error"
    },
    {
      "inputs": [],
      "name": "PoolAlreadyWithdrawn",
      "type": "error"
    },
    {
      "inputs": [],
      "name": "PoolMaxReshared",
      "type": "error"
    },
    {
      "inputs": [],
      "name": "PoolNotActive",
      "type": "error"
    },
    {
      "inputs": [],
      "name": "PoolNotExiting",
      "type": "error"
    },
    {
      "inputs": [],
      "name": "PoolNotPending",
      "type": "error"
    },
    {
      "inputs": [],
      "name": "TransferFailed",
      "type": "error"
    },
    {
      "inputs": [],
      "name": "Unauthorized",
      "type": "error"
    },
    {
      "anonymous": false,
      "inputs": [
        {
          "indexed": true,
          "internalType": "uint32",
          "name": "managerId",
          "type": "uint32"
        },
        {
          "indexed": false,
          "internalType": "address",
          "name": "newFunctionsOracleAddress",
          "type": "address"
        }
      ],
      "name": "FunctionsOracleSet",
      "type": "event"
    },
    {
      "anonymous": false,
      "inputs": [
        {
          "indexed": true,
          "internalType": "uint32",
          "name": "managerId",
          "type": "uint32"
        },
        {
          "indexed": false,
          "internalType": "string",
          "name": "newRequestSource",
          "type": "string"
        },
        {
          "indexed": false,
          "internalType": "string[]",
          "name": "newRequestArgs",
          "type": "string[]"
        },
        {
          "indexed": false,
          "internalType": "uint32",
          "name": "newFulfillGasLimit",
          "type": "uint32"
        }
      ],
      "name": "FunctionsRequestSet",
      "type": "event"
    },
    {
      "anonymous": false,
      "inputs": [
        {
          "indexed": false,
          "internalType": "uint8",
          "name": "version",
          "type": "uint8"
        }
      ],
      "name": "Initialized",
      "type": "event"
    },
    {
      "anonymous": false,
      "inputs": [
        {
          "indexed": false,
          "internalType": "uint32",
          "name": "managerId",
          "type": "uint32"
        }
      ],
      "name": "ManagerDeployed",
      "type": "event"
    },
    {
      "anonymous": false,
      "inputs": [
        {
          "indexed": true,
          "internalType": "address",
          "name": "previousOwner",
          "type": "address"
        },
        {
          "indexed": true,
          "internalType": "address",
          "name": "newOwner",
          "type": "address"
        }
      ],
      "name": "OwnershipTransferred",
      "type": "event"
    },
    {
      "anonymous": false,
      "inputs": [
        {
          "indexed": true,
          "internalType": "uint32",
          "name": "managerId",
          "type": "uint32"
        },
        {
          "indexed": false,
          "internalType": "uint256",
          "name": "amount",
          "type": "uint256"
        }
      ],
      "name": "ReservedFeesWithdrawn",
      "type": "event"
    },
    {
      "inputs": [
        {
          "internalType": "address",
          "name": "daoOracleAddress",
          "type": "address"
        },
        {
          "internalType": "address",
          "name": "functionsOracleAddress",
          "type": "address"
        },
        {
          "components": [
            {
              "internalType": "uint256",
              "name": "minCollateral",
              "type": "uint256"
            },
            {
              "internalType": "uint256",
              "name": "lockPeriod",
              "type": "uint256"
            },
            {
              "internalType": "uint32",
              "name": "userFee",
              "type": "uint32"
            },
            {
              "internalType": "bool",
              "name": "compoundStake",
              "type": "bool"
            },
            {
              "internalType": "bool",
              "name": "eigenStake",
              "type": "bool"
            },
            {
              "internalType": "bool",
              "name": "liquidStake",
              "type": "bool"
            },
            {
              "internalType": "bool",
              "name": "privateOperators",
              "type": "bool"
            },
            {
              "internalType": "bool",
              "name": "verifiedOperators",
              "type": "bool"
            }
          ],
          "internalType": "struct ICasimirCore.Strategy",
          "name": "strategy",
          "type": "tuple"
        }
      ],
      "name": "deployManager",
      "outputs": [],
      "stateMutability": "nonpayable",
      "type": "function"
    },
    {
      "inputs": [
        {
          "internalType": "uint32",
          "name": "managerId",
          "type": "uint32"
        }
      ],
      "name": "getManagerConfig",
      "outputs": [
        {
          "components": [
            {
              "internalType": "address",
              "name": "managerAddress",
              "type": "address"
            },
            {
              "internalType": "address",
              "name": "registryAddress",
              "type": "address"
            },
            {
              "internalType": "address",
              "name": "upkeepAddress",
              "type": "address"
            },
            {
              "internalType": "address",
              "name": "viewsAddress",
              "type": "address"
            },
            {
              "components": [
                {
                  "internalType": "uint256",
                  "name": "minCollateral",
                  "type": "uint256"
                },
                {
                  "internalType": "uint256",
                  "name": "lockPeriod",
                  "type": "uint256"
                },
                {
                  "internalType": "uint32",
                  "name": "userFee",
                  "type": "uint32"
                },
                {
                  "internalType": "bool",
                  "name": "compoundStake",
                  "type": "bool"
                },
                {
                  "internalType": "bool",
                  "name": "eigenStake",
                  "type": "bool"
                },
                {
                  "internalType": "bool",
                  "name": "liquidStake",
                  "type": "bool"
                },
                {
                  "internalType": "bool",
                  "name": "privateOperators",
                  "type": "bool"
                },
                {
                  "internalType": "bool",
                  "name": "verifiedOperators",
                  "type": "bool"
                }
              ],
              "internalType": "struct ICasimirCore.Strategy",
              "name": "strategy",
              "type": "tuple"
            }
          ],
          "internalType": "struct ICasimirCore.ManagerConfig",
          "name": "",
          "type": "tuple"
        }
      ],
      "stateMutability": "view",
      "type": "function"
    },
    {
      "inputs": [],
      "name": "getManagerIds",
      "outputs": [
        {
          "internalType": "uint32[]",
          "name": "",
          "type": "uint32[]"
        }
      ],
      "stateMutability": "view",
      "type": "function"
    },
    {
      "inputs": [],
      "name": "getOwner",
      "outputs": [
        {
          "internalType": "address",
          "name": "",
          "type": "address"
        }
      ],
      "stateMutability": "view",
      "type": "function"
    },
    {
      "inputs": [],
      "name": "initialize",
      "outputs": [],
      "stateMutability": "nonpayable",
      "type": "function"
    },
    {
      "inputs": [],
      "name": "managerBeaconAddress",
      "outputs": [
        {
          "internalType": "address",
          "name": "",
          "type": "address"
        }
      ],
      "stateMutability": "view",
      "type": "function"
    },
    {
      "inputs": [],
      "name": "owner",
      "outputs": [
        {
          "internalType": "address",
          "name": "",
          "type": "address"
        }
      ],
      "stateMutability": "view",
      "type": "function"
    },
    {
      "inputs": [],
      "name": "poolBeaconAddress",
      "outputs": [
        {
          "internalType": "address",
          "name": "",
          "type": "address"
        }
      ],
      "stateMutability": "view",
      "type": "function"
    },
    {
      "inputs": [],
      "name": "registryBeaconAddress",
      "outputs": [
        {
          "internalType": "address",
          "name": "",
          "type": "address"
        }
      ],
      "stateMutability": "view",
      "type": "function"
    },
    {
      "inputs": [],
      "name": "renounceOwnership",
      "outputs": [],
      "stateMutability": "nonpayable",
      "type": "function"
    },
    {
      "inputs": [
        {
          "internalType": "address",
          "name": "newOwner",
          "type": "address"
        }
      ],
      "name": "transferOwnership",
      "outputs": [],
      "stateMutability": "nonpayable",
      "type": "function"
    },
    {
      "inputs": [],
      "name": "upkeepBeaconAddress",
      "outputs": [
        {
          "internalType": "address",
          "name": "",
          "type": "address"
        }
      ],
      "stateMutability": "view",
      "type": "function"
    },
    {
      "inputs": [],
      "name": "viewsBeaconAddress",
      "outputs": [
        {
          "internalType": "address",
          "name": "",
          "type": "address"
        }
      ],
      "stateMutability": "view",
      "type": "function"
    }
  ],
  "bytecode": "0x610120604052346200007157620000236200001962000155565b939290926200017f565b6040516115a76200037e823960805181818161059d0152610d1e015260a0518161041f015260c05181610564015260e051816101d20152610100518181816106020152610dd801526115a790f35b600080fd5b634e487b7160e01b600052604160045260246000fd5b90601f01601f191681019081106001600160401b03821117620000ae57604052565b62000076565b90620000cb620000c360405190565b92836200008c565b565b6001600160a01b031690565b90565b620000e781620000cd565b036200007157565b90505190620000cb82620000dc565b919060a0838203126200007157620001178184620000ef565b92620001278260208301620000ef565b92620000d96200013b8460408501620000ef565b936200014b8160608601620000ef565b93608001620000ef565b6200017862001925803803806200016c81620000b4565b928339810190620000fe565b9091929394565b6200018a8162000342565b620001958262000342565b620001a08362000342565b620001ab8462000342565b620001b68562000342565b60805260a05260c05260e05261010052620000cb6200029a565b620000d99060081c5b60ff1690565b620000d99054620001d0565b15620001f357565b60405162461bcd60e51b815260206004820152602760248201527f496e697469616c697a61626c653a20636f6e747261637420697320696e697469604482015266616c697a696e6760c81b6064820152608490fd5b620000d990620001d9565b620000d9905462000248565b620001d9620000d9620000d99260ff1690565b9062000286620000d962000296926200025f565b825460ff191660ff919091161790565b9055565b620002b8620002b2620002ae6000620001df565b1590565b620001eb565b620002c4600062000253565b60ff908190811603620002d45750565b620002e181600062000272565b620003227f7f26b83ff96e1f2b6a682f133852f6798a09c465da95921460cefb3847402498916200031160405190565b9182918260ff909116815260200190565b0390a1565b620000cd620000d9620000d99290565b620000d99062000327565b620003636200035c62000356600062000337565b620000cd565b91620000cd565b146200036b57565b60405163e6c4247b60e01b8152600490fdfe6080604052600436101561001257600080fd5b60003560e01c806301e5695d146100e2578063042711b3146100dd5780631b699532146100d8578063715018a6146100d35780638129fc1c146100ce578063893d20e8146100c95780638da5cb5b146100c4578063b1aea1cd146100bf578063bdfba915146100ba578063c4009f1b146100b5578063d79cf616146100b0578063f2fde38b146100ab5763f53a6581036100f2576105ed565b6105d5565b610588565b61054f565b610528565b61040a565b6103ef565b6103d4565b6103bc565b6103a4565b610386565b6101bd565b61016b565b60009103126100f257565b600080fd5b9052565b9061011b61011461010a845190565b8084529260200190565b9260200190565b9060005b81811061012c5750505090565b90919261014f610148600192865163ffffffff16815260200190565b9460200190565b92910161011f565b6020808252610168929101906100fb565b90565b346100f25761017b3660046100e7565b6101926101866114f2565b60405191829182610157565b0390f35b6001600160a01b031690565b6100f790610196565b6020810192916101bb91906101a2565b565b346100f2576101cd3660046100e7565b6101927f00000000000000000000000000000000000000000000000000000000000000005b604051918291826101ab565b61020781610196565b036100f257565b905035906101bb826101fe565b634e487b7160e01b600052604160045260246000fd5b90601f01601f191681019081106001600160401b0382111761025257604052565b61021b565b906101bb61026460405190565b9283610231565b80610207565b905035906101bb8261026b565b63ffffffff8116610207565b905035906101bb8261027e565b801515610207565b905035906101bb82610297565b919091610100818403126100f25761034f6102c8610100610257565b9360006102d58285610271565b9086015260206102e782828601610271565b9086015260406102f98282860161028a565b90860152606061030b8282860161029f565b90860152608061031d8282860161029f565b9086015260a061032f8282860161029f565b9086015260c06103418282860161029f565b9086015260e080930161029f565b90830152565b9091610140828403126100f25761016861036f848461020e565b9361037d816020860161020e565b936040016102ac565b346100f25761039f610399366004610355565b91610ee4565b604051005b346100f2576103b43660046100e7565b61039f610672565b346100f2576103cc3660046100e7565b61039f610a63565b346100f2576103e43660046100e7565b6101926101f2611569565b346100f2576103ff3660046100e7565b6101926101f2610630565b346100f25761041a3660046100e7565b6101927f00000000000000000000000000000000000000000000000000000000000000006101f2565b906020828203126100f2576101689161028a565b805182526101bb919060e090819061047460208201516020860152565b60408181015163ffffffff169085015260608181015115159085015260808181015115159085015260a08181015115159085015260c08181015115159085015201511515910152565b906080806101bb936104d7600082015160008601906101a2565b6104e9602082015160208601906101a2565b6104fb604082015160408601906101a2565b61050d606082015160608601906101a2565b0151910190610457565b610180810192916101bb91906104bd565b346100f25761019261054361053e366004610443565b611018565b60405191829182610517565b346100f25761055f3660046100e7565b6101927f00000000000000000000000000000000000000000000000000000000000000006101f2565b346100f2576105983660046100e7565b6101927f00000000000000000000000000000000000000000000000000000000000000006101f2565b906020828203126100f2576101689161020e565b346100f25761039f6105e83660046105c1565b610786565b346100f2576105fd3660046100e7565b6101927f00000000000000000000000000000000000000000000000000000000000000006101f2565b6101689054610196565b6101686033610626565b6106426106ce565b6101bb610660565b6101966101686101689290565b6101689061064a565b6101bb61066d6000610657565b6107e5565b6101bb61063a565b1561068157565b60405162461bcd60e51b8152806106ca600482016020808252818101527f4f776e61626c653a2063616c6c6572206973206e6f7420746865206f776e6572604082015260600190565b0390fd5b6101bb6106d9610630565b6106f06106ea33610196565b610196565b91610196565b1461067a565b6101bb906107026106ce565b610762565b1561070e57565b60405162461bcd60e51b815260206004820152602660248201527f4f776e61626c653a206e6577206f776e657220697320746865207a65726f206160448201526564647265737360d01b6064820152608490fd5b6101bb9061066d6107766106e56000610657565b61077f83610196565b1415610707565b6101bb906106f6565b906001600160a01b03905b9181191691161790565b61016890610196906001600160a01b031682565b610168906107a4565b610168906107b8565b906107da6101686107e1926107c1565b825461078f565b9055565b6107ef6033610626565b906107fb8160336107ca565b61082e6108287f8be0079c531659141344cd1fd0a4f28419497f9722a3daafe3b4186f6b6457e0936107c1565b916107c1565b9161083860405190565b600090a3565b6101689060081c5b60ff1690565b610168905461083e565b61016890610846565b6101689054610856565b6108466101686101689290565b1561087d57565b60405162461bcd60e51b815260206004820152602e60248201527f496e697469616c697a61626c653a20636f6e747261637420697320616c72656160448201526d191e481a5b9a5d1a585b1a5e995960921b6064820152608490fd5b9060ff9061079a565b6108466101686101689260ff1690565b906109026101686107e1926108e2565b82546108d9565b9061ff009060081b61079a565b906109266101686107e192151590565b8254610909565b6100f790610869565b6020810192916101bb919061092d565b610957610953600061084c565b1590565b8080610a35575b80156109f0575b61096e90610876565b6001908061098561097e84610869565b60006108f2565b6109e0575b610992610a53565b6109995750565b6109a4600080610916565b6109db7f7f26b83ff96e1f2b6a682f133852f6798a09c465da95921460cefb3847402498916109d260405190565b91829182610936565b0390a1565b6109eb826000610916565b61098a565b50610a05610953610a00306107c1565b610b96565b8015610965575061096e610a19600061085f565b610a2d610a266001610869565b9160ff1690565b149050610965565b50610a40600061085f565b610a4d610a266001610869565b1061095e565b610a5b610ae8565b6101bb610b27565b6101bb610946565b15610a7257565b60405162461bcd60e51b815260206004820152602b60248201527f496e697469616c697a61626c653a20636f6e7472616374206973206e6f74206960448201526a6e697469616c697a696e6760a81b6064820152608490fd5b610add610ad8600061084c565b610a6b565b6101bb6101bb610b07565b6101bb610acb565b610afd610ad8600061084c565b6101bb80336107e5565b6101bb610af0565b610b1c610ad8600061084c565b6101bb6101bb610b8e565b6101bb610b0f565b610b3c610ad8600061084c565b6101bb610b7c565b6101686101686101689290565b6101686001610b44565b906000199061079a565b90610b756101686107e192610b44565b8254610b5b565b6101bb610b87610b51565b6065610b65565b6101bb610b2f565b3b610ba8610ba46000610b44565b9190565b1190565b906101bb9291610bba6106ce565b610ce4565b905051906101bb826101fe565b906020828203126100f25761016891610bbf565b610c176101bb94610c0d606094989795610c0361016086019a60008701906101a2565b60208501906101a2565b60408301906101a2565b0190610457565b6040513d6000823e3d90fd5b610168905b63ffffffff1690565b6101689054610c2a565b634e487b7160e01b600052601160045260246000fd5b63ffffffff1663ffffffff8114610c6f5760010190565b610c42565b9063ffffffff9061079a565b610c2f6101686101689263ffffffff1690565b90610ca36101686107e192610c80565b8254610c74565b90610cb490610c80565b600052602052604060002090565b9160206101bb929493610cdd604082019660008301906101a2565b01906101a2565b90610d52602091610cf484610eef565b610cfd81610eef565b610d5d73__$9b59661500862860ed33a22dd071583f74$__9563b94c0252927f000000000000000000000000000000000000000000000000000000000000000096610d4760405190565b978896879660e01b90565b865260048601610be0565b0381855af4908115610ec257610dc5610dc0602093610dca93600091610ec7575b50610db0609791610dab610d9a610d956099610c38565b610c58565b610da5816099610c93565b84610caa565b6107ca565b610dba6099610c38565b90610caa565b610626565b6107c1565b6316a4ed7692610e17610dfd7f0000000000000000000000000000000000000000000000000000000000000000936107c1565b94610e22610e0a60405190565b9687958694859460e01b90565b845260048401610cc2565b03915af48015610ec257610e4891600091610e94575b50610dab6098610dba6099610c38565b610e526099610c38565b6109db7fcd33a2d7d0e2f5ef2bd7ae4f3129dfdbde60cd84063bf18fa3c15e6a3753129291610e8060405190565b9182918263ffffffff909116815260200190565b610eb5915060203d8111610ebb575b610ead8183610231565b810190610bcc565b38610e38565b503d610ea3565b610c1e565b610ede9150853d8111610ebb57610ead8183610231565b38610d7e565b906101bb9291610bac565b610eff6106ea6106e56000610657565b14610f0657565b60405163e6c4247b60e01b8152600490fd5b61016860a0610257565b610168610100610257565b610f35610f22565b906000825260208080808080808089016000815201600081520160008152016000815201600081520160008152016000905250565b905250565b610168610f2d565b610f7f610f18565b90600082526020808080808601600081520160008152016000815201610f6a610f6f565b610168610f77565b905051906101bb8261026b565b906020828203126100f25761016891610fab565b905051906101bb8261027e565b906020828203126100f25761016891610fcc565b905051906101bb82610297565b906020828203126100f25761016891610fed565b906100f790610196565b611020610fa3565b506097611036610dc5610dc5610dc08585610caa565b9063f21de1e861104f61104860405190565b9160e01b90565b8152602081600481865afa8015610ec25761107291600091611410575b506107c1565b9263a2089f0e61108461104860405190565b8152602081600481875afa908115610ec2576110cd6110c76110c1610dc0866110bb6110d597610dc09760009161141057506107c1565b98610caa565b976107c1565b946107c1565b926098610caa565b9163ba2de9bc936110ef6110e860405190565b9560e01b90565b8552602085600481855afa948515610ec2576000956113f0575b50633fd8b02f9061112361111c60405190565b9260e01b90565b8252602082600481845afa918215610ec2576000926113c0575b506342a1bbd29061115061111c60405190565b8252602082600481845afa918215610ec257600092611390575b506364d310e69061117d61111c60405190565b8252602082600481895afa918215610ec257600092611370575b5063efa3fdc9916111b16111aa60405190565b9360e01b90565b8352602083600481855afa918215610ec2576111e49360009361134e575b506040519360209185916333b844bd60e11b90565b825260049082905afa928315610ec25760009361132e575b50630891c80e9361120f6110e860405190565b85526020856004818a5afa948515610ec25760009561130e575b5063ea70b5049561124361123c60405190565b9760e01b90565b87526020876004818b5afa968715610ec2576000976112de575b50611266610f22565b9a8b5260208b015263ffffffff1660408a01521515606089015215156080880152151560a0870152151560c0860152151560e08501526112a4610f18565b946112af908661100e565b6112bc906020860161100e565b6112c9906040850161100e565b6112d6906060840161100e565b608082015290565b61130091975060203d8111611307575b6112f88183610231565b810190610ffa565b953861125d565b503d6112ee565b61132791955060203d8111611307576112f88183610231565b9338611229565b61134791935060203d8111611307576112f88183610231565b91386111fc565b602091935061136990823d8111611307576112f88183610231565b92906111cf565b61138991925060203d8111611307576112f88183610231565b9038611197565b6113b291925060203d81116113b9575b6113aa8183610231565b810190610fd9565b903861116a565b503d6113a0565b6113e291925060203d81116113e9575b6113da8183610231565b810190610fb8565b903861113d565b503d6113d0565b61140991955060203d81116113e9576113da8183610231565b9338611109565b611428915060203d8111610ebb57610ead8183610231565b3861106c565b6101686101686101689263ffffffff1690565b6001600160401b0381116102525760208091020190565b9061146a61146583611441565b610257565b918252565b369037565b906101bb61148a61148484611458565b93611441565b601f19016020840161146f565b610c2f6101686101689290565b63ffffffff9081169116019063ffffffff8211610c6f57565b634e487b7160e01b600052603260045260246000fd5b906114dc825190565b8110156114ed576020809102010190565b6114bd565b61150c6115076115026099610c38565b61142e565b611474565b60005b61151c610c2f6099610c38565b63ffffffff821610156115655761156090610d9561154361153d6001611497565b836114a4565b61155561154f8461142e565b866114d3565b9063ffffffff169052565b61150f565b5090565b61016861063056fea2646970667358221220234d23f6ec9d9a7301f02be695ab2363586a8cb2adc54bd25ac26080c81a8b0d64736f6c63430008120033",
  "linkReferences": {
    "src/v1/libraries/CasimirBeacon.sol": {
      "CasimirBeacon": [
        {
          "length": 20,
          "start": 4224
        }
      ]
    }
  },
  "deployedLinkReferences": {
    "src/v1/libraries/CasimirBeacon.sol": {
      "CasimirBeacon": [
        {
          "length": 20,
          "start": 3330
        }
      ]
    }
  }
}