{
  "_format": "hh-sol-artifact-1",
  "contractName": "ConfirmedOwnerWithProposal",
  "sourceName": "@chainlink/contracts/src/v0.8/ConfirmedOwnerWithProposal.sol",
  "abi": [
    {
      "inputs": [
        {
          "internalType": "address",
          "name": "newOwner",
          "type": "address"
        },
        {
          "internalType": "address",
          "name": "pendingOwner",
          "type": "address"
        }
      ],
      "stateMutability": "nonpayable",
      "type": "constructor"
    },
    {
      "anonymous": false,
      "inputs": [
        {
          "indexed": true,
          "internalType": "address",
          "name": "from",
          "type": "address"
        },
        {
          "indexed": true,
          "internalType": "address",
          "name": "to",
          "type": "address"
        }
      ],
      "name": "OwnershipTransferRequested",
      "type": "event"
    },
    {
      "anonymous": false,
      "inputs": [
        {
          "indexed": true,
          "internalType": "address",
          "name": "from",
          "type": "address"
        },
        {
          "indexed": true,
          "internalType": "address",
          "name": "to",
          "type": "address"
        }
      ],
      "name": "OwnershipTransferred",
      "type": "event"
    },
    {
      "inputs": [],
      "name": "acceptOwnership",
      "outputs": [],
      "stateMutability": "nonpayable",
      "type": "function"
    },
    {
      "inputs": [],
      "name": "owner",
      "outputs": [
        {
          "internalType": "address",
          "name": "",
          "type": "address"
        }
      ],
      "stateMutability": "view",
      "type": "function"
    },
    {
      "inputs": [
        {
          "internalType": "address",
          "name": "to",
          "type": "address"
        }
      ],
      "name": "transferOwnership",
      "outputs": [],
      "stateMutability": "nonpayable",
      "type": "function"
    }
  ],
  "bytecode": "0x60806040523462000031576200001f62000018620000e6565b90620001e6565b6040516103cb6200034182396103cb90f35b600080fd5b634e487b7160e01b600052604160045260246000fd5b90601f01601f191681019081106001600160401b038211176200006e57604052565b62000036565b906200008b6200008360405190565b92836200004c565b565b6001600160a01b031690565b90565b620000a7816200008d565b036200003157565b905051906200008b826200009c565b919060408382031262000031576200009990620000dc8185620000af565b93602001620000af565b620001096200070c80380380620000fd8162000074565b928339810190620000be565b9091565b6200008d62000099620000999290565b62000099906200010d565b60208082526018908201527f43616e6e6f7420736574206f776e657220746f207a65726f0000000000000000604082015260600190565b156200016757565b60405162461bcd60e51b815280620001826004820162000128565b0390fd5b62000099906200008d906001600160a01b031682565b620000999062000186565b62000099906200019c565b90620001c662000099620001e292620001a7565b82546001600160a01b0319166001600160a01b03919091161790565b9055565b6200022c9062000226600091620001fd836200011d565b92620002206200020d856200008d565b62000218846200008d565b14156200015f565b620001b2565b6200008d565b62000237826200008d565b03620002405750565b6200008b90620002bc565b60208082526017908201527f43616e6e6f74207472616e7366657220746f2073656c66000000000000000000604082015260600190565b156200028a57565b60405162461bcd60e51b81528062000182600482016200024b565b62000099906200008d565b620000999054620002a5565b620002de620002cb336200008d565b620002d6836200008d565b141562000282565b620002eb816001620001b2565b620002f76000620002b0565b906200032f620003287fed8889f560326eb138920d842192f0eb3dd22b4f139c87a2c57538e05bae127893620001a7565b91620001a7565b916200033a60405190565b600090a356fe6080604052600436101561001257600080fd5b60003560e01c806379ba5097146100425780638da5cb5b1461003d5763f2fde38b03610052576100fe565b6100a6565b610057565b600091031261005257565b600080fd5b3461005257610067366004610047565b61006f6101ef565b604051005b0390f35b6001600160a01b031690565b90565b61009090610078565b9052565b6020810192916100a49190610087565b565b34610052576100b6366004610047565b6100746100c1610281565b60405191829182610094565b6100d681610078565b0361005257565b905035906100a4826100cd565b9060208282031261005257610084916100dd565b346100525761006f6101113660046100ea565b61012b565b6100a490610122610375565b6100a4906102d1565b6100a490610116565b6100849054610078565b1561014557565b60405162461bcd60e51b815260206004820152601660248201527526bab9ba10313290383937b837b9b2b21037bbb732b960511b6044820152606490fd5b61008490610078906001600160a01b031682565b61008490610183565b61008490610197565b906101b96100846101d5926101a0565b82546001600160a01b0319166001600160a01b03919091161790565b9055565b6100786100846100849290565b610084906101d9565b336102146102056102006001610134565b610078565b61020e83610078565b1461013e565b61021e6000610134565b9061022a8160006101a9565b61023e61023760006101e6565b60016101a9565b61027161026b7f8be0079c531659141344cd1fd0a4f28419497f9722a3daafe3b4186f6b6457e0936101a0565b916101a0565b9161027b60405190565b600090a3565b6100846000610134565b1561029257565b60405162461bcd60e51b815260206004820152601760248201527621b0b73737ba103a3930b739b332b9103a379039b2b63360491b6044820152606490fd5b6102ed6102dd33610078565b6102e683610078565b141561028b565b6102f88160016101a9565b6103026000610134565b9061027161026b7fed8889f560326eb138920d842192f0eb3dd22b4f139c87a2c57538e05bae1278936101a0565b1561033757565b60405162461bcd60e51b815260206004820152601660248201527527b7363c9031b0b63630b1363290313c9037bbb732b960511b6044820152606490fd5b6100a43361038f6103896102006000610134565b91610078565b1461033056fea26469706673582212207e018b8b3b67fb8ee34c4195cf128e2a8ebf99a5786a3b3ca8e6ff390cad384d64736f6c63430008120033",
  "linkReferences": {},
  "deployedLinkReferences": {}
}