{
  "_format": "hh-sol-artifact-1",
  "contractName": "FunctionsBillingRegistry",
  "sourceName": "@chainlink/contracts/src/v0.8/dev/functions/FunctionsBillingRegistry.sol",
  "abi": [
    {
      "inputs": [
        {
          "internalType": "address",
          "name": "link",
          "type": "address"
        },
        {
          "internalType": "address",
          "name": "linkEthFeed",
          "type": "address"
        },
        {
          "internalType": "address",
          "name": "oracle",
          "type": "address"
        }
      ],
      "stateMutability": "nonpayable",
      "type": "constructor"
    },
    {
      "inputs": [
        {
          "internalType": "uint256",
          "name": "internalBalance",
          "type": "uint256"
        },
        {
          "internalType": "uint256",
          "name": "externalBalance",
          "type": "uint256"
        }
      ],
      "name": "BalanceInvariantViolated",
      "type": "error"
    },
    {
      "inputs": [],
      "name": "EmptySendersList",
      "type": "error"
    },
    {
      "inputs": [
        {
          "internalType": "uint32",
          "name": "have",
          "type": "uint32"
        },
        {
          "internalType": "uint32",
          "name": "want",
          "type": "uint32"
        }
      ],
      "name": "GasLimitTooBig",
      "type": "error"
    },
    {
      "inputs": [],
      "name": "IncorrectRequestID",
      "type": "error"
    },
    {
      "inputs": [],
      "name": "InsufficientBalance",
      "type": "error"
    },
    {
      "inputs": [],
      "name": "InvalidCalldata",
      "type": "error"
    },
    {
      "inputs": [
        {
          "internalType": "uint64",
          "name": "subscriptionId",
          "type": "uint64"
        },
        {
          "internalType": "address",
          "name": "consumer",
          "type": "address"
        }
      ],
      "name": "InvalidConsumer",
      "type": "error"
    },
    {
      "inputs": [
        {
          "internalType": "int256",
          "name": "linkWei",
          "type": "int256"
        }
      ],
      "name": "InvalidLinkWeiPrice",
      "type": "error"
    },
    {
      "inputs": [],
      "name": "InvalidSubscription",
      "type": "error"
    },
    {
      "inputs": [
        {
          "internalType": "address",
          "name": "proposedOwner",
          "type": "address"
        }
      ],
      "name": "MustBeRequestedOwner",
      "type": "error"
    },
    {
      "inputs": [
        {
          "internalType": "address",
          "name": "owner",
          "type": "address"
        }
      ],
      "name": "MustBeSubOwner",
      "type": "error"
    },
    {
      "inputs": [],
      "name": "NotAllowedToSetSenders",
      "type": "error"
    },
    {
      "inputs": [],
      "name": "OnlyCallableFromLink",
      "type": "error"
    },
    {
      "inputs": [],
      "name": "PaymentTooLarge",
      "type": "error"
    },
    {
      "inputs": [],
      "name": "PendingRequestExists",
      "type": "error"
    },
    {
      "inputs": [],
      "name": "Reentrant",
      "type": "error"
    },
    {
      "inputs": [],
      "name": "TooManyConsumers",
      "type": "error"
    },
    {
      "inputs": [],
      "name": "UnauthorizedSender",
      "type": "error"
    },
    {
      "anonymous": false,
      "inputs": [
        {
          "indexed": false,
          "internalType": "address[]",
          "name": "senders",
          "type": "address[]"
        },
        {
          "indexed": false,
          "internalType": "address",
          "name": "changedBy",
          "type": "address"
        }
      ],
      "name": "AuthorizedSendersChanged",
      "type": "event"
    },
    {
      "anonymous": false,
      "inputs": [
        {
          "indexed": true,
          "internalType": "bytes32",
          "name": "requestId",
          "type": "bytes32"
        },
        {
          "indexed": false,
          "internalType": "uint64",
          "name": "subscriptionId",
          "type": "uint64"
        },
        {
          "indexed": false,
          "internalType": "uint96",
          "name": "signerPayment",
          "type": "uint96"
        },
        {
          "indexed": false,
          "internalType": "uint96",
          "name": "transmitterPayment",
          "type": "uint96"
        },
        {
          "indexed": false,
          "internalType": "uint96",
          "name": "totalCost",
          "type": "uint96"
        },
        {
          "indexed": false,
          "internalType": "bool",
          "name": "success",
          "type": "bool"
        }
      ],
      "name": "BillingEnd",
      "type": "event"
    },
    {
      "anonymous": false,
      "inputs": [
        {
          "indexed": true,
          "internalType": "bytes32",
          "name": "requestId",
          "type": "bytes32"
        },
        {
          "components": [
            {
              "internalType": "uint64",
              "name": "subscriptionId",
              "type": "uint64"
            },
            {
              "internalType": "address",
              "name": "client",
              "type": "address"
            },
            {
              "internalType": "uint32",
              "name": "gasLimit",
              "type": "uint32"
            },
            {
              "internalType": "uint256",
              "name": "gasPrice",
              "type": "uint256"
            },
            {
              "internalType": "address",
              "name": "don",
              "type": "address"
            },
            {
              "internalType": "uint96",
              "name": "donFee",
              "type": "uint96"
            },
            {
              "internalType": "uint96",
              "name": "registryFee",
              "type": "uint96"
            },
            {
              "internalType": "uint96",
              "name": "estimatedCost",
              "type": "uint96"
            },
            {
              "internalType": "uint256",
              "name": "timestamp",
              "type": "uint256"
            }
          ],
          "indexed": false,
          "internalType": "struct FunctionsBillingRegistry.Commitment",
          "name": "commitment",
          "type": "tuple"
        }
      ],
      "name": "BillingStart",
      "type": "event"
    },
    {
      "anonymous": false,
      "inputs": [
        {
          "indexed": false,
          "internalType": "uint32",
          "name": "maxGasLimit",
          "type": "uint32"
        },
        {
          "indexed": false,
          "internalType": "uint32",
          "name": "stalenessSeconds",
          "type": "uint32"
        },
        {
          "indexed": false,
          "internalType": "uint256",
          "name": "gasAfterPaymentCalculation",
          "type": "uint256"
        },
        {
          "indexed": false,
          "internalType": "int256",
          "name": "fallbackWeiPerUnitLink",
          "type": "int256"
        },
        {
          "indexed": false,
          "internalType": "uint32",
          "name": "gasOverhead",
          "type": "uint32"
        }
      ],
      "name": "ConfigSet",
      "type": "event"
    },
    {
      "anonymous": false,
      "inputs": [
        {
          "indexed": false,
          "internalType": "address",
          "name": "to",
          "type": "address"
        },
        {
          "indexed": false,
          "internalType": "uint256",
          "name": "amount",
          "type": "uint256"
        }
      ],
      "name": "FundsRecovered",
      "type": "event"
    },
    {
      "anonymous": false,
      "inputs": [
        {
          "indexed": true,
          "internalType": "address",
          "name": "from",
          "type": "address"
        },
        {
          "indexed": true,
          "internalType": "address",
          "name": "to",
          "type": "address"
        }
      ],
      "name": "OwnershipTransferRequested",
      "type": "event"
    },
    {
      "anonymous": false,
      "inputs": [
        {
          "indexed": true,
          "internalType": "address",
          "name": "from",
          "type": "address"
        },
        {
          "indexed": true,
          "internalType": "address",
          "name": "to",
          "type": "address"
        }
      ],
      "name": "OwnershipTransferred",
      "type": "event"
    },
    {
      "anonymous": false,
      "inputs": [
        {
          "indexed": false,
          "internalType": "address",
          "name": "account",
          "type": "address"
        }
      ],
      "name": "Paused",
      "type": "event"
    },
    {
      "anonymous": false,
      "inputs": [
        {
          "indexed": true,
          "internalType": "bytes32",
          "name": "requestId",
          "type": "bytes32"
        }
      ],
      "name": "RequestTimedOut",
      "type": "event"
    },
    {
      "anonymous": false,
      "inputs": [
        {
          "indexed": true,
          "internalType": "uint64",
          "name": "subscriptionId",
          "type": "uint64"
        },
        {
          "indexed": false,
          "internalType": "address",
          "name": "to",
          "type": "address"
        },
        {
          "indexed": false,
          "internalType": "uint256",
          "name": "amount",
          "type": "uint256"
        }
      ],
      "name": "SubscriptionCanceled",
      "type": "event"
    },
    {
      "anonymous": false,
      "inputs": [
        {
          "indexed": true,
          "internalType": "uint64",
          "name": "subscriptionId",
          "type": "uint64"
        },
        {
          "indexed": false,
          "internalType": "address",
          "name": "consumer",
          "type": "address"
        }
      ],
      "name": "SubscriptionConsumerAdded",
      "type": "event"
    },
    {
      "anonymous": false,
      "inputs": [
        {
          "indexed": true,
          "internalType": "uint64",
          "name": "subscriptionId",
          "type": "uint64"
        },
        {
          "indexed": false,
          "internalType": "address",
          "name": "consumer",
          "type": "address"
        }
      ],
      "name": "SubscriptionConsumerRemoved",
      "type": "event"
    },
    {
      "anonymous": false,
      "inputs": [
        {
          "indexed": true,
          "internalType": "uint64",
          "name": "subscriptionId",
          "type": "uint64"
        },
        {
          "indexed": false,
          "internalType": "address",
          "name": "owner",
          "type": "address"
        }
      ],
      "name": "SubscriptionCreated",
      "type": "event"
    },
    {
      "anonymous": false,
      "inputs": [
        {
          "indexed": true,
          "internalType": "uint64",
          "name": "subscriptionId",
          "type": "uint64"
        },
        {
          "indexed": false,
          "internalType": "uint256",
          "name": "oldBalance",
          "type": "uint256"
        },
        {
          "indexed": false,
          "internalType": "uint256",
          "name": "newBalance",
          "type": "uint256"
        }
      ],
      "name": "SubscriptionFunded",
      "type": "event"
    },
    {
      "anonymous": false,
      "inputs": [
        {
          "indexed": true,
          "internalType": "uint64",
          "name": "subscriptionId",
          "type": "uint64"
        },
        {
          "indexed": false,
          "internalType": "address",
          "name": "from",
          "type": "address"
        },
        {
          "indexed": false,
          "internalType": "address",
          "name": "to",
          "type": "address"
        }
      ],
      "name": "SubscriptionOwnerTransferRequested",
      "type": "event"
    },
    {
      "anonymous": false,
      "inputs": [
        {
          "indexed": true,
          "internalType": "uint64",
          "name": "subscriptionId",
          "type": "uint64"
        },
        {
          "indexed": false,
          "internalType": "address",
          "name": "from",
          "type": "address"
        },
        {
          "indexed": false,
          "internalType": "address",
          "name": "to",
          "type": "address"
        }
      ],
      "name": "SubscriptionOwnerTransferred",
      "type": "event"
    },
    {
      "anonymous": false,
      "inputs": [
        {
          "indexed": false,
          "internalType": "address",
          "name": "account",
          "type": "address"
        }
      ],
      "name": "Unpaused",
      "type": "event"
    },
    {
      "inputs": [],
      "name": "LINK",
      "outputs": [
        {
          "internalType": "contract LinkTokenInterface",
          "name": "",
          "type": "address"
        }
      ],
      "stateMutability": "view",
      "type": "function"
    },
    {
      "inputs": [],
      "name": "LINK_ETH_FEED",
      "outputs": [
        {
          "internalType": "contract AggregatorV3Interface",
          "name": "",
          "type": "address"
        }
      ],
      "stateMutability": "view",
      "type": "function"
    },
    {
      "inputs": [],
      "name": "MAX_CONSUMERS",
      "outputs": [
        {
          "internalType": "uint16",
          "name": "",
          "type": "uint16"
        }
      ],
      "stateMutability": "view",
      "type": "function"
    },
    {
      "inputs": [],
      "name": "acceptOwnership",
      "outputs": [],
      "stateMutability": "nonpayable",
      "type": "function"
    },
    {
      "inputs": [
        {
          "internalType": "uint64",
          "name": "subscriptionId",
          "type": "uint64"
        }
      ],
      "name": "acceptSubscriptionOwnerTransfer",
      "outputs": [],
      "stateMutability": "nonpayable",
      "type": "function"
    },
    {
      "inputs": [
        {
          "internalType": "uint64",
          "name": "subscriptionId",
          "type": "uint64"
        },
        {
          "internalType": "address",
          "name": "consumer",
          "type": "address"
        }
      ],
      "name": "addConsumer",
      "outputs": [],
      "stateMutability": "nonpayable",
      "type": "function"
    },
    {
      "inputs": [
        {
          "internalType": "uint64",
          "name": "subscriptionId",
          "type": "uint64"
        },
        {
          "internalType": "address",
          "name": "to",
          "type": "address"
        }
      ],
      "name": "cancelSubscription",
      "outputs": [],
      "stateMutability": "nonpayable",
      "type": "function"
    },
    {
      "inputs": [],
      "name": "createSubscription",
      "outputs": [
        {
          "internalType": "uint64",
          "name": "",
          "type": "uint64"
        }
      ],
      "stateMutability": "nonpayable",
      "type": "function"
    },
    {
      "inputs": [
        {
          "internalType": "uint32",
          "name": "gasLimit",
          "type": "uint32"
        },
        {
          "internalType": "uint256",
          "name": "gasPrice",
          "type": "uint256"
        },
        {
          "internalType": "uint96",
          "name": "donFee",
          "type": "uint96"
        },
        {
          "internalType": "uint96",
          "name": "registryFee",
          "type": "uint96"
        }
      ],
      "name": "estimateCost",
      "outputs": [
        {
          "internalType": "uint96",
          "name": "",
          "type": "uint96"
        }
      ],
      "stateMutability": "view",
      "type": "function"
    },
    {
      "inputs": [
        {
          "internalType": "bytes32",
          "name": "requestId",
          "type": "bytes32"
        },
        {
          "internalType": "bytes",
          "name": "response",
          "type": "bytes"
        },
        {
          "internalType": "bytes",
          "name": "err",
          "type": "bytes"
        },
        {
          "internalType": "address",
          "name": "transmitter",
          "type": "address"
        },
        {
          "internalType": "address[31]",
          "name": "signers",
          "type": "address[31]"
        },
        {
          "internalType": "uint8",
          "name": "signerCount",
          "type": "uint8"
        },
        {
          "internalType": "uint256",
          "name": "reportValidationGas",
          "type": "uint256"
        },
        {
          "internalType": "uint256",
          "name": "initialGas",
          "type": "uint256"
        }
      ],
      "name": "fulfillAndBill",
      "outputs": [
        {
          "internalType": "bool",
          "name": "success",
          "type": "bool"
        }
      ],
      "stateMutability": "nonpayable",
      "type": "function"
    },
    {
      "inputs": [],
      "name": "getAuthorizedSenders",
      "outputs": [
        {
          "internalType": "address[]",
          "name": "",
          "type": "address[]"
        }
      ],
      "stateMutability": "view",
      "type": "function"
    },
    {
      "inputs": [],
      "name": "getConfig",
      "outputs": [
        {
          "internalType": "uint32",
          "name": "maxGasLimit",
          "type": "uint32"
        },
        {
          "internalType": "uint32",
          "name": "stalenessSeconds",
          "type": "uint32"
        },
        {
          "internalType": "uint256",
          "name": "gasAfterPaymentCalculation",
          "type": "uint256"
        },
        {
          "internalType": "int256",
          "name": "fallbackWeiPerUnitLink",
          "type": "int256"
        },
        {
          "internalType": "uint32",
          "name": "gasOverhead",
          "type": "uint32"
        }
      ],
      "stateMutability": "view",
      "type": "function"
    },
    {
      "inputs": [],
      "name": "getCurrentsubscriptionId",
      "outputs": [
        {
          "internalType": "uint64",
          "name": "",
          "type": "uint64"
        }
      ],
      "stateMutability": "view",
      "type": "function"
    },
    {
      "inputs": [],
      "name": "getRequestConfig",
      "outputs": [
        {
          "internalType": "uint32",
          "name": "",
          "type": "uint32"
        },
        {
          "internalType": "address[]",
          "name": "",
          "type": "address[]"
        }
      ],
      "stateMutability": "view",
      "type": "function"
    },
    {
      "inputs": [
        {
          "internalType": "bytes",
          "name": "",
          "type": "bytes"
        },
        {
          "components": [
            {
              "internalType": "uint64",
              "name": "subscriptionId",
              "type": "uint64"
            },
            {
              "internalType": "address",
              "name": "client",
              "type": "address"
            },
            {
              "internalType": "uint32",
              "name": "gasLimit",
              "type": "uint32"
            },
            {
              "internalType": "uint256",
              "name": "gasPrice",
              "type": "uint256"
            }
          ],
          "internalType": "struct FunctionsBillingRegistryInterface.RequestBilling",
          "name": "",
          "type": "tuple"
        }
      ],
      "name": "getRequiredFee",
      "outputs": [
        {
          "internalType": "uint96",
          "name": "",
          "type": "uint96"
        }
      ],
      "stateMutability": "pure",
      "type": "function"
    },
    {
      "inputs": [
        {
          "internalType": "uint64",
          "name": "subscriptionId",
          "type": "uint64"
        }
      ],
      "name": "getSubscription",
      "outputs": [
        {
          "internalType": "uint96",
          "name": "balance",
          "type": "uint96"
        },
        {
          "internalType": "address",
          "name": "owner",
          "type": "address"
        },
        {
          "internalType": "address[]",
          "name": "consumers",
          "type": "address[]"
        }
      ],
      "stateMutability": "view",
      "type": "function"
    },
    {
      "inputs": [
        {
          "internalType": "uint64",
          "name": "subscriptionId",
          "type": "uint64"
        }
      ],
      "name": "getSubscriptionOwner",
      "outputs": [
        {
          "internalType": "address",
          "name": "owner",
          "type": "address"
        }
      ],
      "stateMutability": "view",
      "type": "function"
    },
    {
      "inputs": [],
      "name": "getTotalBalance",
      "outputs": [
        {
          "internalType": "uint256",
          "name": "",
          "type": "uint256"
        }
      ],
      "stateMutability": "view",
      "type": "function"
    },
    {
      "inputs": [
        {
          "internalType": "address",
          "name": "sender",
          "type": "address"
        }
      ],
      "name": "isAuthorizedSender",
      "outputs": [
        {
          "internalType": "bool",
          "name": "",
          "type": "bool"
        }
      ],
      "stateMutability": "view",
      "type": "function"
    },
    {
      "inputs": [
        {
          "internalType": "address",
          "name": "",
          "type": "address"
        },
        {
          "internalType": "uint256",
          "name": "amount",
          "type": "uint256"
        },
        {
          "internalType": "bytes",
          "name": "data",
          "type": "bytes"
        }
      ],
      "name": "onTokenTransfer",
      "outputs": [],
      "stateMutability": "nonpayable",
      "type": "function"
    },
    {
      "inputs": [
        {
          "internalType": "address",
          "name": "recipient",
          "type": "address"
        },
        {
          "internalType": "uint96",
          "name": "amount",
          "type": "uint96"
        }
      ],
      "name": "oracleWithdraw",
      "outputs": [],
      "stateMutability": "nonpayable",
      "type": "function"
    },
    {
      "inputs": [],
      "name": "owner",
      "outputs": [
        {
          "internalType": "address",
          "name": "",
          "type": "address"
        }
      ],
      "stateMutability": "view",
      "type": "function"
    },
    {
      "inputs": [
        {
          "internalType": "uint64",
          "name": "subscriptionId",
          "type": "uint64"
        }
      ],
      "name": "ownerCancelSubscription",
      "outputs": [],
      "stateMutability": "nonpayable",
      "type": "function"
    },
    {
      "inputs": [],
      "name": "pause",
      "outputs": [],
      "stateMutability": "nonpayable",
      "type": "function"
    },
    {
      "inputs": [],
      "name": "paused",
      "outputs": [
        {
          "internalType": "bool",
          "name": "",
          "type": "bool"
        }
      ],
      "stateMutability": "view",
      "type": "function"
    },
    {
      "inputs": [
        {
          "internalType": "uint64",
          "name": "subscriptionId",
          "type": "uint64"
        }
      ],
      "name": "pendingRequestExists",
      "outputs": [
        {
          "internalType": "bool",
          "name": "",
          "type": "bool"
        }
      ],
      "stateMutability": "view",
      "type": "function"
    },
    {
      "inputs": [
        {
          "internalType": "address",
          "name": "to",
          "type": "address"
        }
      ],
      "name": "recoverFunds",
      "outputs": [],
      "stateMutability": "nonpayable",
      "type": "function"
    },
    {
      "inputs": [
        {
          "internalType": "uint64",
          "name": "subscriptionId",
          "type": "uint64"
        },
        {
          "internalType": "address",
          "name": "consumer",
          "type": "address"
        }
      ],
      "name": "removeConsumer",
      "outputs": [],
      "stateMutability": "nonpayable",
      "type": "function"
    },
    {
      "inputs": [
        {
          "internalType": "uint64",
          "name": "subscriptionId",
          "type": "uint64"
        },
        {
          "internalType": "address",
          "name": "newOwner",
          "type": "address"
        }
      ],
      "name": "requestSubscriptionOwnerTransfer",
      "outputs": [],
      "stateMutability": "nonpayable",
      "type": "function"
    },
    {
      "inputs": [
        {
          "internalType": "address[]",
          "name": "senders",
          "type": "address[]"
        }
      ],
      "name": "setAuthorizedSenders",
      "outputs": [],
      "stateMutability": "nonpayable",
      "type": "function"
    },
    {
      "inputs": [
        {
          "internalType": "uint32",
          "name": "maxGasLimit",
          "type": "uint32"
        },
        {
          "internalType": "uint32",
          "name": "stalenessSeconds",
          "type": "uint32"
        },
        {
          "internalType": "uint256",
          "name": "gasAfterPaymentCalculation",
          "type": "uint256"
        },
        {
          "internalType": "int256",
          "name": "fallbackWeiPerUnitLink",
          "type": "int256"
        },
        {
          "internalType": "uint32",
          "name": "gasOverhead",
          "type": "uint32"
        },
        {
          "internalType": "uint32",
          "name": "requestTimeoutSeconds",
          "type": "uint32"
        }
      ],
      "name": "setConfig",
      "outputs": [],
      "stateMutability": "nonpayable",
      "type": "function"
    },
    {
      "inputs": [
        {
          "internalType": "bytes",
          "name": "data",
          "type": "bytes"
        },
        {
          "components": [
            {
              "internalType": "uint64",
              "name": "subscriptionId",
              "type": "uint64"
            },
            {
              "internalType": "address",
              "name": "client",
              "type": "address"
            },
            {
              "internalType": "uint32",
              "name": "gasLimit",
              "type": "uint32"
            },
            {
              "internalType": "uint256",
              "name": "gasPrice",
              "type": "uint256"
            }
          ],
          "internalType": "struct FunctionsBillingRegistryInterface.RequestBilling",
          "name": "billing",
          "type": "tuple"
        }
      ],
      "name": "startBilling",
      "outputs": [
        {
          "internalType": "bytes32",
          "name": "",
          "type": "bytes32"
        }
      ],
      "stateMutability": "nonpayable",
      "type": "function"
    },
    {
      "inputs": [
        {
          "internalType": "bytes32[]",
          "name": "requestIdsToTimeout",
          "type": "bytes32[]"
        }
      ],
      "name": "timeoutRequests",
      "outputs": [],
      "stateMutability": "nonpayable",
      "type": "function"
    },
    {
      "inputs": [
        {
          "internalType": "address",
          "name": "to",
          "type": "address"
        }
      ],
      "name": "transferOwnership",
      "outputs": [],
      "stateMutability": "nonpayable",
      "type": "function"
    },
    {
      "inputs": [],
      "name": "unpause",
      "outputs": [],
      "stateMutability": "nonpayable",
      "type": "function"
    }
  ],
  "bytecode": "0x60e06040523462000076576200001f620000186200013a565b916200018e565b60405161463f6200044f8239608051818181610654015281816118c801528181612f7c015281816130550152613e7b015260a051818181610b5c0152612dc2015260c05181818161321301526136cd015261463f90f35b600080fd5b634e487b7160e01b600052604160045260246000fd5b90601f01601f191681019081106001600160401b03821117620000b357604052565b6200007b565b90620000d0620000c860405190565b928362000091565b565b6001600160a01b031690565b90565b620000ec81620000d2565b036200007657565b90505190620000d082620000e1565b90916060828403126200007657620000de620001208484620000f4565b93620001308160208601620000f4565b93604001620000f4565b6200015d62004a8e803803806200015181620000b9565b92833981019062000103565b909192565b620000de90620000d2906001600160a01b031682565b620000de9062000162565b620000de9062000178565b620001c09291620001ae620001b792620001a833620001c5565b62000183565b60805262000183565b60a05262000183565b60c052565b620000d090620000d090620000d090620000d09062000213565b9060ff60a01b9060a01b5b9181191691161790565b9062000207620000de6200020f92151590565b8254620001df565b9055565b6200021e906200022c565b620000d060006001620001f4565b620000d09062000252565b620000d2620000de620000de9290565b620000de9062000237565b620000d09062000263600062000247565b90620002f4565b60208082526018908201527f43616e6e6f7420736574206f776e657220746f207a65726f0000000000000000604082015260600190565b15620002a957565b60405162461bcd60e51b815280620002c4600482016200026a565b0390fd5b906001600160a01b0390620001ea565b90620002ec620000de6200020f9262000183565b8254620002c8565b6200033a90620003346000916200030b8362000247565b926200032e6200031b85620000d2565b6200032684620000d2565b1415620002a1565b620002d8565b620000d2565b6200034582620000d2565b036200034e5750565b620000d090620003ca565b60208082526017908201527f43616e6e6f74207472616e7366657220746f2073656c66000000000000000000604082015260600190565b156200039857565b60405162461bcd60e51b815280620002c46004820162000359565b620000de90620000d2565b620000de9054620003b3565b620003ec620003d933620000d2565b620003e483620000d2565b141562000390565b620003f9816001620002d8565b620004056000620003be565b906200043d620004367fed8889f560326eb138920d842192f0eb3dd22b4f139c87a2c57538e05bae12789362000183565b9162000183565b916200044860405190565b600090a356fe6080604052600436101561001257600080fd5b60003560e01c80620122911461024157806302bcc5b61461023c57806304c357cb146102375780630739e4f11461023257806312b583491461022d5780631b6b6d23146102285780632408afaa1461022357806327923e411461021e57806333652e3e146102195780633f4ba83a146102145780635c975abb1461020f57806364d51a2a1461020a57806366316d8d14610205578063665871ec146102005780637341c10c146101fb57806379ba5097146101f657806382359740146101f15780638456cb59146101ec5780638da5cb5b146101e75780639f87fad7146101e2578063a1a6d041146101dd578063a21a23e4146101d8578063a47c7696146101d3578063a4c0ed36146101ce578063a9d03c05146101c9578063ad178361146101c4578063b2a489ff146101bf578063c3f909d4146101ba578063d7ae1d30146101b5578063e72f6e30146101b0578063e82ad7d4146101ab578063ee56997b146101a6578063f1e14a21146101a1578063f2fde38b1461019c5763fa00763a0361025157610d60565b610d48565b610d2c565b610c7f565b610c64565b610c4c565b610c1f565b610bee565b610b80565b610b47565b610b2b565b610acc565b610a61565b610a14565b6109e9565b61097b565b610953565b61092b565b610913565b6108fb565b6108e2565b6108c9565b610858565b6107e3565b6107a2565b61078a565b610763565b61072b565b610691565b61063f565b6105d5565b61059b565b6103bd565b610367565b6102f6565b600091031261025157565b600080fd5b9052565b6001600160a01b031690565b90565b6102569061025a565b9061027f81602093610269565b0190565b906102a361029c610292845190565b8084529260200190565b9260200190565b9060005b8181106102b45750505090565b9091926102ce6102c76001928651610272565b9460200190565b9291016102a7565b63ffffffff90911681526102669160408201916020818403910152610283565b3461025157610306366004610246565b61030e611a72565b9061032461031b60405190565b928392836102d6565b0390f35b6001600160401b031690565b61033d81610328565b0361025157565b9050359061035182610334565b565b906020828203126102515761026691610344565b346102515761037f61037a366004610353565b611814565b604051005b61033d8161025a565b9050359061035182610384565b919060408382031261025157610266906103b48185610344565b9360200161038d565b346102515761037f6103d036600461039a565b906136a0565b8061033d565b90503590610351826103d6565b909182601f83011215610251578135916001600160401b03831161025157602001926001830284011161025157565b634e487b7160e01b600052604160045260246000fd5b90601f01601f191681019081106001600160401b0382111761044f57604052565b610418565b9061035161046160405190565b928361042e565b6001600160401b03811161044f5760200290565b9092919261049161048c82610468565b610454565b93602085920283019281841161025157915b8383106104b05750505050565b602080916104be848661038d565b8152019201916104a3565b9080601f830112156102515761026691601f9061047c565b60ff811661033d565b90503590610351826104e1565b90916104c0828403126102515761050e83836103dc565b9260208301356001600160401b038111610251578161052e9185016103e9565b909390929060408101356001600160401b03811161025157836105529183016103e9565b929093610562816060850161038d565b9261057082608083016104c9565b926102666105828461046085016104ea565b936105918161048086016103dc565b936104a0016103dc565b34610251576103246105c36105b13660046104f7565b98979097969196959295949394612b8f565b60405191829182901515815260200190565b34610251576105e5366004610246565b6103246105f0611779565b6040519182918290815260200190565b6102669061025a906001600160a01b031682565b61026690610600565b61026690610614565b6102569061061d565b6020810192916103519190610626565b346102515761064f366004610246565b6103247f00000000000000000000000000000000000000000000000000000000000000005b6040519182918261062f565b602080825261026692910190610283565b34610251576106a1366004610246565b6103246106ac61140e565b60405191829182610680565b63ffffffff811661033d565b90503590610351826106b8565b909160c082840312610251576106e783836106c4565b926106f581602085016106c4565b9261070382604083016103dc565b9261026661071484606085016103dc565b9361072281608086016106c4565b9360a0016106c4565b346102515761037f61073e3660046106d1565b94939093929192611694565b61025690610328565b602081019291610351919061074a565b3461025157610773366004610246565b61032461077e613187565b60405191829182610753565b346102515761079a366004610246565b61037f61174c565b34610251576107b2366004610246565b6103246105c36141ed565b6107ca6102666102669290565b61ffff1690565b61026660646107bd565b6102666107d1565b34610251576107f3366004610246565b6103246107fe6107db565b6040519182918261ffff909116815260200190565b6001600160601b031690565b61033d81610813565b905035906103518261081f565b9190604083820312610251576102669061084f818561038d565b93602001610828565b346102515761037f61086b366004610835565b90613018565b909182601f83011215610251578135916001600160401b03831161025157602001926020830284011161025157565b906020828203126102515781356001600160401b038111610251576108c59201610871565b9091565b346102515761037f6108dc3660046108a0565b906141b1565b346102515761037f6108f536600461039a565b90613c6a565b346102515761090b366004610246565b61037f610e3b565b346102515761037f610926366004610353565b613864565b346102515761093b366004610246565b61037f611731565b6020810192916103519190610269565b3461025157610963366004610246565b61032461096e610ecd565b6040515b91829182610943565b346102515761037f61098e36600461039a565b90613afb565b608081830312610251576109a882826106c4565b926102666109b984602085016103dc565b936109c78160408601610828565b93606001610828565b61025690610813565b60208101929161035191906109d0565b3461025157610324610a086109ff366004610994565b92919091611afd565b604051918291826109d9565b3461025157610a24366004610246565b61032461077e613533565b610a54610266949293610a4a606084019560008501906109d0565b6020830190610269565b6040818403910152610283565b3461025157610324610a7c610a77366004610353565b613191565b60405191939193849384610a2f565b9160608383031261025157610aa0828461038d565b92610aae83602083016103dc565b9260408201356001600160401b038111610251576108c592016103e9565b346102515761037f610adf366004610a8b565b9291909161317b565b908160809103126102515790565b9160a0838303126102515782356001600160401b03811161025157610b20836102669286016103e9565b939094602001610ae8565b34610251576103246105f0610b41366004610af6565b9161250d565b3461025157610b57366004610246565b6103247f0000000000000000000000000000000000000000000000000000000000000000610674565b346102515761032461096e610b96366004610353565b61353d565b9095949261035194610bdb610be292610bd4608096610bc760a088019c600089019063ffffffff169052565b63ffffffff166020870152565b6040850152565b6060830152565b019063ffffffff169052565b3461025157610bfe366004610246565b610324610c096116dc565b91610c1695939560405190565b95869586610b9b565b346102515761037f610c3236600461039a565b90613d03565b90602082820312610251576102669161038d565b346102515761037f610c5f366004610c38565b611a69565b34610251576103246105c3610c7a366004610353565b613f3c565b346102515761037f610c923660046108a0565b9061138c565b91909160808184031261025157610cf1610cb26080610454565b936000610cbf8285610344565b908601526020610cd18282860161038d565b908601526040610ce3828286016106c4565b9086015260608093016103dc565b90830152565b9160a0838303126102515782356001600160401b03811161025157610d21836102669286016103e9565b939094602001610c98565b3461025157610324610a08610d42366004610cf7565b91611a97565b346102515761037f610d5b366004610c38565b610d90565b34610251576103246105c3610d76366004610c38565b611418565b61035190610d87610fc1565b61035190610f1d565b61035190610d7b565b6102669061025a565b6102669054610d99565b15610db357565b60405162461bcd60e51b815260206004820152601660248201527526bab9ba10313290383937b837b9b2b21037bbb732b960511b6044820152606490fd5b0390fd5b906001600160a01b03905b9181191691161790565b90610e1a610266610e219261061d565b8254610df5565b9055565b61025a6102666102669290565b61026690610e25565b33610e60610e51610e4c6001610da2565b61025a565b610e5a8361025a565b14610dac565b610e6a6000610da2565b90610e76816000610e0a565b610e8a610e836000610e32565b6001610e0a565b610ebd610eb77f8be0079c531659141344cd1fd0a4f28419497f9722a3daafe3b4186f6b6457e09361061d565b9161061d565b91610ec760405190565b600090a3565b6102666000610da2565b15610ede57565b60405162461bcd60e51b815260206004820152601760248201527621b0b73737ba103a3930b739b332b9103a379039b2b63360491b6044820152606490fd5b610f39610f293361025a565b610f328361025a565b1415610ed7565b610f44816001610e0a565b610f4e6000610da2565b90610ebd610eb77fed8889f560326eb138920d842192f0eb3dd22b4f139c87a2c57538e05bae12789361061d565b15610f8357565b60405162461bcd60e51b815260206004820152601660248201527527b7363c9031b0b63630b1363290313c9037bbb732b960511b6044820152606490fd5b61035133610fdb610fd5610e4c6000610da2565b9161025a565b14610f7c565b90610ff1610fed6141cd565b1590565b610ffe576103519161127c565b60405163ad77f06160e01b8152600490fd5b6102666102666102669290565b634e487b7160e01b600052601160045260246000fd5b60001981146110425760010190565b61101d565b634e487b7160e01b600052603260045260246000fd5b805482101561108057611077600191600052602060002090565b91020190600090565b611047565b610266916008021c61025a565b906102669154611085565b9190811015611080576020020190565b3561026681610384565b634e487b7160e01b600052600060045260246000fd5b8181029291811591840414171561104257565b9160001960089290920291821b911b610e00565b9190611105610266610e2193611010565b9083546110e0565b610351916000916110f4565b818110611124575050565b80611132600060019361110d565b01611119565b909182811061114657505050565b610351929061115c905b92600052602060002090565b9081019101611119565b90600160401b811161044f578161117e610351935490565b90828155611138565b916001600160a01b0360089290920291821b911b610e00565b906001600160401b03831161044f576111c26111506001926102668686611166565b92049160005b8381106111d55750505050565b60019060206111e6610266866110ad565b94019381840155016111c8565b9061035192916111a0565b5061026690602081019061038d565b818352602090920191906000825b828210611229575050505090565b9091929361124c61124560019261124088866111fe565b610272565b9560200190565b9392019061121b565b93929061127460209161035194604088019188830360008a015261120d565b940190610269565b60009291908161128b85611010565b831461137a5761129a85611010565b60046112a7610266825490565b8210156112e257906112d76112dd926112d16112cb846112c5600290565b9361105d565b90611092565b906144ce565b50611033565b61129a565b505091936112f290939193611010565b845b81101561132d576113266112f4916112d761130d600290565b61132061131b84898b61109d565b6110ad565b906143ee565b90506112f2565b50925061133c818360046111f3565b33916113757ff263cfb3e4298332e776194610cf9fdc09ccb3ada8b9aa39764d882e11fbf0a09361136c60405190565b93849384611255565b0390a1565b6040516375158c3b60e01b8152600490fd5b9061035191610fe1565b906113a5611150610292845490565b9060005b8181106113b65750505090565b9091926113d26113cb60019261124087610da2565b9460010190565b9291016113a9565b9061026691611396565b906103516113fe926113f560405190565b938480926113da565b038361042e565b610266906113e4565b6102666004611405565b6102669060026145e9565b906103519594939291611434610fc1565b6115bb565b61026660c0610454565b9063ffffffff90610e00565b6114626102666102669263ffffffff1690565b63ffffffff1690565b9061147b610266610e219261144f565b8254611443565b9060ff60201b9060201b610e00565b906114a1610266610e2192151590565b8254611482565b9063ffffffff60281b9060281b610e00565b906114ca610266610e219261144f565b82546114a8565b9060001990610e00565b906114eb610266610e2192611010565b82546114d1565b9063ffffffff60201b9060201b610e00565b90611514610266610e219261144f565b82546114f2565b61035191906115ab9060a09060029061156c8161154561153f885163ffffffff1690565b8261146b565b61155b6115556020890151151590565b82611491565b604087015163ffffffff16906114ba565b6115846001820161157e606088015190565b906114db565b01926115a061159a608083015163ffffffff1690565b8561146b565b015163ffffffff1690565b90611504565b906103519161151b565b92909391946000906115cc82611010565b83131561166d57611375939291611630611637926116006115eb611439565b63ffffffff8a16858201529315156020850152565b63ffffffff891660408401526116178a6060850152565b63ffffffff8616608084015263ffffffff1660a0830152565b600c6115b1565b61164281600b6114db565b7f24d3d934adfef9b9029d6ffa463c07d0139ed47d26ee23506f85ece2879d2bd495610c1660405190565b610df18361167a60405190565b6321ea67b360e11b81529182916004830190815260200190565b906103519594939291611423565b61026690611462565b61026690546116a2565b6102669060281c611462565b61026690546116b5565b6102669081565b61026690546116cb565b600c90816116f26116ec826116ab565b936116c1565b926116ff600183016116d2565b92611716600261170f600b6116d2565b94016116ab565b919493929190565b611726610fc1565b6103516103516142b9565b61035161171e565b611741610fc1565b610351610351614307565b610351611739565b6102669060401c610813565b6102669054611754565b61026661026661026692610813565b6102666117866008611760565b61176a565b61035190611797610fc1565b6117c8565b6117ab61026661026692610328565b610328565b906117ba9061179c565b600052602052604060002090565b6117de60006117d88360066117b0565b01610da2565b6117eb610e4c6000610e32565b6117f48261025a565b146118025761035191613f32565b604051630fb532db60e11b8152600490fd5b6103519061178b565b61035190611829610fc1565b6118c3565b90505190610351826103d6565b90602082820312610251576102669161182e565b6040513d6000823e3d90fd5b9081526040810192916103519160200152565b0152565b9190820391821161104257565b80151561033d565b905051906103518261187f565b906020828203126102515761026691611887565b91602061035192949361186e60408201966000830190610269565b6118ec7f000000000000000000000000000000000000000000000000000000000000000061061d565b6370a0823160206119176118ff3061061d565b9261192261190c60405190565b948593849360e01b90565b835260048301610943565b0381855afa908115611a1457600091611a3b575b506119446117866008611760565b818111611a1957818110611959575b50505050565b61196860209161198193611872565b9263a9059cbb9061197860405190565b93849260e01b90565b825281600081611995888a600484016118a8565b03925af18015611a14576119e8575b507f59bfc682b673f8cbf945f1e454df9334834abf7dfe7f92237ca29ecb9b436600916119dc6119d360405190565b928392836118a8565b0390a138808080611953565b611a089060203d8111611a0d575b611a00818361042e565b810190611894565b6119a4565b503d6119f6565b61184f565b610df1611a2560405190565b6354ced18160e11b81529283926004840161185b565b611a5c915060203d8111611a62575b611a54818361042e565b81019061183b565b38611936565b503d611a4a565b6103519061181d565b611a7c600c6116ab565b9061026661140e565b611a926102666102669290565b610813565b505050611aa2600090565b506102666000611a85565b6102666102666102669263ffffffff1690565b9190820180921161104257565b634e487b7160e01b600052601260045260246000fd5b90611aed565b9190565b908115611af8570490565b611acd565b91929190611b09612d9b565b91611b146000611010565b83131561166d57611b8e611b9a9493611b88611b82611b6595611b7d611b6b611b9497611b65611b5a600c611b60611b5a6001611b53600285016116ab565b93016116d2565b91611aad565b611ac0565b90611ac0565b91611b7d670de0b6b3a7640000611010565b6110cd565b91611010565b90611ae3565b9461176a565b9161176a565b90611bbb61026683611bb6676765c793fa10079d601b1b611010565b611872565b8111611bd35761026691611bce91611ac0565b611a85565b60405163e80fa38160e01b8152600490fd5b90610266939291611bf461251a565b611c11565b6102669060201c5b60ff1690565b6102669054611bf9565b929190611c1e600c611c07565b611c2b5761026693611c3d565b60405163769dd35360e11b8152600490fd5b90610266939291611c4c614236565b61214c565b3561026681610334565b906117ba9061061d565b61026690610328565b6102669054611c65565b6117ab6102666102669290565b916020610351929493611ca06040820196600083019061074a565b0190610269565b35610266816106b8565b63ffffffff909116815260408101929161035191602090610be2565b905051906103518261081f565b906020828203126102515761026691611ccd565b90826000939282370152565b9190611d1881611d118161027f9560209181520190565b8095611cee565b601f01601f191690565b50610266906020810190610344565b506102669060208101906106c4565b506102669060208101906103dc565b906060611db061035193611d70611d696000830183611d22565b859061074a565b611d8a611d8060208301836111fe565b6020860190610269565b611da7611d9a6040830183611d31565b63ffffffff166040860152565b82810190611d40565b910152565b939290611dd46020916103519460a088019188830360008a0152611cfa565b940190611d4f565b610266903690610c98565b35610266816103d6565b61026690610813565b6102669054611df1565b6102669060601c610813565b6102669054611e04565b611e26611e2c91610813565b91610813565b9003906001600160601b03821161104257565b611e4b611e5191610328565b91610328565b01906001600160401b03821161104257565b610266610120610454565b9061025690610328565b906102569061025a565b9061025690610813565b906117ba565b6102669051610328565b906001600160401b0390610e00565b90611ebb610266610e219261179c565b8254611e9c565b610266905161025a565b90600160401b600160e01b039060401b610e00565b90611ef1610266610e219261061d565b8254611ecc565b906001600160e01b03199060e01b610e00565b90611f1b610266610e219261144f565b8254611ef8565b6102669051610813565b906001600160a01b03199060a01b610e00565b611a9261026661026692610813565b90611f5e610266610e2192611f3f565b8254611f2c565b906001600160601b0390610e00565b90611f84610266610e2192611f3f565b8254611f65565b90600160601b600160c01b039060601b610e00565b90611fb0610266610e2192611f3f565b8254611f8b565b610351919061157e906101009060049061200381611fdd611fd788611e92565b82611eab565b611ff2611fec60208901611ec2565b82611ee1565b604087015163ffffffff1690611f0b565b6120156001820161157e606088015190565b6120436002820161203161202b60808901611ec2565b82610e0a565b61203d60a08801611f22565b90611f4e565b6120716003820161205f61205960c08901611f22565b82611f74565b61206b60e08801611f22565b90611fa0565b0192015190565b9061035191611fb7565b611e2661208e91610813565b01906001600160601b03821161104257565b9061010080610351936120bb6000820151600086019061074a565b6120cd60208201516020860190610269565b60408181015163ffffffff16908501526120ec60608201516060860152565b6120fe60808201516080860190610269565b61211060a082015160a08601906109d0565b61212260c082015160c08601906109d0565b61213460e082015160e08601906109d0565b0151910152565b6101208101929161035191906120a0565b5091929161216960006117d8600661216388611c51565b906117b0565b9360009461217c610fd5610e4c88610e32565b1461180257600590602081019061219b612195836110ad565b84611c5b565b936121b46121af8984019661216388611c51565b611c6e565b976121be81611c78565b6121c78a610328565b146124d7576114629860408401926121de84611ca7565b6121f96121ef85600c019d8e6116ab565b9163ffffffff1690565b116124a15761223298999a503399602061221a6122158d61061d565b61061d565b63f1e14a219061222960405190565b9c8d9260e01b90565b825281806122458b878960048501611db5565b03915afa998a15611a145760009a61246b575b509061226791610d4287611ddc565b9261228a848a606061227885611ca7565b98019761228489611de7565b90611afd565b936007926122d08a6122ca876122c46122be6122b8836122b26122ac88611c51565b8d6117b0565b01611dfa565b94611c51565b896117b0565b01611e10565b90611e1a565b6122dc611e2688610813565b10612459576122eb6001611c78565b6122f491611e3f565b998b8b6123008a6110ad565b6123098d611c51565b906123139361257b565b9b61231d8b611c51565b976123278a6110ad565b9461233190611ca7565b9061233b90611de7565b904295612346611e63565b9a612353908a8d01611e6e565b6123609060208c01611e78565b63ffffffff1660408a0152606089015261237d9060808901611e78565b61238a9060a08801611e82565b6123979060c08701611e82565b6123a48460e08701611e82565b610100850152836123b68a600a611e8c565b906123c091612078565b6123c987611c51565b6123d2916117b0565b01906123dd82611e10565b906123e791612082565b6123f091611fa0565b7f99f7f4e65b4b9fbabd4e357c47ed3099b36e57ecd3a43e84662f34c207d0ebe4869161241c60405190565b61242781928261213b565b0390a2612433906110ad565b61243c91611c5b565b9061244690611c51565b61244f916117b0565b9061026691611eab565b604051631e9acf1760e31b8152600490fd5b61226792919a506124929060203d811161249a575b61248a818361042e565b810190611cda565b999091612258565b503d612480565b8a6124b46124ae86611ca7565b916116ab565b90610df16124c160405190565b637aebf00f60e11b815292839260048401611cb1565b836124ea6124e488611c51565b916110ad565b90610df16124f760405190565b637800cff360e11b815292839260048401611c85565b6102669291906000611be5565b612526610fed33611418565b61252c57565b604051630101292160e31b8152600490fd5b6125746103519461256a606094989795612560608086019a6000870190610269565b6020850190610269565b604083019061074a565b019061074a565b61259d6125a9939461258b600090565b5060405195869460208601948561253e565b9081038252038261042e565b6125bb6125b4825190565b9160200190565b2090565b906102669a9998979695949392916125d561251a565b999897969594939291906125e9600c611c07565b611c2b576102669a906102669a999897969594939291612607614236565b612812565b6102669060401c61025a565b610266905461260c565b6102669060e01c611462565b6102669054612622565b6102669060a01c610813565b6102669054612638565b9061035161271c600461265f611e63565b9461267261266c82611c6e565b87611e6e565b61268761267e82612618565b60208801611e78565b6126a06126938261262e565b63ffffffff166040880152565b6126b66126af600183016116d2565b6060880152565b6126ce6126c560028301610da2565b60808801611e78565b6126e66126dd60028301612644565b60a08801611e82565b6126fe6126f560038301611dfa565b60c08801611e82565b61271661270d60038301611e10565b60e08801611e82565b016116d2565b610100840152565b6102669061264e565b600080825561035191600490612746836001830161110d565b8260028201558260038201550161110d565b90600003612769576103519061272d565b6110b7565b93919061026695936127969261278960608801936000890152565b8683036020880152611cfa565b926040818503910152611cfa565b6102666102666102669260ff1690565b90601f811015611080576020020190565b909594926103519461280061280a926127f66080966127ec60a088019c600089019061074a565b60208701906109d0565b60408501906109d0565b60608301906109d0565b019015159052565b509399989793969591600a906128288983611e8c565b61283190612724565b9161283e60808401611ec2565b9c60009d61284b8f610e32565b6128549061025a565b9061285e9061025a565b14612b7d578d96876128718d8095611e8c565b9061287b91612758565b604051630ca7617560e01b602082015295869461289e949091906024870161276e565b6020820181038252036128b1908361042e565b600198898093600c908782019c6128c8908e611491565b604085015163ffffffff16906128e060208701611ec2565b916128ea90611aad565b916128f492612ba3565b9b8c9e61290091611491565b0161290a906116d2565b61291660a08401611f22565b9660c08401978a6129268a611f22565b913a9461293296612c22565b94600792858301948661294487611e92565b61294e90876117b0565b0161295890611dfa565b99604089019a6129678c611f22565b61297090610813565b9061297a90610813565b10612459579087949392916129bd6129918d611f22565b6129b7886129a76129a18d611e92565b8c6117b0565b01916129b283611dfa565b611e1a565b90611f74565b826129c787611010565b905b612ae7575b505050506129db90611f22565b966009976129e7610ecd565b6129f1908a611c5b565b906129fb82611dfa565b90612a0591612082565b612a0e91611f74565b6020870197612a1c89611f22565b91612a2691611c5b565b90612a3082611dfa565b90612a3a91612082565b612a4391611f74565b60e001612a4f90611f22565b91612a5984611e92565b612a62916117b0565b0190612a6d82611e10565b90612a7791611e1a565b612a8091611fa0565b612a8990611e92565b9101612a9490611f22565b91612a9e90611f22565b92612aa890611f22565b947fc8dc973332de19a5f71b6026983110e9c2e04b0c98b87eb771ccb78607fd114f9495612ad560405190565b948594612ae294866127c5565b0390a2565b909192939495612af6836127a4565b821015612b755750808b612b21610fd5612b1b612b16612b2b96896127b4565b611ec2565b9261025a565b03612b3857611033565b90839291899695946129c9565b612b70612b468b8d01611f22565b6129b7612b616009612b5b612b16878b6127b4565b90611c5b565b91612b6b83611dfa565b612082565b611033565b9594936129ce565b60405163da7aa3e160e01b8152600490fd5b6102669998979695949392919060006125bf565b915a611388811061025157611388849103604081049003111561025157813b156102515760009283809360208451940192f190565b6102666060610454565b612bea612bd8565b600080825260208201819052604082015290565b610266612be2565b611a926102666102669260ff1690565b611e26611aed91610813565b94909194612c2e612bfe565b50612c37612d9b565b92600097612c4489611010565b851315612d1957612c8c93612c86612c7f612c999795611b60611b8896612c79611b8297611b7d670de0b6b3a7640000611010565b95611ac0565b5a90611872565b906110cd565b92611b65611b948661176a565b91612cb561026684611bb6676765c793fa10079d601b1b611010565b8111611bd357612d07612cf6612cf1612cdd61026697612cd7612d1097612c06565b90612c16565b95612ceb87612b6b87611a85565b94611ac0565b6143bd565b93612cff612bd8565b968701611e82565b60208501611e82565b60408301611e82565b610df18561167a60405190565b6114626102666102669290565b6001600160501b03811661033d565b9050519061035182612d33565b919060a08382031261025157612d658184612d42565b92612d73826020830161182e565b92610266612d84846040850161182e565b93612d92816060860161182e565b93608001612d42565b612dfe612da8600c6116c1565b612db26000612d26565b63ffffffff8216119060a0612de67f000000000000000000000000000000000000000000000000000000000000000061061d565b63feaf968c90612df560405190565b95869260e01b90565b825260049082905afa8015611a14576000938491612e4e575b509282612e33575b5050612e285790565b50610266600b6116d2565b612e46919250610266611b5a9142611872565b103880612e1f565b9050612e7291935060a03d8111612e7b575b612e6a818361042e565b810190612d4f565b50949250612e17565b503d612e60565b90612e8d600c611c07565b611c2b57610351919061035191612ea2614236565b612efe565b90600160401b600160a01b039060401b610e00565b90612ecc610266610e2192611f3f565b8254612ea7565b6102569061176a565b916020610351929493612ef760408201966000830190610269565b0190612ed3565b600090612f0a82611a85565b612f1384610813565b14613002575b60099133612f2f612f2a8286611c5b565b611dfa565b612f3b611e2687610813565b1061245957612f4f612f5c91602095611c5b565b6129b7866129b283611dfa565b612f74612f6d856129b26008611760565b6008612ebc565b612fbf612fa07f000000000000000000000000000000000000000000000000000000000000000061061d565b9163a9059cbb612fca612fb260405190565b9788968795869460e01b90565b845260048401612edc565b03925af18015611a1457612fe491600091612fea57501590565b61245957565b610fed915060203d8111611a0d57611a00818361042e565b9150613012612f2a336009611c5b565b91612f19565b9061035191612e82565b92919061302f600c611c07565b611c2b576103519390610351939291613046614236565b50919033613079610fd5610e4c7f000000000000000000000000000000000000000000000000000000000000000061061d565b03613169578161308c611ae96020611010565b036131575761309d91810190610353565b6130ad60006117d88360066117b0565b916000926130c0610fd5610e4c86610e32565b146118025761311790613111612f6d60076131076130e5611786896122b28a866117b0565b976130f9886130f388611a85565b946117b0565b016129b783612b6b83611dfa565b612b6b6008611760565b83611ac0565b6131417fd39ec07f4e209f627a4c427971473820dc129761ba28de8906bd56f57101d4f89261179c565b92612ae261314e60405190565b9283928361185b565b604051638129bbcd60e01b8152600490fd5b6040516344b0e3c360e01b8152600490fd5b90610351939291613022565b6102666008611c6e565b6006916131a360006117d884866117b0565b916000926131b6610fd5610e4c86610e32565b146118025760026131e7826131e16131d6876122b26102669760076117b0565b966117d8838a6117b0565b966117b0565b01929392611405565b6131fa600c611c07565b611c2b57610266906102669061320e614236565b6132377f000000000000000000000000000000000000000000000000000000000000000061061d565b634b4fa0c19061325061324960405190565b9260e01b90565b8252602082600481845afa918215611a14576000926132c8575b508161327f575b5061252c5761026690613437565b6132a8915060209063fa00763a90611917339261329b60405190565b9586948593849360e01b90565b03915afa8015611a14576132c291600091612fea57501590565b38613271565b6132e191925060203d8111611a0d57611a00818361042e565b903861326a565b6132f190610328565b6001600160401b0381146110425760010190565b6001600160401b03811161044f5760208091020190565b9061332961048c83613305565b918252565b369037565b906103516133496133438461331c565b93613305565b601f19016020840161332e565b6102666040610454565b6103519161206b9060209061337d61337782611f22565b85611f74565b01611f22565b9061035191613360565b8151916001600160401b03831161044f576133b76111506001926133b18686611166565b60200190565b92049160005b8381106133ca5750505050565b60019060206133db61026686611ec2565b94019381840155016133bd565b906103519161338d565b6103519190613427906040906002906134148161340e87611ec2565b90610e0a565b6120716001820161340e60208801611ec2565b906133e8565b90610351916133f2565b5061345461344d6134486008611c6e565b6132e8565b6008611eab565b61345e6008611c6e565b60006134f661347461346f83611010565b613333565b916134b1613480613356565b6134a161348c84611a85565b61349881868501611e82565b60208301611e82565b6134ac8660076117b0565b613383565b6134e633936134df6134c284610e32565b6134d6876134ce612bd8565b968701611e78565b60208501611e78565b6040830152565b6134f18460066117b0565b61342d565b7f464722b4166576d3dcbba877b999bc35cf911f4eaf434b7eba68fa113951d0bf61352d6135238461179c565b9261097260405190565b0390a290565b61026660006131f0565b600661354e60006117d884846117b0565b90600091613561610fd5610e4c85610e32565b1461180257610266926117d8916117b0565b919061358560006117d88560066117b0565b92613593610e4c6000610e32565b61359c8561025a565b1461180257336135ae610fd58661025a565b036135be576103519293506135e1565b610df1846135cb60405190565b636c51fda960e11b815291829160048301610943565b906135ec600c611c07565b611c2b57610351919061035191613601614236565b613621565b916020610351929493611ca060408201966000830190610269565b600661363260016117d884846117b0565b61363e610fd58561025a565b0361364857505050565b8260016136588461365e946117b0565b01610e0a565b339161368a7f69436ea6df009049404f564eff6622cd00522b0bd6a89efd9e52a355c4a879be9261179c565b92612ae261369760405190565b92839283613606565b9061035191613573565b6136b4600c611c07565b611c2b5761035190610351906136c8614236565b6136f17f000000000000000000000000000000000000000000000000000000000000000061061d565b634b4fa0c19061370361324960405190565b8252602082600481845afa918215611a145760009261376e575b5081613732575b5061252c576103519061378e565b61374e915060209063fa00763a90611917339261329b60405190565b03915afa8015611a145761376891600091612fea57501590565b38613724565b61378791925060203d8111611a0d57611a00818361042e565b903861371d565b6006906137a060006117d883856117b0565b916000926137ad84610e32565b906137ba610fd58361025a565b14611802576137ce60016117d885856117b0565b9133926137dd610fd58561025a565b0361383957906001613658858461380a876137ff8b6117d88661380f9b6117b0565b9a61365885856117b0565b6117b0565b61368a7f6f1dc65165ffffedfd8e507b4a0f1fcfdada045ed11f6c26ba27cedfe87802f09261179c565b61384b60016117d886610df1946117b0565b60405163d084e97560e01b815291829160048301610943565b610351906136aa565b919061387f60006117d88560066117b0565b9261388d610e4c6000610e32565b6138968561025a565b1461180257336138a8610fd58661025a565b036135be57610351929350906138be600c611c07565b611c2b576103519190610351916138d3614236565b613993565b906138e1825190565b811015611080576020809102010190565b9190613903610266610e219361061d565b908354611187565b634e487b7160e01b600052603160045260246000fd5b610351916000916138f2565b8054801561395057600019019061394d613947838361105d565b90613921565b55565b61390b565b916001600160401b0360089290920291821b911b610e00565b919061397f610266610e219361179c565b908354613955565b6103519160009161396e565b906005916139a86121af8261380a8587611c5b565b6000906139b7611e4b83611c78565b14613aee576006936139d460026139ce85886117b0565b01611405565b946139dd865190565b956139f36001976139ed89611010565b90611872565b90876139fe86611010565b905b613a50575b505050508394508261380a613a239495613a1e93611c5b565b613987565b612ae26135237f182bff9831466789164ca77075fffd84916d35a8180ba73c27e45634549b445b9261179c565b613a5b610266835190565b811015613ae957613a6f612b1682846138d8565b613a7b610fd58a61025a565b14613a8f57613a8990611033565b88613a00565b87985093613adf613ada600261027f8a809c969861380a613a1e9b613ad4613a239f9c612b1661380a9d613ac2926138d8565b9187613ace87876117b0565b0161105d565b906138f2565b61392d565b9381979650613a05565b613a05565b50610df16124f760405190565b906103519161386d565b9190613b1760006117d88560066117b0565b92613b25610e4c6000610e32565b613b2e8561025a565b146118025733613b40610fd58661025a565b036135be5761035192935090613b56600c611c07565b611c2b57610351919061035191613b6b614236565b613ba4565b6102666102666102669261ffff1690565b80549190600160401b83101561044f5782613ad49160016103519501815561105d565b6006613bba6002613bb584846117b0565b015490565b613bcd611ae9613bc86107d1565b613b70565b14613c58576005613be56121af8461380a8785611c5b565b613bf2611e4b6000611c78565b0361195357613c26600261027f85613c2b9561380a8996613c218461380a8a613c1b6001611c78565b94611c5b565b611eab565b613b81565b612ae26135237f43dc749a04ac8fb825cbd514f7c0e13f13bc6f2ee66043b76629d51776cff8e09261179c565b6040516305a48e0f60e01b8152600490fd5b9061035191613b05565b9190613c8660006117d88560066117b0565b92613c94610e4c6000610e32565b613c9d8561025a565b146118025733613caf610fd58661025a565b036135be5761035192935090613cc5600c611c07565b611c2b57610351919061035191613cda614236565b90613ce482613f3c565b613cf15761035191613f32565b604051631685ecdd60e31b8152600490fd5b9061035191613c74565b90613d18600c611c07565b611c2b5761035191613dc1565b90610351613d5e6002613d36612bd8565b94613d49613d4382610da2565b87611e78565b613d5861267e60018301610da2565b016113e4565b6040840152565b61026690613d25565b600061035191611166565b906000036127695761035190613d6e565b60008082556001820181905561035191600201613d79565b906000036127695761035190613d8a565b906000036127695760009055565b9190916006613dd8613dd383836117b0565b613d65565b92600794613deb60006122b286896117b0565b600096613df788611010565b60408801613e0761026682515190565b821015613e375781612b708b613a1e8b61380a613e3096612b5b612b1660409a600593516138d8565b9050613df7565b5050602092965087613e6087613e659361380a84613e5b84613ed49b9f999c6117b0565b613da2565b613db3565b613e76612f6d856129b26008611760565b613e9f7f000000000000000000000000000000000000000000000000000000000000000061061d565b613ec863a9059cbb92613eb18761176a565b93613ebb60405190565b9687958694859360e01b90565b83528b600484016118a8565b03925af18015611a1457613eee91600091612fea57501590565b61245957613f1c7fe8ed5b475a5b5987aa9165e8731bb78043f39eee32ec5a1169a89e27fcd498159261179c565b92612ae2613f2960405190565b92839283612edc565b9061035191613d0d565b613f4c60026139ce8360066117b0565b90613f5561140e565b91600091613f6283611010565b613f6d610266845190565b81101561402057613f7d84611010565b838387613f8b610266825190565b84101561400e57613fda613fe1938387613fd46121af60029761380a613fb7612b168d6117d89b6138d8565b96612b5b612b16613fcb612b1689856138d8565b976005936138d8565b9261257b565b600a611e8c565b613ff0610fd5610e4c88610e32565b0361400357613ffe90611033565b613f7d565b505050505050600190565b5050505061401b90611033565b613f62565b505050905090565b9061035191614035614236565b614050565b6102669060201c611462565b610266905461403a565b9160009161405d83611010565b935b818510156141aa5761407285838361109d565b61407b90611de7565b94600a956140898188611e8c565b61409290612724565b8681019790600633896140a48c611e92565b6140ae90846117b0565b016140b890610da2565b6140c19061025a565b906140cb9061025a565b0361418e5750968781996140fc6140ea61010061410d999a9b9c015190565b611b656140f7600e614046565b611aad565b4210614116575b5050505050611033565b9392919061405f565b6141569361414c869261206b8661414161413560e06141519901611f22565b93612163600791611e92565b01916129b283611e10565b611e8c565b612758565b7ff1ca1e9147be737b04a2b018a79405f687a97de8dd8a2559bbe62357343af41461418060405190565b600090a23880878180614103565b6141a2896117d8610df1936121638e611e92565b6040516135cb565b5050915050565b9061035191614028565b610266906141c7610fc1565b50600190565b61026660006141bb565b6102669060a01c611c01565b61026690546141d7565b61026660016141e3565b156141fe57565b60405162461bcd60e51b815260206004820152601060248201526f14185d5cd8589b194e881c185d5cd95960821b6044820152606490fd5b610351614244610fed6141ed565b6141f7565b614251614236565b61035161427f565b9060ff60a01b9060a01b610e00565b90614278610266610e2192151590565b8254614259565b61428a600180614268565b336113757f62e78cea01bee320cd4e420270b5ea74000d11b0c9f74754ebdbfc544b05a2589161097260405190565b610351614249565b6142c9614352565b6103516142d860006001614268565b336113757f5db9ee0a495bf2e6ff9c91a7834c1ba4fdd244a5e8aa4e537bd38aeae4b073aa9161097260405190565b6103516142c1565b1561431657565b60405162461bcd60e51b815260206004820152601460248201527314185d5cd8589b194e881b9bdd081c185d5cd95960621b6044820152606490fd5b61035161435d6141ed565b61430f565b1561436957565b60405162461bcd60e51b815260206004820152602660248201527f53616665436173743a2076616c756520646f65736e27742066697420696e203960448201526536206269747360d01b6064820152608490fd5b61026690611bce6143d46001600160601b0361176a565b821115614362565b6102669081906001600160a01b031681565b9061441b611ae9614416614411600061026696614409600090565b500194610614565b6143dc565b611010565b614458565b9190611105610266610e219390565b80549190600160401b83101561044f57826144529160016103519501815561105d565b90614420565b614465610fed838361449e565b15614497576144929161448d90600161448684614482848261442f565b5490565b9301611e8c565b6114db565b600190565b5050600090565b6144bc9160016144b7926144b0600090565b5001611e8c565b6116d2565b6144c9611ae96000611010565b141590565b906144e9611ae9614416614411600061026696614409600090565b614530565b610266916008021c81565b9061026691546144ee565b61035191600091614420565b8054801561395057600019019061394d61452a838361105d565b90614504565b906145416144b78260018501611e8c565b60009261454d84611010565b821461459a57610266926145a094926145ab926145a5600197889361457a61457486611010565b82611872565b88850191614592614589845490565b6139ed89611010565b8281036145b0575b50505090565b614510565b01611e8c565b61110d565b6144526145d96145e1946145d06145ca61448d958961105d565b906144f9565b9283918861105d565b888801611e8c565b38808061459a565b90614604611ae9614416614411600061026696614409600090565b61449e56fea2646970667358221220d0770b0afceb20d9454c7351f3212d62ff6776a324836d88bb2cd35e6970792a64736f6c63430008120033",
  "linkReferences": {},
  "deployedLinkReferences": {}
}