{
  "_format": "hh-sol-artifact-1",
  "contractName": "SSVManager",
  "sourceName": "src/SSVManager.sol",
  "abi": [
    {
      "inputs": [],
      "stateMutability": "nonpayable",
      "type": "constructor"
    },
    {
      "anonymous": false,
      "inputs": [
        {
          "indexed": false,
          "internalType": "address",
          "name": "userAddress",
          "type": "address"
        },
        {
          "indexed": false,
          "internalType": "uint256",
          "name": "depositAmount",
          "type": "uint256"
        },
        {
          "indexed": false,
          "internalType": "uint256",
          "name": "depositTime",
          "type": "uint256"
        }
      ],
      "name": "Deposit",
      "type": "event"
    },
    {
      "inputs": [],
      "name": "deposit",
      "outputs": [],
      "stateMutability": "payable",
      "type": "function"
    },
    {
      "inputs": [
        {
          "internalType": "uint256",
          "name": "",
          "type": "uint256"
        }
      ],
      "name": "openStakingPools",
      "outputs": [
        {
          "internalType": "address",
          "name": "contractAddress",
          "type": "address"
        },
        {
          "internalType": "uint256",
          "name": "currentAmount",
          "type": "uint256"
        }
      ],
      "stateMutability": "view",
      "type": "function"
    },
    {
      "inputs": [
        {
          "internalType": "address",
          "name": "",
          "type": "address"
        },
        {
          "internalType": "uint256",
          "name": "",
          "type": "uint256"
        }
      ],
      "name": "userStakes",
      "outputs": [
        {
          "internalType": "address",
          "name": "",
          "type": "address"
        }
      ],
      "stateMutability": "view",
      "type": "function"
    }
  ],
  "bytecode": "0x608060405234801561001057600080fd5b50610372806100206000396000f3fe6080604052600436106100345760003560e01c80634de09a5514610039578063b5d5b5fa14610077578063d0e30db0146100b4575b600080fd5b34801561004557600080fd5b50610060600480360381019061005b91906101d8565b6100be565b60405161006e929190610255565b60405180910390f35b34801561008357600080fd5b5061009e600480360381019061009991906102aa565b610112565b6040516100ab91906102ea565b60405180910390f35b6100bc610160565b005b600081815481106100ce57600080fd5b90600052602060002090600202016000915090508060000160009054906101000a900473ffffffffffffffffffffffffffffffffffffffff16908060010154905082565b6001602052816000526040600020818154811061012e57600080fd5b906000526020600020016000915091509054906101000a900473ffffffffffffffffffffffffffffffffffffffff1681565b7f90890809c654f11d6e72a28fa60149770a0d11ec6c92319d6ceb2bb0a4ea1a1533344260405161019393929190610305565b60405180910390a1565b600080fd5b6000819050919050565b6101b5816101a2565b81146101c057600080fd5b50565b6000813590506101d2816101ac565b92915050565b6000602082840312156101ee576101ed61019d565b5b60006101fc848285016101c3565b91505092915050565b600073ffffffffffffffffffffffffffffffffffffffff82169050919050565b600061023082610205565b9050919050565b61024081610225565b82525050565b61024f816101a2565b82525050565b600060408201905061026a6000830185610237565b6102776020830184610246565b9392505050565b61028781610225565b811461029257600080fd5b50565b6000813590506102a48161027e565b92915050565b600080604083850312156102c1576102c061019d565b5b60006102cf85828601610295565b92505060206102e0858286016101c3565b9150509250929050565b60006020820190506102ff6000830184610237565b92915050565b600060608201905061031a6000830186610237565b6103276020830185610246565b6103346040830184610246565b94935050505056fea26469706673582212207d7eb9ad646d74ae721e29e3f796bb55fdfc4fd451957f0ce629d465541c819c64736f6c63430008110033",
  "linkReferences": {},
  "deployedLinkReferences": {}
}